{
  "fileName": "BadgerGeyser.sol",
  "contractName": "BadgerGeyser",
  "source": "pragma solidity 0.5.0;\n\nimport \"openzeppelin-solidity/contracts/math/SafeMath.sol\";\nimport \"openzeppelin-solidity/contracts/token/ERC20/IERC20.sol\";\nimport \"openzeppelin-solidity/contracts/ownership/Ownable.sol\";\nimport \"./IStaking.sol\";\nimport \"./TokenPool.sol\";\n\n/**\n * @title Badger Geyser\n * @dev A smart-contract based mechanism to distribute tokens over time, inspired loosely by\n *      Compound and Uniswap. Based on the Ampleforth implementation.\n *      (https://github.com/ampleforth/token-geyser/)\n *\n *      Distribution tokens are added to a locked pool in the contract and become unlocked over time\n *      according to a once-configurable unlock schedule. Once unlocked, they are available to be\n *      claimed by users.\n *\n *      A user may deposit tokens to accrue ownership share over the unlocked pool. This owner share\n *      is a function of the number of tokens deposited as well as the length of time deposited.\n *      Specifically, a user's share of the currently-unlocked pool equals their \"deposit-seconds\"\n *      divided by the global \"deposit-seconds\".\n *\n *      More background and motivation available at:\n *      https://github.com/ampleforth/RFCs/blob/master/RFCs/rfc-1.md\n */\ncontract BadgerGeyser is IStaking, Ownable {\n    using SafeMath for uint256;\n\n    event Staked(address indexed user, uint256 amount, uint256 total, bytes data);\n    event Unstaked(address indexed user, uint256 amount, uint256 total, bytes data);\n    event TokensClaimed(address indexed user, uint256 totalReward, uint256 userReward, uint256 founderReward);\n    event TokensLocked(uint256 amount, uint256 durationSec, uint256 total);\n    // amount: Unlocked tokens, total: Total locked tokens\n    event TokensUnlocked(uint256 amount, uint256 total);\n\n    TokenPool private _stakingPool;\n    TokenPool private _unlockedPool;\n    TokenPool private _lockedPool;\n\n    //\n    // Time-bonus params\n    //\n    uint256 public constant BONUS_DECIMALS = 2;\n    uint256 public startBonus = 0;\n    uint256 public bonusPeriodSec = 0;\n    uint256 public globalStartTime;\n\n    //\n    // Global accounting state\n    //\n    uint256 public totalLockedShares = 0;\n    uint256 public totalStakingShares = 0;\n    uint256 private _totalStakingShareSeconds = 0;\n    uint256 private _lastAccountingTimestampSec = now;\n    uint256 private _maxUnlockSchedules = 0;\n    uint256 private _initialSharesPerToken = 0;\n\n    //\n    // User accounting state\n    //\n    // Represents a single stake for a user. A user may have multiple.\n    struct Stake {\n        uint256 stakingShares;\n        uint256 timestampSec;\n    }\n\n    // Caches aggregated values from the User->Stake[] map to save computation.\n    // If lastAccountingTimestampSec is 0, there's no entry for that user.\n    struct UserTotals {\n        uint256 stakingShares;\n        uint256 stakingShareSeconds;\n        uint256 lastAccountingTimestampSec;\n    }\n\n    // Aggregated staking values per user\n    mapping(address => UserTotals) private _userTotals;\n\n    // The collection of stakes for each user. Ordered by timestamp, earliest to latest.\n    mapping(address => Stake[]) private _userStakes;\n\n    //\n    // Locked/Unlocked Accounting state\n    //\n    struct UnlockSchedule {\n        uint256 initialLockedShares;\n        uint256 unlockedShares;\n        uint256 lastUnlockTimestampSec;\n        uint256 endAtSec;\n        uint256 durationSec;\n        uint256 startTime;\n    }\n\n    UnlockSchedule[] public unlockSchedules;\n\n\n    //\n    // Founder Lock state\n    //\n    uint256 public constant MAX_PERCENTAGE = 100;\n    uint256 public founderRewardPercentage = 0; //0% - 100% \n    address public founderRewardAddress;\n\n    /**\n     * @param stakingToken The token users deposit as stake.\n     * @param distributionToken The token users receive as they unstake.\n     * @param maxUnlockSchedules Max number of unlock stages, to guard against hitting gas limit.\n     * @param startBonus_ Starting time bonus, BONUS_DECIMALS fixed point.\n     *                    e.g. 25% means user gets 25% of max distribution tokens.\n     * @param bonusPeriodSec_ Length of time for bonus to increase linearly to max.\n     * @param initialSharesPerToken Number of shares to mint per staking token on first stake.\n     * @param globalStartTime_ Timestamp after which unlock schedules and staking can begin.\n     */\n    constructor(IERC20 stakingToken, IERC20 distributionToken, uint256 maxUnlockSchedules, \n        uint256 startBonus_, uint256 bonusPeriodSec_, uint256 initialSharesPerToken,\n        uint256 globalStartTime_, address founderRewardAddress_, uint256 founderRewardPercentage_) public {\n        // The start bonus must be some fraction of the max. (i.e. <= 100%)\n        require(startBonus_ <= 10**BONUS_DECIMALS, 'BadgerGeyser: start bonus too high');\n\n        // The founder reward must be some fraction of the max. (i.e. <= 100%)\n        require(founderRewardPercentage_ <= 10**BONUS_DECIMALS, 'BadgerGeyser: founder reward too high');\n\n        // If no period is desired, instead set startBonus = 100%\n        // and bonusPeriod to a small value like 1sec.\n        require(bonusPeriodSec_ != 0, 'BadgerGeyser: bonus period is zero');\n        require(initialSharesPerToken > 0, 'BadgerGeyser: initialSharesPerToken is zero');\n\n        _stakingPool = new TokenPool(stakingToken);\n        _unlockedPool = new TokenPool(distributionToken);\n        _lockedPool = new TokenPool(distributionToken);\n        startBonus = startBonus_;\n        globalStartTime = globalStartTime_;\n        bonusPeriodSec = bonusPeriodSec_;\n        _maxUnlockSchedules = maxUnlockSchedules;\n        _initialSharesPerToken = initialSharesPerToken;\n        founderRewardPercentage = founderRewardPercentage_;\n        founderRewardAddress = founderRewardAddress_;\n    }\n\n    modifier onlyAfterStart() {\n        require(now >= globalStartTime, \"Distribution not started\");\n        _;\n    }\n\n    /**\n     * @return The token users deposit as stake.\n     */\n    function getStakingToken() public view returns (IERC20) {\n        return _stakingPool.token();\n    }\n\n    /**\n     * @return The token users receive as they unstake.\n     */\n    function getDistributionToken() public view returns (IERC20) {\n        assert(_unlockedPool.token() == _lockedPool.token());\n        return _unlockedPool.token();\n    }\n\n    /**\n     * @dev Transfers amount of deposit tokens from the user.\n     * @param amount Number of deposit tokens to stake.\n     * @param data Not used.\n     */\n    function stake(uint256 amount, bytes calldata data) onlyAfterStart() external {\n        _stakeFor(msg.sender, msg.sender, amount);\n    }\n\n    /**\n     * @dev Transfers amount of deposit tokens from the caller on behalf of user.\n     * @param user User address who gains credit for this stake operation.\n     * @param amount Number of deposit tokens to stake.\n     * @param data Not used.\n     */\n    function stakeFor(address user, uint256 amount, bytes calldata data) onlyAfterStart() external {\n        _stakeFor(msg.sender, user, amount);\n    }\n\n    /**\n     * @dev Private implementation of staking methods.\n     * @param staker User address who deposits tokens to stake.\n     * @param beneficiary User address who gains credit for this stake operation.\n     * @param amount Number of deposit tokens to stake.\n     */\n    function _stakeFor(address staker, address beneficiary, uint256 amount) private {\n        require(amount > 0, 'BadgerGeyser: stake amount is zero');\n        require(beneficiary != address(0), 'BadgerGeyser: beneficiary is zero address');\n        require(totalStakingShares == 0 || totalStaked() > 0,\n                'BadgerGeyser: Invalid state. Staking shares exist, but no staking tokens do');\n\n        uint256 mintedStakingShares = (totalStakingShares > 0)\n            ? totalStakingShares.mul(amount).div(totalStaked())\n            : amount.mul(_initialSharesPerToken);\n        require(mintedStakingShares > 0, 'BadgerGeyser: Stake amount is too small');\n\n        updateAccounting();\n\n        // 1. User Accounting\n        UserTotals storage totals = _userTotals[beneficiary];\n        totals.stakingShares = totals.stakingShares.add(mintedStakingShares);\n        totals.lastAccountingTimestampSec = now;\n\n        Stake memory newStake = Stake(mintedStakingShares, now);\n        _userStakes[beneficiary].push(newStake);\n\n        // 2. Global Accounting\n        totalStakingShares = totalStakingShares.add(mintedStakingShares);\n        // Already set in updateAccounting()\n        // _lastAccountingTimestampSec = now;\n\n        // interactions\n        require(_stakingPool.token().transferFrom(staker, address(_stakingPool), amount),\n            'BadgerGeyser: transfer into staking pool failed');\n\n        emit Staked(beneficiary, amount, totalStakedFor(beneficiary), \"\");\n    }\n\n    /**\n     * @dev Unstakes a certain amount of previously deposited tokens. User also receives their\n     * alotted number of distribution tokens.\n     * @param amount Number of deposit tokens to unstake / withdraw.\n     * @param data Not used.\n     */\n    function unstake(uint256 amount, bytes calldata data) onlyAfterStart() external {\n        _unstake(amount);\n    }\n\n    /**\n     * @param amount Number of deposit tokens to unstake / withdraw.\n     * @return The total number of distribution tokens that would be rewarded.\n     */\n    function unstakeQuery(uint256 amount) \n        public \n        returns (uint256 totalReward, uint256 userReward, uint256 founderReward) {\n        return _unstake(amount);\n    }\n\n    /**\n     * @dev Unstakes a certain amount of previously deposited tokens. User also receives their\n     * alotted number of distribution tokens.\n     * @param amount Number of deposit tokens to unstake / withdraw.\n     * @return The total number of distribution tokens rewarded.\n     */\n    function _unstake(uint256 amount) private returns (uint256 totalReward, uint256 userReward, uint256 founderReward) {\n        updateAccounting();\n\n        // checks\n        require(amount > 0, 'BadgerGeyser: unstake amount is zero');\n        require(totalStakedFor(msg.sender) >= amount,\n            'BadgerGeyser: unstake amount is greater than total user stakes');\n        uint256 stakingSharesToBurn = totalStakingShares.mul(amount).div(totalStaked());\n        require(stakingSharesToBurn > 0, 'BadgerGeyser: Unable to unstake amount this small');\n\n        // 1. User Accounting\n        UserTotals storage totals = _userTotals[msg.sender];\n        Stake[] storage accountStakes = _userStakes[msg.sender];\n\n        // Redeem from most recent stake and go backwards in time.\n        uint256 stakingShareSecondsToBurn = 0;\n        uint256 sharesLeftToBurn = stakingSharesToBurn;\n        uint256 rewardAmount = 0;\n        while (sharesLeftToBurn > 0) {\n            Stake storage lastStake = accountStakes[accountStakes.length - 1];\n            uint256 stakeTimeSec = now.sub(lastStake.timestampSec);\n            uint256 newStakingShareSecondsToBurn = 0;\n            if (lastStake.stakingShares <= sharesLeftToBurn) {\n                // fully redeem a past stake\n                newStakingShareSecondsToBurn = lastStake.stakingShares.mul(stakeTimeSec);\n                rewardAmount = computeNewReward(rewardAmount, newStakingShareSecondsToBurn, stakeTimeSec);\n                stakingShareSecondsToBurn = stakingShareSecondsToBurn.add(newStakingShareSecondsToBurn);\n                sharesLeftToBurn = sharesLeftToBurn.sub(lastStake.stakingShares);\n                accountStakes.length--;\n            } else {\n                // partially redeem a past stake\n                newStakingShareSecondsToBurn = sharesLeftToBurn.mul(stakeTimeSec);\n                rewardAmount = computeNewReward(rewardAmount, newStakingShareSecondsToBurn, stakeTimeSec);\n                stakingShareSecondsToBurn = stakingShareSecondsToBurn.add(newStakingShareSecondsToBurn);\n                lastStake.stakingShares = lastStake.stakingShares.sub(sharesLeftToBurn);\n                sharesLeftToBurn = 0;\n            }\n        }\n        totals.stakingShareSeconds = totals.stakingShareSeconds.sub(stakingShareSecondsToBurn);\n        totals.stakingShares = totals.stakingShares.sub(stakingSharesToBurn);\n        // Already set in updateAccounting\n        // totals.lastAccountingTimestampSec = now;\n\n        // 2. Global Accounting\n        _totalStakingShareSeconds = _totalStakingShareSeconds.sub(stakingShareSecondsToBurn);\n        totalStakingShares = totalStakingShares.sub(stakingSharesToBurn);\n        // Already set in updateAccounting\n        // _lastAccountingTimestampSec = now;\n\n        totalReward = rewardAmount;\n        (userReward, founderReward) = computeFounderReward(totalReward);\n\n        // interactions\n        require(_stakingPool.transfer(msg.sender, amount),\n            'BadgerGeyser: transfer out of staking pool failed');\n\n        if (userReward > 0) {\n        require(_unlockedPool.transfer(msg.sender, userReward),\n            'BadgerGeyser: transfer to user out of unlocked pool failed');\n        }\n\n        if (founderReward > 0) {\n        require(_unlockedPool.transfer(founderRewardAddress, founderReward),\n            'BadgerGeyser: transfer to founder out of unlocked pool failed');\n        }\n\n        emit Unstaked(msg.sender, amount, totalStakedFor(msg.sender), \"\");\n        emit TokensClaimed(msg.sender, totalReward, userReward, founderReward);\n\n        require(totalStakingShares == 0 || totalStaked() > 0,\n                \"BadgerGeyser: Error unstaking. Staking shares exist, but no staking tokens do\");\n    }\n\n    /**\n     * @dev Determines split of specified reward amount between user and founder.\n     * @param totalReward Amount of reward to split.\n     * @return Reward amounts for user and founder.\n     */\n    function computeFounderReward(uint256 totalReward) public view returns (uint256 userReward, uint256 founderReward) {\n        if (founderRewardPercentage == 0) {\n            userReward = totalReward; \n            founderReward = 0; \n        } else if (founderRewardPercentage == 100) {\n            userReward = 0; \n            founderReward = totalReward; \n        } else {\n            founderReward = totalReward.mul(founderRewardPercentage).div(MAX_PERCENTAGE);\n            userReward = totalReward.sub(founderReward); // Extra dust goes to use due to truncated rounding\n        }\n    }\n\n    /**\n     * @dev Applies an additional time-bonus to a distribution amount. This is necessary to\n     *      encourage long-term deposits instead of constant unstake/restakes.\n     *      The bonus-multiplier is the result of a linear function that starts at startBonus and\n     *      ends at 100% over bonusPeriodSec, then stays at 100% thereafter.\n     * @param currentRewardTokens The current number of distribution tokens already alotted for this\n     *                            unstake op. Any bonuses are already applied.\n     * @param stakingShareSeconds The stakingShare-seconds that are being burned for new\n     *                            distribution tokens.\n     * @param stakeTimeSec Length of time for which the tokens were staked. Needed to calculate\n     *                     the time-bonus.\n     * @return Updated amount of distribution tokens to award, with any bonus included on the\n     *         newly added tokens.\n     */\n    function computeNewReward(uint256 currentRewardTokens,\n                                uint256 stakingShareSeconds,\n                                uint256 stakeTimeSec) private view returns (uint256) {\n\n        uint256 newRewardTokens =\n            totalUnlocked()\n            .mul(stakingShareSeconds)\n            .div(_totalStakingShareSeconds);\n\n        if (stakeTimeSec >= bonusPeriodSec) {\n            return currentRewardTokens.add(newRewardTokens);\n        }\n\n        uint256 oneHundredPct = 10**BONUS_DECIMALS;\n        uint256 bonusedReward =\n            startBonus\n            .add(oneHundredPct.sub(startBonus).mul(stakeTimeSec).div(bonusPeriodSec))\n            .mul(newRewardTokens)\n            .div(oneHundredPct);\n        return currentRewardTokens.add(bonusedReward);\n    }\n\n    /**\n     * @param addr The user to look up staking information for.\n     * @return The number of staking tokens deposited for addr.\n     */\n    function totalStakedFor(address addr) public view returns (uint256) {\n        return totalStakingShares > 0 ?\n            totalStaked().mul(_userTotals[addr].stakingShares).div(totalStakingShares) : 0;\n    }\n\n    /**\n     * @return The total number of deposit tokens staked globally, by all users.\n     */\n    function totalStaked() public view returns (uint256) {\n        return _stakingPool.balance();\n    }\n\n    /**\n     * @dev Note that this application has a staking token as well as a distribution token, which\n     * may be different. This function is required by EIP-900.\n     * @return The deposit token used for staking.\n     */\n    function token() external view returns (address) {\n        return address(getStakingToken());\n    }\n\n    /**\n     * @dev A globally callable function to update the accounting state of the system.\n     *      Global state and state for the caller are updated.\n     * @return [0] balance of the locked pool\n     * @return [1] balance of the unlocked pool\n     * @return [2] caller's staking share seconds\n     * @return [3] global staking share seconds\n     * @return [4] Rewards caller has accumulated, optimistically assumes max time-bonus.\n     * @return [5] block timestamp\n     * @return [6] Rewards caller has accumulated, minus founder rewards\n     * @return [7] Founder rewards portion of accumulation\n     */\n    function updateAccounting() public returns (\n        uint256, uint256, uint256, uint256, uint256, uint256, uint256, uint256) {\n\n        unlockTokens();\n\n        // Global accounting\n        uint256 newStakingShareSeconds =\n            now\n            .sub(_lastAccountingTimestampSec)\n            .mul(totalStakingShares);\n        _totalStakingShareSeconds = _totalStakingShareSeconds.add(newStakingShareSeconds);\n        _lastAccountingTimestampSec = now;\n\n        // User Accounting\n        UserTotals storage totals = _userTotals[msg.sender];\n        uint256 newUserStakingShareSeconds =\n            now\n            .sub(totals.lastAccountingTimestampSec)\n            .mul(totals.stakingShares);\n        totals.stakingShareSeconds =\n            totals.stakingShareSeconds\n            .add(newUserStakingShareSeconds);\n        totals.lastAccountingTimestampSec = now;\n\n        uint256 totalUserRewards = (_totalStakingShareSeconds > 0)\n            ? totalUnlocked().mul(totals.stakingShareSeconds).div(_totalStakingShareSeconds)\n            : 0;\n\n            (uint256 userRewards, uint256 founderRewards) = computeFounderReward(totalUserRewards);\n\n        return (\n            totalLocked(),\n            totalUnlocked(),\n            totals.stakingShareSeconds,\n            _totalStakingShareSeconds,\n            totalUserRewards,\n            now,\n            userRewards,\n            founderRewards\n        );\n    }\n\n    /**\n     * @return Total number of locked distribution tokens.\n     */\n    function totalLocked() public view returns (uint256) {\n        return _lockedPool.balance();\n    }\n\n    /**\n     * @return Total number of unlocked distribution tokens.\n     */\n    function totalUnlocked() public view returns (uint256) {\n        return _unlockedPool.balance();\n    }\n\n    /**\n     * @return Number of unlock schedules.\n     */\n    function unlockScheduleCount() public view returns (uint256) {\n        return unlockSchedules.length;\n    }\n\n    /**\n     * @dev This funcion allows the contract owner to add more locked distribution tokens, along\n     *      with the associated \"unlock schedule\". These locked tokens immediately begin unlocking\n     *      linearly over the duraction of durationSec timeframe.\n     * @param amount Number of distribution tokens to lock. These are transferred from the caller.\n     * @param durationSec Length of time to linear unlock the tokens.\n     * @param startTime Time to start distribution.\n     */\n    function lockTokens(uint256 amount, uint256 durationSec, uint256 startTime) external onlyOwner {\n        require(unlockSchedules.length < _maxUnlockSchedules,\n            'BadgerGeyser: reached maximum unlock schedules');\n\n        require (startTime >= globalStartTime, 'BadgerGeyser: schedule cannot start before global start time');\n\n        // Update lockedTokens amount before using it in computations after.\n        updateAccounting();\n\n        uint256 lockedTokens = totalLocked();\n        uint256 mintedLockedShares = (lockedTokens > 0)\n            ? totalLockedShares.mul(amount).div(lockedTokens)\n            : amount.mul(_initialSharesPerToken);\n\n        UnlockSchedule memory schedule;\n        schedule.initialLockedShares = mintedLockedShares;\n        schedule.lastUnlockTimestampSec = startTime;\n        schedule.endAtSec = startTime.add(durationSec);\n        schedule.durationSec = durationSec;\n        schedule.startTime = startTime;\n        unlockSchedules.push(schedule);\n\n        totalLockedShares = totalLockedShares.add(mintedLockedShares);\n\n        require(_lockedPool.token().transferFrom(msg.sender, address(_lockedPool), amount),\n            'BadgerGeyser: transfer into locked pool failed');\n        emit TokensLocked(amount, durationSec, totalLocked());\n    }\n\n    /**\n     * @dev Moves distribution tokens from the locked pool to the unlocked pool, according to the\n     *      previously defined unlock schedules. Publicly callable.\n     * @return Number of newly unlocked distribution tokens.\n     */\n    function unlockTokens() public returns (uint256) {\n        uint256 unlockedTokens = 0;\n        uint256 lockedTokens = totalLocked();\n\n        if (totalLockedShares == 0) {\n            unlockedTokens = lockedTokens;\n        } else {\n            uint256 unlockedShares = 0;\n            for (uint256 s = 0; s < unlockSchedules.length; s++) {\n                unlockedShares = unlockedShares.add(unlockScheduleShares(s));\n            }\n            unlockedTokens = unlockedShares.mul(lockedTokens).div(totalLockedShares);\n            totalLockedShares = totalLockedShares.sub(unlockedShares);\n        }\n\n        if (unlockedTokens > 0) {\n            require(_lockedPool.transfer(address(_unlockedPool), unlockedTokens),\n                'BadgerGeyser: transfer out of locked pool failed');\n            emit TokensUnlocked(unlockedTokens, totalLocked());\n        }\n\n        return unlockedTokens;\n    }\n\n    /**\n     * @dev Returns the number of unlockable shares from a given schedule. The returned value\n     *      depends on the time since the last unlock. This function updates schedule accounting,\n     *      but does not actually transfer any tokens.\n     * @param s Index of the unlock schedule.\n     * @return The number of unlocked shares.\n     */\n    function unlockScheduleShares(uint256 s) private returns (uint256) {\n        UnlockSchedule storage schedule = unlockSchedules[s];\n\n        if(schedule.unlockedShares >= schedule.initialLockedShares) {\n            return 0;\n        }\n\n        if (now < schedule.startTime) {\n            return 0;\n        }\n\n        uint256 sharesToUnlock = 0;\n        // Special case to handle any leftover dust from integer division\n        if (now >= schedule.endAtSec) {\n            sharesToUnlock = (schedule.initialLockedShares.sub(schedule.unlockedShares));\n            schedule.lastUnlockTimestampSec = schedule.endAtSec;\n        } else {\n            sharesToUnlock = now.sub(schedule.lastUnlockTimestampSec)\n                .mul(schedule.initialLockedShares)\n                .div(schedule.durationSec);\n            schedule.lastUnlockTimestampSec = now;\n        }\n\n        schedule.unlockedShares = schedule.unlockedShares.add(sharesToUnlock);\n        return sharesToUnlock;\n    }\n}\n",
  "sourcePath": "contracts/BadgerGeyser.sol",
  "abi": [
    {
      "constant": true,
      "inputs": [],
      "name": "founderRewardPercentage",
      "outputs": [
        {
          "name": "",
          "type": "uint256"
        }
      ],
      "payable": false,
      "stateMutability": "view",
      "type": "function"
    },
    {
      "constant": false,
      "inputs": [
        {
          "name": "amount",
          "type": "uint256"
        },
        {
          "name": "data",
          "type": "bytes"
        }
      ],
      "name": "stake",
      "outputs": [],
      "payable": false,
      "stateMutability": "nonpayable",
      "type": "function"
    },
    {
      "constant": false,
      "inputs": [
        {
          "name": "user",
          "type": "address"
        },
        {
          "name": "amount",
          "type": "uint256"
        },
        {
          "name": "data",
          "type": "bytes"
        }
      ],
      "name": "stakeFor",
      "outputs": [],
      "payable": false,
      "stateMutability": "nonpayable",
      "type": "function"
    },
    {
      "constant": true,
      "inputs": [],
      "name": "BONUS_DECIMALS",
      "outputs": [
        {
          "name": "",
          "type": "uint256"
        }
      ],
      "payable": false,
      "stateMutability": "view",
      "type": "function"
    },
    {
      "constant": true,
      "inputs": [],
      "name": "getDistributionToken",
      "outputs": [
        {
          "name": "",
          "type": "address"
        }
      ],
      "payable": false,
      "stateMutability": "view",
      "type": "function"
    },
    {
      "constant": true,
      "inputs": [],
      "name": "startBonus",
      "outputs": [
        {
          "name": "",
          "type": "uint256"
        }
      ],
      "payable": false,
      "stateMutability": "view",
      "type": "function"
    },
    {
      "constant": false,
      "inputs": [],
      "name": "updateAccounting",
      "outputs": [
        {
          "name": "",
          "type": "uint256"
        },
        {
          "name": "",
          "type": "uint256"
        },
        {
          "name": "",
          "type": "uint256"
        },
        {
          "name": "",
          "type": "uint256"
        },
        {
          "name": "",
          "type": "uint256"
        },
        {
          "name": "",
          "type": "uint256"
        },
        {
          "name": "",
          "type": "uint256"
        },
        {
          "name": "",
          "type": "uint256"
        }
      ],
      "payable": false,
      "stateMutability": "nonpayable",
      "type": "function"
    },
    {
      "constant": true,
      "inputs": [
        {
          "name": "addr",
          "type": "address"
        }
      ],
      "name": "totalStakedFor",
      "outputs": [
        {
          "name": "",
          "type": "uint256"
        }
      ],
      "payable": false,
      "stateMutability": "view",
      "type": "function"
    },
    {
      "constant": true,
      "inputs": [],
      "name": "MAX_PERCENTAGE",
      "outputs": [
        {
          "name": "",
          "type": "uint256"
        }
      ],
      "payable": false,
      "stateMutability": "view",
      "type": "function"
    },
    {
      "constant": true,
      "inputs": [],
      "name": "totalLocked",
      "outputs": [
        {
          "name": "",
          "type": "uint256"
        }
      ],
      "payable": false,
      "stateMutability": "view",
      "type": "function"
    },
    {
      "constant": true,
      "inputs": [
        {
          "name": "",
          "type": "uint256"
        }
      ],
      "name": "unlockSchedules",
      "outputs": [
        {
          "name": "initialLockedShares",
          "type": "uint256"
        },
        {
          "name": "unlockedShares",
          "type": "uint256"
        },
        {
          "name": "lastUnlockTimestampSec",
          "type": "uint256"
        },
        {
          "name": "endAtSec",
          "type": "uint256"
        },
        {
          "name": "durationSec",
          "type": "uint256"
        },
        {
          "name": "startTime",
          "type": "uint256"
        }
      ],
      "payable": false,
      "stateMutability": "view",
      "type": "function"
    },
    {
      "constant": true,
      "inputs": [],
      "name": "founderRewardAddress",
      "outputs": [
        {
          "name": "",
          "type": "address"
        }
      ],
      "payable": false,
      "stateMutability": "view",
      "type": "function"
    },
    {
      "constant": true,
      "inputs": [],
      "name": "supportsHistory",
      "outputs": [
        {
          "name": "",
          "type": "bool"
        }
      ],
      "payable": false,
      "stateMutability": "pure",
      "type": "function"
    },
    {
      "constant": true,
      "inputs": [],
      "name": "totalStakingShares",
      "outputs": [
        {
          "name": "",
          "type": "uint256"
        }
      ],
      "payable": false,
      "stateMutability": "view",
      "type": "function"
    },
    {
      "constant": false,
      "inputs": [],
      "name": "renounceOwnership",
      "outputs": [],
      "payable": false,
      "stateMutability": "nonpayable",
      "type": "function"
    },
    {
      "constant": true,
      "inputs": [
        {
          "name": "totalReward",
          "type": "uint256"
        }
      ],
      "name": "computeFounderReward",
      "outputs": [
        {
          "name": "userReward",
          "type": "uint256"
        },
        {
          "name": "founderReward",
          "type": "uint256"
        }
      ],
      "payable": false,
      "stateMutability": "view",
      "type": "function"
    },
    {
      "constant": true,
      "inputs": [],
      "name": "bonusPeriodSec",
      "outputs": [
        {
          "name": "",
          "type": "uint256"
        }
      ],
      "payable": false,
      "stateMutability": "view",
      "type": "function"
    },
    {
      "constant": true,
      "inputs": [],
      "name": "totalStaked",
      "outputs": [
        {
          "name": "",
          "type": "uint256"
        }
      ],
      "payable": false,
      "stateMutability": "view",
      "type": "function"
    },
    {
      "constant": true,
      "inputs": [],
      "name": "totalLockedShares",
      "outputs": [
        {
          "name": "",
          "type": "uint256"
        }
      ],
      "payable": false,
      "stateMutability": "view",
      "type": "function"
    },
    {
      "constant": false,
      "inputs": [
        {
          "name": "amount",
          "type": "uint256"
        },
        {
          "name": "durationSec",
          "type": "uint256"
        },
        {
          "name": "startTime",
          "type": "uint256"
        }
      ],
      "name": "lockTokens",
      "outputs": [],
      "payable": false,
      "stateMutability": "nonpayable",
      "type": "function"
    },
    {
      "constant": false,
      "inputs": [
        {
          "name": "amount",
          "type": "uint256"
        }
      ],
      "name": "unstakeQuery",
      "outputs": [
        {
          "name": "totalReward",
          "type": "uint256"
        },
        {
          "name": "userReward",
          "type": "uint256"
        },
        {
          "name": "founderReward",
          "type": "uint256"
        }
      ],
      "payable": false,
      "stateMutability": "nonpayable",
      "type": "function"
    },
    {
      "constant": true,
      "inputs": [],
      "name": "owner",
      "outputs": [
        {
          "name": "",
          "type": "address"
        }
      ],
      "payable": false,
      "stateMutability": "view",
      "type": "function"
    },
    {
      "constant": true,
      "inputs": [],
      "name": "isOwner",
      "outputs": [
        {
          "name": "",
          "type": "bool"
        }
      ],
      "payable": false,
      "stateMutability": "view",
      "type": "function"
    },
    {
      "constant": true,
      "inputs": [],
      "name": "globalStartTime",
      "outputs": [
        {
          "name": "",
          "type": "uint256"
        }
      ],
      "payable": false,
      "stateMutability": "view",
      "type": "function"
    },
    {
      "constant": true,
      "inputs": [],
      "name": "getStakingToken",
      "outputs": [
        {
          "name": "",
          "type": "address"
        }
      ],
      "payable": false,
      "stateMutability": "view",
      "type": "function"
    },
    {
      "constant": true,
      "inputs": [],
      "name": "totalUnlocked",
      "outputs": [
        {
          "name": "",
          "type": "uint256"
        }
      ],
      "payable": false,
      "stateMutability": "view",
      "type": "function"
    },
    {
      "constant": true,
      "inputs": [],
      "name": "unlockScheduleCount",
      "outputs": [
        {
          "name": "",
          "type": "uint256"
        }
      ],
      "payable": false,
      "stateMutability": "view",
      "type": "function"
    },
    {
      "constant": false,
      "inputs": [
        {
          "name": "amount",
          "type": "uint256"
        },
        {
          "name": "data",
          "type": "bytes"
        }
      ],
      "name": "unstake",
      "outputs": [],
      "payable": false,
      "stateMutability": "nonpayable",
      "type": "function"
    },
    {
      "constant": false,
      "inputs": [
        {
          "name": "newOwner",
          "type": "address"
        }
      ],
      "name": "transferOwnership",
      "outputs": [],
      "payable": false,
      "stateMutability": "nonpayable",
      "type": "function"
    },
    {
      "constant": false,
      "inputs": [],
      "name": "unlockTokens",
      "outputs": [
        {
          "name": "",
          "type": "uint256"
        }
      ],
      "payable": false,
      "stateMutability": "nonpayable",
      "type": "function"
    },
    {
      "constant": true,
      "inputs": [],
      "name": "token",
      "outputs": [
        {
          "name": "",
          "type": "address"
        }
      ],
      "payable": false,
      "stateMutability": "view",
      "type": "function"
    },
    {
      "inputs": [
        {
          "name": "stakingToken",
          "type": "address"
        },
        {
          "name": "distributionToken",
          "type": "address"
        },
        {
          "name": "maxUnlockSchedules",
          "type": "uint256"
        },
        {
          "name": "startBonus_",
          "type": "uint256"
        },
        {
          "name": "bonusPeriodSec_",
          "type": "uint256"
        },
        {
          "name": "initialSharesPerToken",
          "type": "uint256"
        },
        {
          "name": "globalStartTime_",
          "type": "uint256"
        },
        {
          "name": "founderRewardAddress_",
          "type": "address"
        },
        {
          "name": "founderRewardPercentage_",
          "type": "uint256"
        }
      ],
      "payable": false,
      "stateMutability": "nonpayable",
      "type": "constructor"
    },
    {
      "anonymous": false,
      "inputs": [
        {
          "indexed": true,
          "name": "user",
          "type": "address"
        },
        {
          "indexed": false,
          "name": "amount",
          "type": "uint256"
        },
        {
          "indexed": false,
          "name": "total",
          "type": "uint256"
        },
        {
          "indexed": false,
          "name": "data",
          "type": "bytes"
        }
      ],
      "name": "Staked",
      "type": "event"
    },
    {
      "anonymous": false,
      "inputs": [
        {
          "indexed": true,
          "name": "user",
          "type": "address"
        },
        {
          "indexed": false,
          "name": "amount",
          "type": "uint256"
        },
        {
          "indexed": false,
          "name": "total",
          "type": "uint256"
        },
        {
          "indexed": false,
          "name": "data",
          "type": "bytes"
        }
      ],
      "name": "Unstaked",
      "type": "event"
    },
    {
      "anonymous": false,
      "inputs": [
        {
          "indexed": true,
          "name": "user",
          "type": "address"
        },
        {
          "indexed": false,
          "name": "totalReward",
          "type": "uint256"
        },
        {
          "indexed": false,
          "name": "userReward",
          "type": "uint256"
        },
        {
          "indexed": false,
          "name": "founderReward",
          "type": "uint256"
        }
      ],
      "name": "TokensClaimed",
      "type": "event"
    },
    {
      "anonymous": false,
      "inputs": [
        {
          "indexed": false,
          "name": "amount",
          "type": "uint256"
        },
        {
          "indexed": false,
          "name": "durationSec",
          "type": "uint256"
        },
        {
          "indexed": false,
          "name": "total",
          "type": "uint256"
        }
      ],
      "name": "TokensLocked",
      "type": "event"
    },
    {
      "anonymous": false,
      "inputs": [
        {
          "indexed": false,
          "name": "amount",
          "type": "uint256"
        },
        {
          "indexed": false,
          "name": "total",
          "type": "uint256"
        }
      ],
      "name": "TokensUnlocked",
      "type": "event"
    },
    {
      "anonymous": false,
      "inputs": [
        {
          "indexed": true,
          "name": "previousOwner",
          "type": "address"
        },
        {
          "indexed": true,
          "name": "newOwner",
          "type": "address"
        }
      ],
      "name": "OwnershipTransferred",
      "type": "event"
    }
  ],
  "bytecode": "0x60806040526000600455600060055560006007556000600855600060095542600a556000600b556000600c5560006010553480156200003d57600080fd5b506040516101208062004b7f83398101806040526101208110156200006157600080fd5b81019080805190602001909291908051906020019092919080519060200190929190805190602001909291908051906020019092919080519060200190929190805190602001909291908051906020019092919080519060200190929190505050620000db62000672640100000000026401000000009004565b6000806101000a81548173ffffffffffffffffffffffffffffffffffffffff021916908373ffffffffffffffffffffffffffffffffffffffff1602179055506000809054906101000a900473ffffffffffffffffffffffffffffffffffffffff1673ffffffffffffffffffffffffffffffffffffffff16600073ffffffffffffffffffffffffffffffffffffffff167f8be0079c531659141344cd1fd0a4f28419497f9722a3daafe3b4186f6b6457e060405160405180910390a36002600a0a861115151562000239576040517f08c379a00000000000000000000000000000000000000000000000000000000081526004018080602001828103825260228152602001807f4261646765724765797365723a20737461727420626f6e757320746f6f20686981526020017f676800000000000000000000000000000000000000000000000000000000000081525060400191505060405180910390fd5b6002600a0a8111151515620002dc576040517f08c379a00000000000000000000000000000000000000000000000000000000081526004018080602001828103825260258152602001807f4261646765724765797365723a20666f756e6465722072657761726420746f6f81526020017f206869676800000000000000000000000000000000000000000000000000000081525060400191505060405180910390fd5b600085141515156200037c576040517f08c379a00000000000000000000000000000000000000000000000000000000081526004018080602001828103825260228152602001807f4261646765724765797365723a20626f6e757320706572696f64206973207a6581526020017f726f00000000000000000000000000000000000000000000000000000000000081525060400191505060405180910390fd5b6000841115156200041b576040517f08c379a000000000000000000000000000000000000000000000000000000000815260040180806020018281038252602b8152602001807f4261646765724765797365723a20696e697469616c536861726573506572546f81526020017f6b656e206973207a65726f00000000000000000000000000000000000000000081525060400191505060405180910390fd5b88620004266200067a565b808273ffffffffffffffffffffffffffffffffffffffff1673ffffffffffffffffffffffffffffffffffffffff168152602001915050604051809103906000f08015801562000479573d6000803e3d6000fd5b50600160006101000a81548173ffffffffffffffffffffffffffffffffffffffff021916908373ffffffffffffffffffffffffffffffffffffffff16021790555087620004c56200067a565b808273ffffffffffffffffffffffffffffffffffffffff1673ffffffffffffffffffffffffffffffffffffffff168152602001915050604051809103906000f08015801562000518573d6000803e3d6000fd5b50600260006101000a81548173ffffffffffffffffffffffffffffffffffffffff021916908373ffffffffffffffffffffffffffffffffffffffff16021790555087620005646200067a565b808273ffffffffffffffffffffffffffffffffffffffff1673ffffffffffffffffffffffffffffffffffffffff168152602001915050604051809103906000f080158015620005b7573d6000803e3d6000fd5b50600360006101000a81548173ffffffffffffffffffffffffffffffffffffffff021916908373ffffffffffffffffffffffffffffffffffffffff16021790555085600481905550826006819055508460058190555086600b8190555083600c819055508060108190555081601160006101000a81548173ffffffffffffffffffffffffffffffffffffffff021916908373ffffffffffffffffffffffffffffffffffffffff1602179055505050505050505050506200068b565b600033905090565b604051610a8c80620040f383390190565b613a58806200069b6000396000f3fe60806040526004361061018b576000357c0100000000000000000000000000000000000000000000000000000000900463ffffffff168063012b19ff146101905780630e89439b146101bb5780630ef963561461024b5780631dc27fde146102fb57806322c12b841461032657806338b45fde1461037d578063494347e7146103a85780634b341aed146104045780634c255c971461046957806356891412146104945780635c94bcb2146104bf5780636afa6a17146105315780637033e4a61461058857806370c6a17e146105b7578063715018a6146105e257806376ef4624146105f95780637c6aa6f41461064f578063817b1cd21461067a57806381c39bec146106a55780638586c264146106d057806386805dd11461071f5780638da5cb5b1461077c5780638f32d59b146107d35780639d81ff15146108025780639f9106d11461082d578063a779d08014610884578063c7ae2007146108af578063c8fd6ed0146108da578063f2fde38b1461096a578063f968f493146109bb578063fc0c546a146109e6575b600080fd5b34801561019c57600080fd5b506101a5610a3d565b6040518082815260200191505060405180910390f35b3480156101c757600080fd5b50610249600480360360408110156101de57600080fd5b81019080803590602001909291908035906020019064010000000081111561020557600080fd5b82018360208201111561021757600080fd5b8035906020019184600183028401116401000000008311171561023957600080fd5b9091929391929390505050610a43565b005b34801561025757600080fd5b506102f96004803603606081101561026e57600080fd5b81019080803573ffffffffffffffffffffffffffffffffffffffff16906020019092919080359060200190929190803590602001906401000000008111156102b557600080fd5b8201836020820111156102c757600080fd5b803590602001918460018302840111640100000000831117156102e957600080fd5b9091929391929390505050610acd565b005b34801561030757600080fd5b50610310610b58565b6040518082815260200191505060405180910390f35b34801561033257600080fd5b5061033b610b5d565b604051808273ffffffffffffffffffffffffffffffffffffffff1673ffffffffffffffffffffffffffffffffffffffff16815260200191505060405180910390f35b34801561038957600080fd5b50610392610dd6565b6040518082815260200191505060405180910390f35b3480156103b457600080fd5b506103bd610ddc565b604051808981526020018881526020018781526020018681526020018581526020018481526020018381526020018281526020019850505050505050505060405180910390f35b34801561041057600080fd5b506104536004803603602081101561042757600080fd5b81019080803573ffffffffffffffffffffffffffffffffffffffff169060200190929190505050610f6f565b6040518082815260200191505060405180910390f35b34801561047557600080fd5b5061047e610ff9565b6040518082815260200191505060405180910390f35b3480156104a057600080fd5b506104a9610ffe565b6040518082815260200191505060405180910390f35b3480156104cb57600080fd5b506104f8600480360360208110156104e257600080fd5b81019080803590602001909291905050506110c4565b60405180878152602001868152602001858152602001848152602001838152602001828152602001965050505050505060405180910390f35b34801561053d57600080fd5b5061054661110f565b604051808273ffffffffffffffffffffffffffffffffffffffff1673ffffffffffffffffffffffffffffffffffffffff16815260200191505060405180910390f35b34801561059457600080fd5b5061059d611135565b604051808215151515815260200191505060405180910390f35b3480156105c357600080fd5b506105cc61113d565b6040518082815260200191505060405180910390f35b3480156105ee57600080fd5b506105f7611143565b005b34801561060557600080fd5b506106326004803603602081101561061c57600080fd5b810190808035906020019092919050505061127e565b604051808381526020018281526020019250505060405180910390f35b34801561065b57600080fd5b506106646112f5565b6040518082815260200191505060405180910390f35b34801561068657600080fd5b5061068f6112fb565b6040518082815260200191505060405180910390f35b3480156106b157600080fd5b506106ba6113c1565b6040518082815260200191505060405180910390f35b3480156106dc57600080fd5b5061071d600480360360608110156106f357600080fd5b810190808035906020019092919080359060200190929190803590602001909291905050506113c7565b005b34801561072b57600080fd5b506107586004803603602081101561074257600080fd5b81019080803590602001909291905050506119a6565b60405180848152602001838152602001828152602001935050505060405180910390f35b34801561078857600080fd5b506107916119c1565b604051808273ffffffffffffffffffffffffffffffffffffffff1673ffffffffffffffffffffffffffffffffffffffff16815260200191505060405180910390f35b3480156107df57600080fd5b506107e86119ea565b604051808215151515815260200191505060405180910390f35b34801561080e57600080fd5b50610817611a48565b6040518082815260200191505060405180910390f35b34801561083957600080fd5b50610842611a4e565b604051808273ffffffffffffffffffffffffffffffffffffffff1673ffffffffffffffffffffffffffffffffffffffff16815260200191505060405180910390f35b34801561089057600080fd5b50610899611b14565b6040518082815260200191505060405180910390f35b3480156108bb57600080fd5b506108c4611bda565b6040518082815260200191505060405180910390f35b3480156108e657600080fd5b50610968600480360360408110156108fd57600080fd5b81019080803590602001909291908035906020019064010000000081111561092457600080fd5b82018360208201111561093657600080fd5b8035906020019184600183028401116401000000008311171561095857600080fd5b9091929391929390505050611be7565b005b34801561097657600080fd5b506109b96004803603602081101561098d57600080fd5b81019080803573ffffffffffffffffffffffffffffffffffffffff169060200190929190505050611c72565b005b3480156109c757600080fd5b506109d0611cfa565b6040518082815260200191505060405180910390f35b3480156109f257600080fd5b506109fb611fbd565b604051808273ffffffffffffffffffffffffffffffffffffffff1673ffffffffffffffffffffffffffffffffffffffff16815260200191505060405180910390f35b60105481565b6006544210151515610abd576040517f08c379a00000000000000000000000000000000000000000000000000000000081526004018080602001828103825260188152602001807f446973747269627574696f6e206e6f742073746172746564000000000000000081525060200191505060405180910390fd5b610ac8333385611fcc565b505050565b6006544210151515610b47576040517f08c379a00000000000000000000000000000000000000000000000000000000081526004018080602001828103825260188152602001807f446973747269627574696f6e206e6f742073746172746564000000000000000081525060200191505060405180910390fd5b610b52338585611fcc565b50505050565b600281565b6000600360009054906101000a900473ffffffffffffffffffffffffffffffffffffffff1673ffffffffffffffffffffffffffffffffffffffff1663fc0c546a6040518163ffffffff167c010000000000000000000000000000000000000000000000000000000002815260040160206040518083038186803b158015610be357600080fd5b505afa158015610bf7573d6000803e3d6000fd5b505050506040513d6020811015610c0d57600080fd5b810190808051906020019092919050505073ffffffffffffffffffffffffffffffffffffffff16600260009054906101000a900473ffffffffffffffffffffffffffffffffffffffff1673ffffffffffffffffffffffffffffffffffffffff1663fc0c546a6040518163ffffffff167c010000000000000000000000000000000000000000000000000000000002815260040160206040518083038186803b158015610cb857600080fd5b505afa158015610ccc573d6000803e3d6000fd5b505050506040513d6020811015610ce257600080fd5b810190808051906020019092919050505073ffffffffffffffffffffffffffffffffffffffff16141515610d1257fe5b600260009054906101000a900473ffffffffffffffffffffffffffffffffffffffff1673ffffffffffffffffffffffffffffffffffffffff1663fc0c546a6040518163ffffffff167c010000000000000000000000000000000000000000000000000000000002815260040160206040518083038186803b158015610d9657600080fd5b505afa158015610daa573d6000803e3d6000fd5b505050506040513d6020811015610dc057600080fd5b8101908080519060200190929190505050905090565b60045481565b600080600080600080600080610df0611cfa565b506000610e1c600854610e0e600a544261273e90919063ffffffff16565b61278890919063ffffffff16565b9050610e338160095461285590919063ffffffff16565b60098190555042600a819055506000600d60003373ffffffffffffffffffffffffffffffffffffffff1673ffffffffffffffffffffffffffffffffffffffff16815260200190815260200160002090506000610eb28260000154610ea484600201544261273e90919063ffffffff16565b61278890919063ffffffff16565b9050610ecb81836001015461285590919063ffffffff16565b826001018190555042826002018190555060008060095411610eee576000610f21565b610f20600954610f128560010154610f04611b14565b61278890919063ffffffff16565b6128df90919063ffffffff16565b5b9050600080610f2f8361127e565b91509150610f3b610ffe565b610f43611b14565b8660010154600954864287879d509d509d509d509d509d509d509d505050505050509091929394959697565b60008060085411610f81576000610ff2565b610ff1600854610fe3600d60008673ffffffffffffffffffffffffffffffffffffffff1673ffffffffffffffffffffffffffffffffffffffff16815260200190815260200160002060000154610fd56112fb565b61278890919063ffffffff16565b6128df90919063ffffffff16565b5b9050919050565b606481565b6000600360009054906101000a900473ffffffffffffffffffffffffffffffffffffffff1673ffffffffffffffffffffffffffffffffffffffff1663b69ef8a86040518163ffffffff167c010000000000000000000000000000000000000000000000000000000002815260040160206040518083038186803b15801561108457600080fd5b505afa158015611098573d6000803e3d6000fd5b505050506040513d60208110156110ae57600080fd5b8101908080519060200190929190505050905090565b600f818154811015156110d357fe5b90600052602060002090600602016000915090508060000154908060010154908060020154908060030154908060040154908060050154905086565b601160009054906101000a900473ffffffffffffffffffffffffffffffffffffffff1681565b600080905090565b60085481565b61114b6119ea565b15156111bf576040517f08c379a00000000000000000000000000000000000000000000000000000000081526004018080602001828103825260208152602001807f4f776e61626c653a2063616c6c6572206973206e6f7420746865206f776e657281525060200191505060405180910390fd5b600073ffffffffffffffffffffffffffffffffffffffff166000809054906101000a900473ffffffffffffffffffffffffffffffffffffffff1673ffffffffffffffffffffffffffffffffffffffff167f8be0079c531659141344cd1fd0a4f28419497f9722a3daafe3b4186f6b6457e060405160405180910390a360008060006101000a81548173ffffffffffffffffffffffffffffffffffffffff021916908373ffffffffffffffffffffffffffffffffffffffff160217905550565b6000806000601054141561129857829150600090506112f0565b606460105414156112af57600091508290506112ef565b6112d760646112c96010548661278890919063ffffffff16565b6128df90919063ffffffff16565b90506112ec818461273e90919063ffffffff16565b91505b5b915091565b60055481565b6000600160009054906101000a900473ffffffffffffffffffffffffffffffffffffffff1673ffffffffffffffffffffffffffffffffffffffff1663b69ef8a86040518163ffffffff167c010000000000000000000000000000000000000000000000000000000002815260040160206040518083038186803b15801561138157600080fd5b505afa158015611395573d6000803e3d6000fd5b505050506040513d60208110156113ab57600080fd5b8101908080519060200190929190505050905090565b60075481565b6113cf6119ea565b1515611443576040517f08c379a00000000000000000000000000000000000000000000000000000000081526004018080602001828103825260208152602001807f4f776e61626c653a2063616c6c6572206973206e6f7420746865206f776e657281525060200191505060405180910390fd5b600b54600f805490501015156114e7576040517f08c379a000000000000000000000000000000000000000000000000000000000815260040180806020018281038252602e8152602001807f4261646765724765797365723a2072656163686564206d6178696d756d20756e81526020017f6c6f636b207363686564756c657300000000000000000000000000000000000081525060400191505060405180910390fd5b6006548110151515611587576040517f08c379a000000000000000000000000000000000000000000000000000000000815260040180806020018281038252603c8152602001807f4261646765724765797365723a207363686564756c652063616e6e6f7420737481526020017f617274206265666f726520676c6f62616c2073746172742074696d650000000081525060400191505060405180910390fd5b61158f610ddc565b505050505050505060006115a1610ffe565b905060008082116115c6576115c1600c548661278890919063ffffffff16565b6115ee565b6115ed826115df8760075461278890919063ffffffff16565b6128df90919063ffffffff16565b5b90506115f861397a565b818160000181815250508381604001818152505061161f858561285590919063ffffffff16565b81606001818152505084816080018181525050838160a0018181525050600f8190806001815401808255809150509060018203906000526020600020906006020160009091929091909150600082015181600001556020820151816001015560408201518160020155606082015181600301556080820151816004015560a082015181600501555050506116be8260075461285590919063ffffffff16565b600781905550600360009054906101000a900473ffffffffffffffffffffffffffffffffffffffff1673ffffffffffffffffffffffffffffffffffffffff1663fc0c546a6040518163ffffffff167c010000000000000000000000000000000000000000000000000000000002815260040160206040518083038186803b15801561174857600080fd5b505afa15801561175c573d6000803e3d6000fd5b505050506040513d602081101561177257600080fd5b810190808051906020019092919050505073ffffffffffffffffffffffffffffffffffffffff166323b872dd33600360009054906101000a900473ffffffffffffffffffffffffffffffffffffffff16896040518463ffffffff167c0100000000000000000000000000000000000000000000000000000000028152600401808473ffffffffffffffffffffffffffffffffffffffff1673ffffffffffffffffffffffffffffffffffffffff1681526020018373ffffffffffffffffffffffffffffffffffffffff1673ffffffffffffffffffffffffffffffffffffffff1681526020018281526020019350505050602060405180830381600087803b15801561187b57600080fd5b505af115801561188f573d6000803e3d6000fd5b505050506040513d60208110156118a557600080fd5b81019080805190602001909291905050501515611950576040517f08c379a000000000000000000000000000000000000000000000000000000000815260040180806020018281038252602e8152602001807f4261646765724765797365723a207472616e7366657220696e746f206c6f636b81526020017f656420706f6f6c206661696c656400000000000000000000000000000000000081525060400191505060405180910390fd5b7ff346961af4c52f314df1b45964746280fe409abb959d4a2458d58f79408b1fe8868661197b610ffe565b60405180848152602001838152602001828152602001935050505060405180910390a1505050505050565b60008060006119b484612929565b9250925092509193909250565b60008060009054906101000a900473ffffffffffffffffffffffffffffffffffffffff16905090565b60008060009054906101000a900473ffffffffffffffffffffffffffffffffffffffff1673ffffffffffffffffffffffffffffffffffffffff16611a2c613457565b73ffffffffffffffffffffffffffffffffffffffff1614905090565b60065481565b6000600160009054906101000a900473ffffffffffffffffffffffffffffffffffffffff1673ffffffffffffffffffffffffffffffffffffffff1663fc0c546a6040518163ffffffff167c010000000000000000000000000000000000000000000000000000000002815260040160206040518083038186803b158015611ad457600080fd5b505afa158015611ae8573d6000803e3d6000fd5b505050506040513d6020811015611afe57600080fd5b8101908080519060200190929190505050905090565b6000600260009054906101000a900473ffffffffffffffffffffffffffffffffffffffff1673ffffffffffffffffffffffffffffffffffffffff1663b69ef8a86040518163ffffffff167c010000000000000000000000000000000000000000000000000000000002815260040160206040518083038186803b158015611b9a57600080fd5b505afa158015611bae573d6000803e3d6000fd5b505050506040513d6020811015611bc457600080fd5b8101908080519060200190929190505050905090565b6000600f80549050905090565b6006544210151515611c61576040517f08c379a00000000000000000000000000000000000000000000000000000000081526004018080602001828103825260188152602001807f446973747269627574696f6e206e6f742073746172746564000000000000000081525060200191505060405180910390fd5b611c6a83612929565b505050505050565b611c7a6119ea565b1515611cee576040517f08c379a00000000000000000000000000000000000000000000000000000000081526004018080602001828103825260208152602001807f4f776e61626c653a2063616c6c6572206973206e6f7420746865206f776e657281525060200191505060405180910390fd5b611cf78161345f565b50565b600080600090506000611d0b610ffe565b905060006007541415611d2057809150611da9565b600080905060008090505b600f80549050811015611d6257611d53611d44826135e8565b8361285590919063ffffffff16565b91508080600101915050611d2b565b50611d8a600754611d7c848461278890919063ffffffff16565b6128df90919063ffffffff16565b9250611da18160075461273e90919063ffffffff16565b600781905550505b6000821115611fb557600360009054906101000a900473ffffffffffffffffffffffffffffffffffffffff1673ffffffffffffffffffffffffffffffffffffffff1663a9059cbb600260009054906101000a900473ffffffffffffffffffffffffffffffffffffffff16846040518363ffffffff167c0100000000000000000000000000000000000000000000000000000000028152600401808373ffffffffffffffffffffffffffffffffffffffff1673ffffffffffffffffffffffffffffffffffffffff16815260200182815260200192505050602060405180830381600087803b158015611e9957600080fd5b505af1158015611ead573d6000803e3d6000fd5b505050506040513d6020811015611ec357600080fd5b81019080805190602001909291905050501515611f6e576040517f08c379a00000000000000000000000000000000000000000000000000000000081526004018080602001828103825260308152602001807f4261646765724765797365723a207472616e73666572206f7574206f66206c6f81526020017f636b656420706f6f6c206661696c65640000000000000000000000000000000081525060400191505060405180910390fd5b7f2e444eb379b177e88ce0649c6110a3b01099f03e297127919dd5e3b63a761a9c82611f98610ffe565b604051808381526020018281526020019250505060405180910390a15b819250505090565b6000611fc7611a4e565b905090565b60008111151561206a576040517f08c379a00000000000000000000000000000000000000000000000000000000081526004018080602001828103825260228152602001807f4261646765724765797365723a207374616b6520616d6f756e74206973207a6581526020017f726f00000000000000000000000000000000000000000000000000000000000081525060400191505060405180910390fd5b600073ffffffffffffffffffffffffffffffffffffffff168273ffffffffffffffffffffffffffffffffffffffff1614151515612135576040517f08c379a00000000000000000000000000000000000000000000000000000000081526004018080602001828103825260298152602001807f4261646765724765797365723a2062656e6566696369617279206973207a657281526020017f6f2061646472657373000000000000000000000000000000000000000000000081525060400191505060405180910390fd5b6000600854148061214d5750600061214b6112fb565b115b151561220d576040517f08c379a000000000000000000000000000000000000000000000000000000000815260040180806020018281038252604b8152602001807f4261646765724765797365723a20496e76616c69642073746174652e2053746181526020017f6b696e67207368617265732065786973742c20627574206e6f207374616b696e81526020017f6720746f6b656e7320646f00000000000000000000000000000000000000000081525060600191505060405180910390fd5b600080600854116122325761222d600c548361278890919063ffffffff16565b612261565b61226061223d6112fb565b6122528460085461278890919063ffffffff16565b6128df90919063ffffffff16565b5b9050600081111515612301576040517f08c379a00000000000000000000000000000000000000000000000000000000081526004018080602001828103825260278152602001807f4261646765724765797365723a205374616b6520616d6f756e7420697320746f81526020017f6f20736d616c6c0000000000000000000000000000000000000000000000000081525060400191505060405180910390fd5b612309610ddc565b50505050505050506000600d60008573ffffffffffffffffffffffffffffffffffffffff1673ffffffffffffffffffffffffffffffffffffffff168152602001908152602001600020905061236b82826000015461285590919063ffffffff16565b81600001819055504281600201819055506123846139b1565b6040805190810160405280848152602001428152509050600e60008673ffffffffffffffffffffffffffffffffffffffff1673ffffffffffffffffffffffffffffffffffffffff168152602001908152602001600020819080600181540180825580915050906001820390600052602060002090600202016000909192909190915060008201518160000155602082015181600101555050506124328360085461285590919063ffffffff16565b600881905550600160009054906101000a900473ffffffffffffffffffffffffffffffffffffffff1673ffffffffffffffffffffffffffffffffffffffff1663fc0c546a6040518163ffffffff167c010000000000000000000000000000000000000000000000000000000002815260040160206040518083038186803b1580156124bc57600080fd5b505afa1580156124d0573d6000803e3d6000fd5b505050506040513d60208110156124e657600080fd5b810190808051906020019092919050505073ffffffffffffffffffffffffffffffffffffffff166323b872dd87600160009054906101000a900473ffffffffffffffffffffffffffffffffffffffff16876040518463ffffffff167c0100000000000000000000000000000000000000000000000000000000028152600401808473ffffffffffffffffffffffffffffffffffffffff1673ffffffffffffffffffffffffffffffffffffffff1681526020018373ffffffffffffffffffffffffffffffffffffffff1673ffffffffffffffffffffffffffffffffffffffff1681526020018281526020019350505050602060405180830381600087803b1580156125ef57600080fd5b505af1158015612603573d6000803e3d6000fd5b505050506040513d602081101561261957600080fd5b810190808051906020019092919050505015156126c4576040517f08c379a000000000000000000000000000000000000000000000000000000000815260040180806020018281038252602f8152602001807f4261646765724765797365723a207472616e7366657220696e746f207374616b81526020017f696e6720706f6f6c206661696c6564000000000000000000000000000000000081525060400191505060405180910390fd5b8473ffffffffffffffffffffffffffffffffffffffff167fc65e53b88159e7d2c0fc12a0600072e28ae53ff73b4c1715369c30f1609351428561270688610f6f565b6040518083815260200182815260200180602001828103825260008152602001602001935050505060405180910390a2505050505050565b600061278083836040805190810160405280601e81526020017f536166654d6174683a207375627472616374696f6e206f766572666c6f7700008152506136f5565b905092915050565b60008083141561279b576000905061284f565b600082840290508284828115156127ae57fe5b0414151561284a576040517f08c379a00000000000000000000000000000000000000000000000000000000081526004018080602001828103825260218152602001807f536166654d6174683a206d756c7469706c69636174696f6e206f766572666c6f81526020017f770000000000000000000000000000000000000000000000000000000000000081525060400191505060405180910390fd5b809150505b92915050565b60008082840190508381101515156128d5576040517f08c379a000000000000000000000000000000000000000000000000000000000815260040180806020018281038252601b8152602001807f536166654d6174683a206164646974696f6e206f766572666c6f77000000000081525060200191505060405180910390fd5b8091505092915050565b600061292183836040805190810160405280601a81526020017f536166654d6174683a206469766973696f6e206279207a65726f0000000000008152506137b7565b905092915050565b6000806000612936610ddc565b50505050505050506000841115156129dc576040517f08c379a00000000000000000000000000000000000000000000000000000000081526004018080602001828103825260248152602001807f4261646765724765797365723a20756e7374616b6520616d6f756e742069732081526020017f7a65726f0000000000000000000000000000000000000000000000000000000081525060400191505060405180910390fd5b836129e633610f6f565b10151515612a82576040517f08c379a000000000000000000000000000000000000000000000000000000000815260040180806020018281038252603e8152602001807f4261646765724765797365723a20756e7374616b6520616d6f756e742069732081526020017f67726561746572207468616e20746f74616c2075736572207374616b6573000081525060400191505060405180910390fd5b6000612ab2612a8f6112fb565b612aa48760085461278890919063ffffffff16565b6128df90919063ffffffff16565b9050600081111515612b52576040517f08c379a00000000000000000000000000000000000000000000000000000000081526004018080602001828103825260318152602001807f4261646765724765797365723a20556e61626c6520746f20756e7374616b652081526020017f616d6f756e74207468697320736d616c6c00000000000000000000000000000081525060400191505060405180910390fd5b6000600d60003373ffffffffffffffffffffffffffffffffffffffff1673ffffffffffffffffffffffffffffffffffffffff16815260200190815260200160002090506000600e60003373ffffffffffffffffffffffffffffffffffffffff1673ffffffffffffffffffffffffffffffffffffffff16815260200190815260200160002090506000809050600084905060008090505b6000821115612d16576000846001868054905003815481101515612c0857fe5b906000526020600020906002020190506000612c3182600101544261273e90919063ffffffff16565b90506000809050848360000154111515612cb357612c5c82846000015461278890919063ffffffff16565b9050612c69848284613881565b9350612c7e818761285590919063ffffffff16565b9550612c9783600001548661273e90919063ffffffff16565b945086805480919060019003612cad91906139cb565b50612d0e565b612cc6828661278890919063ffffffff16565b9050612cd3848284613881565b9350612ce8818761285590919063ffffffff16565b9550612d0185846000015461273e90919063ffffffff16565b8360000181905550600094505b505050612be8565b612d2d83866001015461273e90919063ffffffff16565b8560010181905550612d4c86866000015461273e90919063ffffffff16565b8560000181905550612d698360095461273e90919063ffffffff16565b600981905550612d848660085461273e90919063ffffffff16565b600881905550809850612d968961127e565b8098508199505050600160009054906101000a900473ffffffffffffffffffffffffffffffffffffffff1673ffffffffffffffffffffffffffffffffffffffff1663a9059cbb338c6040518363ffffffff167c0100000000000000000000000000000000000000000000000000000000028152600401808373ffffffffffffffffffffffffffffffffffffffff1673ffffffffffffffffffffffffffffffffffffffff16815260200182815260200192505050602060405180830381600087803b158015612e6357600080fd5b505af1158015612e77573d6000803e3d6000fd5b505050506040513d6020811015612e8d57600080fd5b81019080805190602001909291905050501515612f38576040517f08c379a00000000000000000000000000000000000000000000000000000000081526004018080602001828103825260318152602001807f4261646765724765797365723a207472616e73666572206f7574206f6620737481526020017f616b696e6720706f6f6c206661696c656400000000000000000000000000000081525060400191505060405180910390fd5b60008811156130dc57600260009054906101000a900473ffffffffffffffffffffffffffffffffffffffff1673ffffffffffffffffffffffffffffffffffffffff1663a9059cbb338a6040518363ffffffff167c0100000000000000000000000000000000000000000000000000000000028152600401808373ffffffffffffffffffffffffffffffffffffffff1673ffffffffffffffffffffffffffffffffffffffff16815260200182815260200192505050602060405180830381600087803b15801561300657600080fd5b505af115801561301a573d6000803e3d6000fd5b505050506040513d602081101561303057600080fd5b810190808051906020019092919050505015156130db576040517f08c379a000000000000000000000000000000000000000000000000000000000815260040180806020018281038252603a8152602001807f4261646765724765797365723a207472616e7366657220746f2075736572206f81526020017f7574206f6620756e6c6f636b656420706f6f6c206661696c656400000000000081525060400191505060405180910390fd5b5b60008711156132a257600260009054906101000a900473ffffffffffffffffffffffffffffffffffffffff1673ffffffffffffffffffffffffffffffffffffffff1663a9059cbb601160009054906101000a900473ffffffffffffffffffffffffffffffffffffffff16896040518363ffffffff167c0100000000000000000000000000000000000000000000000000000000028152600401808373ffffffffffffffffffffffffffffffffffffffff1673ffffffffffffffffffffffffffffffffffffffff16815260200182815260200192505050602060405180830381600087803b1580156131cc57600080fd5b505af11580156131e0573d6000803e3d6000fd5b505050506040513d60208110156131f657600080fd5b810190808051906020019092919050505015156132a1576040517f08c379a000000000000000000000000000000000000000000000000000000000815260040180806020018281038252603d8152602001807f4261646765724765797365723a207472616e7366657220746f20666f756e646581526020017f72206f7574206f6620756e6c6f636b656420706f6f6c206661696c656400000081525060400191505060405180910390fd5b5b3373ffffffffffffffffffffffffffffffffffffffff167faf01bfc8475df280aca00b578c4a948e6d95700f0db8c13365240f7f973c87548b6132e433610f6f565b6040518083815260200182815260200180602001828103825260008152602001602001935050505060405180910390a23373ffffffffffffffffffffffffffffffffffffffff167fe49649ad7d04a14b0d2a43dae89f207c0822143ff6f88a6480e88907e4e5c5488a8a8a60405180848152602001838152602001828152602001935050505060405180910390a26000600854148061338a575060006133886112fb565b115b151561344a576040517f08c379a000000000000000000000000000000000000000000000000000000000815260040180806020018281038252604d8152602001807f4261646765724765797365723a204572726f7220756e7374616b696e672e205381526020017f74616b696e67207368617265732065786973742c20627574206e6f207374616b81526020017f696e6720746f6b656e7320646f0000000000000000000000000000000000000081525060600191505060405180910390fd5b5050505050509193909250565b600033905090565b600073ffffffffffffffffffffffffffffffffffffffff168173ffffffffffffffffffffffffffffffffffffffff161415151561352a576040517f08c379a00000000000000000000000000000000000000000000000000000000081526004018080602001828103825260268152602001807f4f776e61626c653a206e6577206f776e657220697320746865207a65726f206181526020017f646472657373000000000000000000000000000000000000000000000000000081525060400191505060405180910390fd5b8073ffffffffffffffffffffffffffffffffffffffff166000809054906101000a900473ffffffffffffffffffffffffffffffffffffffff1673ffffffffffffffffffffffffffffffffffffffff167f8be0079c531659141344cd1fd0a4f28419497f9722a3daafe3b4186f6b6457e060405160405180910390a3806000806101000a81548173ffffffffffffffffffffffffffffffffffffffff021916908373ffffffffffffffffffffffffffffffffffffffff16021790555050565b600080600f838154811015156135fa57fe5b90600052602060002090600602019050806000015481600101541015156136255760009150506136f0565b806005015442101561363b5760009150506136f0565b600080905081600301544210151561367c576136688260010154836000015461273e90919063ffffffff16565b9050816003015482600201819055506136cb565b6136bf82600401546136b184600001546136a386600201544261273e90919063ffffffff16565b61278890919063ffffffff16565b6128df90919063ffffffff16565b90504282600201819055505b6136e281836001015461285590919063ffffffff16565b826001018190555080925050505b919050565b600083831115829015156137a4576040517f08c379a00000000000000000000000000000000000000000000000000000000081526004018080602001828103825283818151815260200191508051906020019080838360005b8381101561376957808201518184015260208101905061374e565b50505050905090810190601f1680156137965780820380516001836020036101000a031916815260200191505b509250505060405180910390fd5b5060008385039050809150509392505050565b600080831182901515613865576040517f08c379a00000000000000000000000000000000000000000000000000000000081526004018080602001828103825283818151815260200191508051906020019080838360005b8381101561382a57808201518184015260208101905061380f565b50505050905090810190601f1680156138575780820380516001836020036101000a031916815260200191505b509250505060405180910390fd5b506000838581151561387357fe5b049050809150509392505050565b6000806138b26009546138a486613896611b14565b61278890919063ffffffff16565b6128df90919063ffffffff16565b9050600554831015156138da576138d2818661285590919063ffffffff16565b915050613973565b60006002600a0a905060006139588261394a8561393c61392b60055461391d8c61390f6004548c61273e90919063ffffffff16565b61278890919063ffffffff16565b6128df90919063ffffffff16565b60045461285590919063ffffffff16565b61278890919063ffffffff16565b6128df90919063ffffffff16565b905061396d818861285590919063ffffffff16565b93505050505b9392505050565b60c0604051908101604052806000815260200160008152602001600081526020016000815260200160008152602001600081525090565b604080519081016040528060008152602001600081525090565b8154818355818111156139f8576002028160020283600052602060002091820191016139f791906139fd565b5b505050565b613a2991905b80821115613a2557600080820160009055600182016000905550600201613a03565b5090565b9056fea165627a7a72305820e0fa7bfe84a75288eaaabe91458cde4b0a38fcd378e35a59f9602a2081e556fa0029608060405234801561001057600080fd5b50604051602080610a8c8339810180604052602081101561003057600080fd5b810190808051906020019092919050505061005861015a640100000000026401000000009004565b6000806101000a81548173ffffffffffffffffffffffffffffffffffffffff021916908373ffffffffffffffffffffffffffffffffffffffff1602179055506000809054906101000a900473ffffffffffffffffffffffffffffffffffffffff1673ffffffffffffffffffffffffffffffffffffffff16600073ffffffffffffffffffffffffffffffffffffffff167f8be0079c531659141344cd1fd0a4f28419497f9722a3daafe3b4186f6b6457e060405160405180910390a380600160006101000a81548173ffffffffffffffffffffffffffffffffffffffff021916908373ffffffffffffffffffffffffffffffffffffffff16021790555050610162565b600033905090565b61091b806101716000396000f3fe608060405260043610610083576000357c0100000000000000000000000000000000000000000000000000000000900463ffffffff168063715018a6146100885780638da5cb5b1461009f5780638f32d59b146100f6578063a9059cbb14610125578063b69ef8a814610198578063f2fde38b146101c3578063fc0c546a14610214575b600080fd5b34801561009457600080fd5b5061009d61026b565b005b3480156100ab57600080fd5b506100b46103a6565b604051808273ffffffffffffffffffffffffffffffffffffffff1673ffffffffffffffffffffffffffffffffffffffff16815260200191505060405180910390f35b34801561010257600080fd5b5061010b6103cf565b604051808215151515815260200191505060405180910390f35b34801561013157600080fd5b5061017e6004803603604081101561014857600080fd5b81019080803573ffffffffffffffffffffffffffffffffffffffff1690602001909291908035906020019092919050505061042d565b604051808215151515815260200191505060405180910390f35b3480156101a457600080fd5b506101ad6105b3565b6040518082815260200191505060405180910390f35b3480156101cf57600080fd5b50610212600480360360208110156101e657600080fd5b81019080803573ffffffffffffffffffffffffffffffffffffffff1690602001909291905050506106b0565b005b34801561022057600080fd5b50610229610738565b604051808273ffffffffffffffffffffffffffffffffffffffff1673ffffffffffffffffffffffffffffffffffffffff16815260200191505060405180910390f35b6102736103cf565b15156102e7576040517f08c379a00000000000000000000000000000000000000000000000000000000081526004018080602001828103825260208152602001807f4f776e61626c653a2063616c6c6572206973206e6f7420746865206f776e657281525060200191505060405180910390fd5b600073ffffffffffffffffffffffffffffffffffffffff166000809054906101000a900473ffffffffffffffffffffffffffffffffffffffff1673ffffffffffffffffffffffffffffffffffffffff167f8be0079c531659141344cd1fd0a4f28419497f9722a3daafe3b4186f6b6457e060405160405180910390a360008060006101000a81548173ffffffffffffffffffffffffffffffffffffffff021916908373ffffffffffffffffffffffffffffffffffffffff160217905550565b60008060009054906101000a900473ffffffffffffffffffffffffffffffffffffffff16905090565b60008060009054906101000a900473ffffffffffffffffffffffffffffffffffffffff1673ffffffffffffffffffffffffffffffffffffffff1661041161075e565b73ffffffffffffffffffffffffffffffffffffffff1614905090565b60006104376103cf565b15156104ab576040517f08c379a00000000000000000000000000000000000000000000000000000000081526004018080602001828103825260208152602001807f4f776e61626c653a2063616c6c6572206973206e6f7420746865206f776e657281525060200191505060405180910390fd5b600160009054906101000a900473ffffffffffffffffffffffffffffffffffffffff1673ffffffffffffffffffffffffffffffffffffffff1663a9059cbb84846040518363ffffffff167c0100000000000000000000000000000000000000000000000000000000028152600401808373ffffffffffffffffffffffffffffffffffffffff1673ffffffffffffffffffffffffffffffffffffffff16815260200182815260200192505050602060405180830381600087803b15801561057057600080fd5b505af1158015610584573d6000803e3d6000fd5b505050506040513d602081101561059a57600080fd5b8101908080519060200190929190505050905092915050565b6000600160009054906101000a900473ffffffffffffffffffffffffffffffffffffffff1673ffffffffffffffffffffffffffffffffffffffff166370a08231306040518263ffffffff167c0100000000000000000000000000000000000000000000000000000000028152600401808273ffffffffffffffffffffffffffffffffffffffff1673ffffffffffffffffffffffffffffffffffffffff16815260200191505060206040518083038186803b15801561067057600080fd5b505afa158015610684573d6000803e3d6000fd5b505050506040513d602081101561069a57600080fd5b8101908080519060200190929190505050905090565b6106b86103cf565b151561072c576040517f08c379a00000000000000000000000000000000000000000000000000000000081526004018080602001828103825260208152602001807f4f776e61626c653a2063616c6c6572206973206e6f7420746865206f776e657281525060200191505060405180910390fd5b61073581610766565b50565b600160009054906101000a900473ffffffffffffffffffffffffffffffffffffffff1681565b600033905090565b600073ffffffffffffffffffffffffffffffffffffffff168173ffffffffffffffffffffffffffffffffffffffff1614151515610831576040517f08c379a00000000000000000000000000000000000000000000000000000000081526004018080602001828103825260268152602001807f4f776e61626c653a206e6577206f776e657220697320746865207a65726f206181526020017f646472657373000000000000000000000000000000000000000000000000000081525060400191505060405180910390fd5b8073ffffffffffffffffffffffffffffffffffffffff166000809054906101000a900473ffffffffffffffffffffffffffffffffffffffff1673ffffffffffffffffffffffffffffffffffffffff167f8be0079c531659141344cd1fd0a4f28419497f9722a3daafe3b4186f6b6457e060405160405180910390a3806000806101000a81548173ffffffffffffffffffffffffffffffffffffffff021916908373ffffffffffffffffffffffffffffffffffffffff1602179055505056fea165627a7a723058205df2dfdc9d05e2cef7f8a2b1178178a6cfb08c1b3b21b2a1a4e7612601c40a120029",
  "compiler": {
    "name": "solc",
    "version": "0.5.0+commit.1d4f565a.Emscripten.clang",
    "optimizer": {
      "enabled": false,
      "runs": 200
    },
    "evmVersion": "byzantium"
  }
}