{
  "fileName": "TokenGeyser.sol",
  "contractName": "TokenGeyser",
  "source": "pragma solidity 0.5.0;\n\nimport \"openzeppelin-solidity/contracts/math/SafeMath.sol\";\nimport \"openzeppelin-solidity/contracts/token/ERC20/IERC20.sol\";\nimport \"openzeppelin-solidity/contracts/ownership/Ownable.sol\";\n\nimport \"./IStaking.sol\";\nimport \"./TokenPool.sol\";\n\n/**\n * @title Token Geyser\n * @dev A smart-contract based mechanism to distribute tokens over time, inspired loosely by\n *      Compound and Uniswap.\n *\n *      Distribution tokens are added to a locked pool in the contract and become unlocked over time\n *      according to a once-configurable unlock schedule. Once unlocked, they are available to be\n *      claimed by users.\n *\n *      A user may deposit tokens to accrue ownership share over the unlocked pool. This owner share\n *      is a function of the number of tokens deposited as well as the length of time deposited.\n *      Specifically, a user's share of the currently-unlocked pool equals their \"deposit-seconds\"\n *      divided by the global \"deposit-seconds\". This aligns the new token distribution with long\n *      term supporters of the project, addressing one of the major drawbacks of simple airdrops.\n *\n *      More background and motivation available at:\n *      https://github.com/ampleforth/RFCs/blob/master/RFCs/rfc-1.md\n */\ncontract TokenGeyser is IStaking, Ownable {\n    using SafeMath for uint256;\n\n    event Staked(address indexed user, uint256 amount, uint256 total, bytes data);\n    event Unstaked(address indexed user, uint256 amount, uint256 total, bytes data);\n    event TokensClaimed(address indexed user, uint256 amount);\n    event TokensLocked(uint256 amount, uint256 durationSec, uint256 total);\n    // amount: Unlocked tokens, total: Total locked tokens\n    event TokensUnlocked(uint256 amount, uint256 total);\n\n    TokenPool private _stakingPool;\n    TokenPool private _unlockedPool;\n    TokenPool private _lockedPool;\n\n    //\n    // Time-bonus params\n    //\n    uint256 public constant BONUS_DECIMALS = 2;\n    uint256 public startBonus = 0;\n    uint256 public bonusPeriodSec = 0;\n    uint256 public globalStartTime;\n\n    //\n    // Global accounting state\n    //\n    uint256 public totalLockedShares = 0;\n    uint256 public totalStakingShares = 0;\n    uint256 private _totalStakingShareSeconds = 0;\n    uint256 private _lastAccountingTimestampSec = now;\n    uint256 private _maxUnlockSchedules = 0;\n    uint256 private _initialSharesPerToken = 0;\n\n    //\n    // User accounting state\n    //\n    // Represents a single stake for a user. A user may have multiple.\n    struct Stake {\n        uint256 stakingShares;\n        uint256 timestampSec;\n    }\n\n    // Caches aggregated values from the User->Stake[] map to save computation.\n    // If lastAccountingTimestampSec is 0, there's no entry for that user.\n    struct UserTotals {\n        uint256 stakingShares;\n        uint256 stakingShareSeconds;\n        uint256 lastAccountingTimestampSec;\n    }\n\n    // Aggregated staking values per user\n    mapping(address => UserTotals) private _userTotals;\n\n    // The collection of stakes for each user. Ordered by timestamp, earliest to latest.\n    mapping(address => Stake[]) private _userStakes;\n\n    //\n    // Locked/Unlocked Accounting state\n    //\n    struct UnlockSchedule {\n        uint256 initialLockedShares;\n        uint256 unlockedShares;\n        uint256 lastUnlockTimestampSec;\n        uint256 endAtSec;\n        uint256 durationSec;\n        uint256 startTime;\n    }\n\n    UnlockSchedule[] public unlockSchedules;\n\n    /**\n     * @param stakingToken The token users deposit as stake.\n     * @param distributionToken The token users receive as they unstake.\n     * @param maxUnlockSchedules Max number of unlock stages, to guard against hitting gas limit.\n     * @param startBonus_ Starting time bonus, BONUS_DECIMALS fixed point.\n     *                    e.g. 25% means user gets 25% of max distribution tokens.\n     * @param bonusPeriodSec_ Length of time for bonus to increase linearly to max.\n     * @param initialSharesPerToken Number of shares to mint per staking token on first stake.\n     */\n    constructor(IERC20 stakingToken, IERC20 distributionToken, uint256 maxUnlockSchedules,\n                uint256 startBonus_, uint256 bonusPeriodSec_, uint256 initialSharesPerToken, uint256 globalStartTime_) public {\n        // The start bonus must be some fraction of the max. (i.e. <= 100%)\n        require(startBonus_ <= 10**BONUS_DECIMALS, 'TokenGeyser: start bonus too high');\n        // If no period is desired, instead set startBonus = 100%\n        // and bonusPeriod to a small value like 1sec.\n        require(bonusPeriodSec_ != 0, 'TokenGeyser: bonus period is zero');\n        require(initialSharesPerToken > 0, 'TokenGeyser: initialSharesPerToken is zero');\n\n        _stakingPool = new TokenPool(stakingToken);\n        _unlockedPool = new TokenPool(distributionToken);\n        _lockedPool = new TokenPool(distributionToken);\n        startBonus = startBonus_;\n        globalStartTime = globalStartTime_;\n        bonusPeriodSec = bonusPeriodSec_;\n        _maxUnlockSchedules = maxUnlockSchedules;\n        _initialSharesPerToken = initialSharesPerToken;\n    }\n\n    modifier onlyAfterStart() {\n        require(now >= globalStartTime, \"Distribution not started\");\n        _;\n    }\n\n    /**\n     * @return The token users deposit as stake.\n     */\n    function getStakingToken() public view returns (IERC20) {\n        return _stakingPool.token();\n    }\n\n    /**\n     * @return The token users receive as they unstake.\n     */\n    function getDistributionToken() public view returns (IERC20) {\n        assert(_unlockedPool.token() == _lockedPool.token());\n        return _unlockedPool.token();\n    }\n\n    /**\n     * @dev Transfers amount of deposit tokens from the user.\n     * @param amount Number of deposit tokens to stake.\n     * @param data Not used.\n     */\n    function stake(uint256 amount, bytes calldata data) onlyAfterStart() external {\n        _stakeFor(msg.sender, msg.sender, amount);\n    }\n\n    /**\n     * @dev Transfers amount of deposit tokens from the caller on behalf of user.\n     * @param user User address who gains credit for this stake operation.\n     * @param amount Number of deposit tokens to stake.\n     * @param data Not used.\n     */\n    function stakeFor(address user, uint256 amount, bytes calldata data) onlyAfterStart() external {\n        _stakeFor(msg.sender, user, amount);\n    }\n\n    /**\n     * @dev Private implementation of staking methods.\n     * @param staker User address who deposits tokens to stake.\n     * @param beneficiary User address who gains credit for this stake operation.\n     * @param amount Number of deposit tokens to stake.\n     */\n    function _stakeFor(address staker, address beneficiary, uint256 amount) private {\n        require(amount > 0, 'TokenGeyser: stake amount is zero');\n        require(beneficiary != address(0), 'TokenGeyser: beneficiary is zero address');\n        require(totalStakingShares == 0 || totalStaked() > 0,\n                'TokenGeyser: Invalid state. Staking shares exist, but no staking tokens do');\n\n        uint256 mintedStakingShares = (totalStakingShares > 0)\n            ? totalStakingShares.mul(amount).div(totalStaked())\n            : amount.mul(_initialSharesPerToken);\n        require(mintedStakingShares > 0, 'TokenGeyser: Stake amount is too small');\n\n        updateAccounting();\n\n        // 1. User Accounting\n        UserTotals storage totals = _userTotals[beneficiary];\n        totals.stakingShares = totals.stakingShares.add(mintedStakingShares);\n        totals.lastAccountingTimestampSec = now;\n\n        Stake memory newStake = Stake(mintedStakingShares, now);\n        _userStakes[beneficiary].push(newStake);\n\n        // 2. Global Accounting\n        totalStakingShares = totalStakingShares.add(mintedStakingShares);\n        // Already set in updateAccounting()\n        // _lastAccountingTimestampSec = now;\n\n        // interactions\n        require(_stakingPool.token().transferFrom(staker, address(_stakingPool), amount),\n            'TokenGeyser: transfer into staking pool failed');\n\n        emit Staked(beneficiary, amount, totalStakedFor(beneficiary), \"\");\n    }\n\n    /**\n     * @dev Unstakes a certain amount of previously deposited tokens. User also receives their\n     * alotted number of distribution tokens.\n     * @param amount Number of deposit tokens to unstake / withdraw.\n     * @param data Not used.\n     */\n    function unstake(uint256 amount, bytes calldata data) onlyAfterStart() external {\n        _unstake(amount);\n    }\n\n    /**\n     * @param amount Number of deposit tokens to unstake / withdraw.\n     * @return The total number of distribution tokens that would be rewarded.\n     */\n    function unstakeQuery(uint256 amount) public returns (uint256) {\n        return _unstake(amount);\n    }\n\n    /**\n     * @dev Unstakes a certain amount of previously deposited tokens. User also receives their\n     * alotted number of distribution tokens.\n     * @param amount Number of deposit tokens to unstake / withdraw.\n     * @return The total number of distribution tokens rewarded.\n     */\n    function _unstake(uint256 amount) private returns (uint256) {\n        updateAccounting();\n\n        // checks\n        require(amount > 0, 'TokenGeyser: unstake amount is zero');\n        require(totalStakedFor(msg.sender) >= amount,\n            'TokenGeyser: unstake amount is greater than total user stakes');\n        uint256 stakingSharesToBurn = totalStakingShares.mul(amount).div(totalStaked());\n        require(stakingSharesToBurn > 0, 'TokenGeyser: Unable to unstake amount this small');\n\n        // 1. User Accounting\n        UserTotals storage totals = _userTotals[msg.sender];\n        Stake[] storage accountStakes = _userStakes[msg.sender];\n\n        // Redeem from most recent stake and go backwards in time.\n        uint256 stakingShareSecondsToBurn = 0;\n        uint256 sharesLeftToBurn = stakingSharesToBurn;\n        uint256 rewardAmount = 0;\n        while (sharesLeftToBurn > 0) {\n            Stake storage lastStake = accountStakes[accountStakes.length - 1];\n            uint256 stakeTimeSec = now.sub(lastStake.timestampSec);\n            uint256 newStakingShareSecondsToBurn = 0;\n            if (lastStake.stakingShares <= sharesLeftToBurn) {\n                // fully redeem a past stake\n                newStakingShareSecondsToBurn = lastStake.stakingShares.mul(stakeTimeSec);\n                rewardAmount = computeNewReward(rewardAmount, newStakingShareSecondsToBurn, stakeTimeSec);\n                stakingShareSecondsToBurn = stakingShareSecondsToBurn.add(newStakingShareSecondsToBurn);\n                sharesLeftToBurn = sharesLeftToBurn.sub(lastStake.stakingShares);\n                accountStakes.length--;\n            } else {\n                // partially redeem a past stake\n                newStakingShareSecondsToBurn = sharesLeftToBurn.mul(stakeTimeSec);\n                rewardAmount = computeNewReward(rewardAmount, newStakingShareSecondsToBurn, stakeTimeSec);\n                stakingShareSecondsToBurn = stakingShareSecondsToBurn.add(newStakingShareSecondsToBurn);\n                lastStake.stakingShares = lastStake.stakingShares.sub(sharesLeftToBurn);\n                sharesLeftToBurn = 0;\n            }\n        }\n        totals.stakingShareSeconds = totals.stakingShareSeconds.sub(stakingShareSecondsToBurn);\n        totals.stakingShares = totals.stakingShares.sub(stakingSharesToBurn);\n        // Already set in updateAccounting\n        // totals.lastAccountingTimestampSec = now;\n\n        // 2. Global Accounting\n        _totalStakingShareSeconds = _totalStakingShareSeconds.sub(stakingShareSecondsToBurn);\n        totalStakingShares = totalStakingShares.sub(stakingSharesToBurn);\n        // Already set in updateAccounting\n        // _lastAccountingTimestampSec = now;\n\n        // interactions\n        require(_stakingPool.transfer(msg.sender, amount),\n            'TokenGeyser: transfer out of staking pool failed');\n        require(_unlockedPool.transfer(msg.sender, rewardAmount),\n            'TokenGeyser: transfer out of unlocked pool failed');\n\n        emit Unstaked(msg.sender, amount, totalStakedFor(msg.sender), \"\");\n        emit TokensClaimed(msg.sender, rewardAmount);\n\n        require(totalStakingShares == 0 || totalStaked() > 0,\n                \"TokenGeyser: Error unstaking. Staking shares exist, but no staking tokens do\");\n        return rewardAmount;\n    }\n\n    /**\n     * @dev Applies an additional time-bonus to a distribution amount. This is necessary to\n     *      encourage long-term deposits instead of constant unstake/restakes.\n     *      The bonus-multiplier is the result of a linear function that starts at startBonus and\n     *      ends at 100% over bonusPeriodSec, then stays at 100% thereafter.\n     * @param currentRewardTokens The current number of distribution tokens already alotted for this\n     *                            unstake op. Any bonuses are already applied.\n     * @param stakingShareSeconds The stakingShare-seconds that are being burned for new\n     *                            distribution tokens.\n     * @param stakeTimeSec Length of time for which the tokens were staked. Needed to calculate\n     *                     the time-bonus.\n     * @return Updated amount of distribution tokens to award, with any bonus included on the\n     *         newly added tokens.\n     */\n    function computeNewReward(uint256 currentRewardTokens,\n                                uint256 stakingShareSeconds,\n                                uint256 stakeTimeSec) private view returns (uint256) {\n\n        uint256 newRewardTokens =\n            totalUnlocked()\n            .mul(stakingShareSeconds)\n            .div(_totalStakingShareSeconds);\n\n        if (stakeTimeSec >= bonusPeriodSec) {\n            return currentRewardTokens.add(newRewardTokens);\n        }\n\n        uint256 oneHundredPct = 10**BONUS_DECIMALS;\n        uint256 bonusedReward =\n            startBonus\n            .add(oneHundredPct.sub(startBonus).mul(stakeTimeSec).div(bonusPeriodSec))\n            .mul(newRewardTokens)\n            .div(oneHundredPct);\n        return currentRewardTokens.add(bonusedReward);\n    }\n\n    /**\n     * @param addr The user to look up staking information for.\n     * @return The number of staking tokens deposited for addr.\n     */\n    function totalStakedFor(address addr) public view returns (uint256) {\n        return totalStakingShares > 0 ?\n            totalStaked().mul(_userTotals[addr].stakingShares).div(totalStakingShares) : 0;\n    }\n\n    /**\n     * @return The total number of deposit tokens staked globally, by all users.\n     */\n    function totalStaked() public view returns (uint256) {\n        return _stakingPool.balance();\n    }\n\n    /**\n     * @dev Note that this application has a staking token as well as a distribution token, which\n     * may be different. This function is required by EIP-900.\n     * @return The deposit token used for staking.\n     */\n    function token() external view returns (address) {\n        return address(getStakingToken());\n    }\n\n    /**\n     * @dev A globally callable function to update the accounting state of the system.\n     *      Global state and state for the caller are updated.\n     * @return [0] balance of the locked pool\n     * @return [1] balance of the unlocked pool\n     * @return [2] caller's staking share seconds\n     * @return [3] global staking share seconds\n     * @return [4] Rewards caller has accumulated, optimistically assumes max time-bonus.\n     * @return [5] block timestamp\n     */\n    function updateAccounting() public returns (\n        uint256, uint256, uint256, uint256, uint256, uint256) {\n\n        unlockTokens();\n\n        // Global accounting\n        uint256 newStakingShareSeconds =\n            now\n            .sub(_lastAccountingTimestampSec)\n            .mul(totalStakingShares);\n        _totalStakingShareSeconds = _totalStakingShareSeconds.add(newStakingShareSeconds);\n        _lastAccountingTimestampSec = now;\n\n        // User Accounting\n        UserTotals storage totals = _userTotals[msg.sender];\n        uint256 newUserStakingShareSeconds =\n            now\n            .sub(totals.lastAccountingTimestampSec)\n            .mul(totals.stakingShares);\n        totals.stakingShareSeconds =\n            totals.stakingShareSeconds\n            .add(newUserStakingShareSeconds);\n        totals.lastAccountingTimestampSec = now;\n\n        uint256 totalUserRewards = (_totalStakingShareSeconds > 0)\n            ? totalUnlocked().mul(totals.stakingShareSeconds).div(_totalStakingShareSeconds)\n            : 0;\n\n        return (\n            totalLocked(),\n            totalUnlocked(),\n            totals.stakingShareSeconds,\n            _totalStakingShareSeconds,\n            totalUserRewards,\n            now\n        );\n    }\n\n    /**\n     * @return Total number of locked distribution tokens.\n     */\n    function totalLocked() public view returns (uint256) {\n        return _lockedPool.balance();\n    }\n\n    /**\n     * @return Total number of unlocked distribution tokens.\n     */\n    function totalUnlocked() public view returns (uint256) {\n        return _unlockedPool.balance();\n    }\n\n    /**\n     * @return Number of unlock schedules.\n     */\n    function unlockScheduleCount() public view returns (uint256) {\n        return unlockSchedules.length;\n    }\n\n    /**\n     * @dev This funcion allows the contract owner to add more locked distribution tokens, along\n     *      with the associated \"unlock schedule\". These locked tokens immediately begin unlocking\n     *      linearly over the duraction of durationSec timeframe.\n     * @param amount Number of distribution tokens to lock. These are transferred from the caller.\n     * @param durationSec Length of time to linear unlock the tokens.\n     * @param startTime Time to start distribution.\n     */\n    function lockTokens(uint256 amount, uint256 durationSec, uint256 startTime) external onlyOwner {\n        require(unlockSchedules.length < _maxUnlockSchedules,\n            'TokenGeyser: reached maximum unlock schedules');\n\n        // Update lockedTokens amount before using it in computations after.\n        updateAccounting();\n\n        uint256 lockedTokens = totalLocked();\n        uint256 mintedLockedShares = (lockedTokens > 0)\n            ? totalLockedShares.mul(amount).div(lockedTokens)\n            : amount.mul(_initialSharesPerToken);\n\n        UnlockSchedule memory schedule;\n        schedule.initialLockedShares = mintedLockedShares;\n        schedule.lastUnlockTimestampSec = startTime;\n        schedule.endAtSec = startTime.add(durationSec);\n        schedule.durationSec = durationSec;\n        unlockSchedules.push(schedule);\n\n        totalLockedShares = totalLockedShares.add(mintedLockedShares);\n\n        require(_lockedPool.token().transferFrom(msg.sender, address(_lockedPool), amount),\n            'TokenGeyser: transfer into locked pool failed');\n        emit TokensLocked(amount, durationSec, totalLocked());\n    }\n\n    /**\n     * @dev Moves distribution tokens from the locked pool to the unlocked pool, according to the\n     *      previously defined unlock schedules. Publicly callable.\n     * @return Number of newly unlocked distribution tokens.\n     */\n    function unlockTokens() public returns (uint256) {\n        uint256 unlockedTokens = 0;\n        uint256 lockedTokens = totalLocked();\n\n        if (totalLockedShares == 0) {\n            unlockedTokens = lockedTokens;\n        } else {\n            uint256 unlockedShares = 0;\n            for (uint256 s = 0; s < unlockSchedules.length; s++) {\n                unlockedShares = unlockedShares.add(unlockScheduleShares(s));\n            }\n            unlockedTokens = unlockedShares.mul(lockedTokens).div(totalLockedShares);\n            totalLockedShares = totalLockedShares.sub(unlockedShares);\n        }\n\n        if (unlockedTokens > 0) {\n            require(_lockedPool.transfer(address(_unlockedPool), unlockedTokens),\n                'TokenGeyser: transfer out of locked pool failed');\n            emit TokensUnlocked(unlockedTokens, totalLocked());\n        }\n\n        return unlockedTokens;\n    }\n\n    /**\n     * @dev Returns the number of unlockable shares from a given schedule. The returned value\n     *      depends on the time since the last unlock. This function updates schedule accounting,\n     *      but does not actually transfer any tokens.\n     * @param s Index of the unlock schedule.\n     * @return The number of unlocked shares.\n     */\n    function unlockScheduleShares(uint256 s) private returns (uint256) {\n        UnlockSchedule storage schedule = unlockSchedules[s];\n\n        if(schedule.unlockedShares >= schedule.initialLockedShares) {\n            return 0;\n        }\n\n        if (now < schedule.startTime) {\n            return 0;\n        }\n\n        uint256 sharesToUnlock = 0;\n        // Special case to handle any leftover dust from integer division\n        if (now >= schedule.endAtSec) {\n            sharesToUnlock = (schedule.initialLockedShares.sub(schedule.unlockedShares));\n            schedule.lastUnlockTimestampSec = schedule.endAtSec;\n        } else {\n            sharesToUnlock = now.sub(schedule.lastUnlockTimestampSec)\n                .mul(schedule.initialLockedShares)\n                .div(schedule.durationSec);\n            schedule.lastUnlockTimestampSec = now;\n        }\n\n        schedule.unlockedShares = schedule.unlockedShares.add(sharesToUnlock);\n        return sharesToUnlock;\n    }\n}\n",
  "sourcePath": "contracts/TokenGeyser.sol",
  "abi": [
    {
      "constant": false,
      "inputs": [
        {
          "name": "amount",
          "type": "uint256"
        },
        {
          "name": "data",
          "type": "bytes"
        }
      ],
      "name": "stake",
      "outputs": [],
      "payable": false,
      "stateMutability": "nonpayable",
      "type": "function"
    },
    {
      "constant": false,
      "inputs": [
        {
          "name": "user",
          "type": "address"
        },
        {
          "name": "amount",
          "type": "uint256"
        },
        {
          "name": "data",
          "type": "bytes"
        }
      ],
      "name": "stakeFor",
      "outputs": [],
      "payable": false,
      "stateMutability": "nonpayable",
      "type": "function"
    },
    {
      "constant": true,
      "inputs": [],
      "name": "BONUS_DECIMALS",
      "outputs": [
        {
          "name": "",
          "type": "uint256"
        }
      ],
      "payable": false,
      "stateMutability": "view",
      "type": "function"
    },
    {
      "constant": true,
      "inputs": [],
      "name": "getDistributionToken",
      "outputs": [
        {
          "name": "",
          "type": "address"
        }
      ],
      "payable": false,
      "stateMutability": "view",
      "type": "function"
    },
    {
      "constant": true,
      "inputs": [],
      "name": "startBonus",
      "outputs": [
        {
          "name": "",
          "type": "uint256"
        }
      ],
      "payable": false,
      "stateMutability": "view",
      "type": "function"
    },
    {
      "constant": false,
      "inputs": [],
      "name": "updateAccounting",
      "outputs": [
        {
          "name": "",
          "type": "uint256"
        },
        {
          "name": "",
          "type": "uint256"
        },
        {
          "name": "",
          "type": "uint256"
        },
        {
          "name": "",
          "type": "uint256"
        },
        {
          "name": "",
          "type": "uint256"
        },
        {
          "name": "",
          "type": "uint256"
        }
      ],
      "payable": false,
      "stateMutability": "nonpayable",
      "type": "function"
    },
    {
      "constant": true,
      "inputs": [
        {
          "name": "addr",
          "type": "address"
        }
      ],
      "name": "totalStakedFor",
      "outputs": [
        {
          "name": "",
          "type": "uint256"
        }
      ],
      "payable": false,
      "stateMutability": "view",
      "type": "function"
    },
    {
      "constant": true,
      "inputs": [],
      "name": "totalLocked",
      "outputs": [
        {
          "name": "",
          "type": "uint256"
        }
      ],
      "payable": false,
      "stateMutability": "view",
      "type": "function"
    },
    {
      "constant": true,
      "inputs": [
        {
          "name": "",
          "type": "uint256"
        }
      ],
      "name": "unlockSchedules",
      "outputs": [
        {
          "name": "initialLockedShares",
          "type": "uint256"
        },
        {
          "name": "unlockedShares",
          "type": "uint256"
        },
        {
          "name": "lastUnlockTimestampSec",
          "type": "uint256"
        },
        {
          "name": "endAtSec",
          "type": "uint256"
        },
        {
          "name": "durationSec",
          "type": "uint256"
        },
        {
          "name": "startTime",
          "type": "uint256"
        }
      ],
      "payable": false,
      "stateMutability": "view",
      "type": "function"
    },
    {
      "constant": true,
      "inputs": [],
      "name": "supportsHistory",
      "outputs": [
        {
          "name": "",
          "type": "bool"
        }
      ],
      "payable": false,
      "stateMutability": "pure",
      "type": "function"
    },
    {
      "constant": true,
      "inputs": [],
      "name": "totalStakingShares",
      "outputs": [
        {
          "name": "",
          "type": "uint256"
        }
      ],
      "payable": false,
      "stateMutability": "view",
      "type": "function"
    },
    {
      "constant": false,
      "inputs": [],
      "name": "renounceOwnership",
      "outputs": [],
      "payable": false,
      "stateMutability": "nonpayable",
      "type": "function"
    },
    {
      "constant": true,
      "inputs": [],
      "name": "bonusPeriodSec",
      "outputs": [
        {
          "name": "",
          "type": "uint256"
        }
      ],
      "payable": false,
      "stateMutability": "view",
      "type": "function"
    },
    {
      "constant": true,
      "inputs": [],
      "name": "totalStaked",
      "outputs": [
        {
          "name": "",
          "type": "uint256"
        }
      ],
      "payable": false,
      "stateMutability": "view",
      "type": "function"
    },
    {
      "constant": true,
      "inputs": [],
      "name": "totalLockedShares",
      "outputs": [
        {
          "name": "",
          "type": "uint256"
        }
      ],
      "payable": false,
      "stateMutability": "view",
      "type": "function"
    },
    {
      "constant": false,
      "inputs": [
        {
          "name": "amount",
          "type": "uint256"
        },
        {
          "name": "durationSec",
          "type": "uint256"
        },
        {
          "name": "startTime",
          "type": "uint256"
        }
      ],
      "name": "lockTokens",
      "outputs": [],
      "payable": false,
      "stateMutability": "nonpayable",
      "type": "function"
    },
    {
      "constant": false,
      "inputs": [
        {
          "name": "amount",
          "type": "uint256"
        }
      ],
      "name": "unstakeQuery",
      "outputs": [
        {
          "name": "",
          "type": "uint256"
        }
      ],
      "payable": false,
      "stateMutability": "nonpayable",
      "type": "function"
    },
    {
      "constant": true,
      "inputs": [],
      "name": "owner",
      "outputs": [
        {
          "name": "",
          "type": "address"
        }
      ],
      "payable": false,
      "stateMutability": "view",
      "type": "function"
    },
    {
      "constant": true,
      "inputs": [],
      "name": "isOwner",
      "outputs": [
        {
          "name": "",
          "type": "bool"
        }
      ],
      "payable": false,
      "stateMutability": "view",
      "type": "function"
    },
    {
      "constant": true,
      "inputs": [],
      "name": "globalStartTime",
      "outputs": [
        {
          "name": "",
          "type": "uint256"
        }
      ],
      "payable": false,
      "stateMutability": "view",
      "type": "function"
    },
    {
      "constant": true,
      "inputs": [],
      "name": "getStakingToken",
      "outputs": [
        {
          "name": "",
          "type": "address"
        }
      ],
      "payable": false,
      "stateMutability": "view",
      "type": "function"
    },
    {
      "constant": true,
      "inputs": [],
      "name": "totalUnlocked",
      "outputs": [
        {
          "name": "",
          "type": "uint256"
        }
      ],
      "payable": false,
      "stateMutability": "view",
      "type": "function"
    },
    {
      "constant": true,
      "inputs": [],
      "name": "unlockScheduleCount",
      "outputs": [
        {
          "name": "",
          "type": "uint256"
        }
      ],
      "payable": false,
      "stateMutability": "view",
      "type": "function"
    },
    {
      "constant": false,
      "inputs": [
        {
          "name": "amount",
          "type": "uint256"
        },
        {
          "name": "data",
          "type": "bytes"
        }
      ],
      "name": "unstake",
      "outputs": [],
      "payable": false,
      "stateMutability": "nonpayable",
      "type": "function"
    },
    {
      "constant": false,
      "inputs": [
        {
          "name": "newOwner",
          "type": "address"
        }
      ],
      "name": "transferOwnership",
      "outputs": [],
      "payable": false,
      "stateMutability": "nonpayable",
      "type": "function"
    },
    {
      "constant": false,
      "inputs": [],
      "name": "unlockTokens",
      "outputs": [
        {
          "name": "",
          "type": "uint256"
        }
      ],
      "payable": false,
      "stateMutability": "nonpayable",
      "type": "function"
    },
    {
      "constant": true,
      "inputs": [],
      "name": "token",
      "outputs": [
        {
          "name": "",
          "type": "address"
        }
      ],
      "payable": false,
      "stateMutability": "view",
      "type": "function"
    },
    {
      "inputs": [
        {
          "name": "stakingToken",
          "type": "address"
        },
        {
          "name": "distributionToken",
          "type": "address"
        },
        {
          "name": "maxUnlockSchedules",
          "type": "uint256"
        },
        {
          "name": "startBonus_",
          "type": "uint256"
        },
        {
          "name": "bonusPeriodSec_",
          "type": "uint256"
        },
        {
          "name": "initialSharesPerToken",
          "type": "uint256"
        },
        {
          "name": "globalStartTime_",
          "type": "uint256"
        }
      ],
      "payable": false,
      "stateMutability": "nonpayable",
      "type": "constructor"
    },
    {
      "anonymous": false,
      "inputs": [
        {
          "indexed": true,
          "name": "user",
          "type": "address"
        },
        {
          "indexed": false,
          "name": "amount",
          "type": "uint256"
        },
        {
          "indexed": false,
          "name": "total",
          "type": "uint256"
        },
        {
          "indexed": false,
          "name": "data",
          "type": "bytes"
        }
      ],
      "name": "Staked",
      "type": "event"
    },
    {
      "anonymous": false,
      "inputs": [
        {
          "indexed": true,
          "name": "user",
          "type": "address"
        },
        {
          "indexed": false,
          "name": "amount",
          "type": "uint256"
        },
        {
          "indexed": false,
          "name": "total",
          "type": "uint256"
        },
        {
          "indexed": false,
          "name": "data",
          "type": "bytes"
        }
      ],
      "name": "Unstaked",
      "type": "event"
    },
    {
      "anonymous": false,
      "inputs": [
        {
          "indexed": true,
          "name": "user",
          "type": "address"
        },
        {
          "indexed": false,
          "name": "amount",
          "type": "uint256"
        }
      ],
      "name": "TokensClaimed",
      "type": "event"
    },
    {
      "anonymous": false,
      "inputs": [
        {
          "indexed": false,
          "name": "amount",
          "type": "uint256"
        },
        {
          "indexed": false,
          "name": "durationSec",
          "type": "uint256"
        },
        {
          "indexed": false,
          "name": "total",
          "type": "uint256"
        }
      ],
      "name": "TokensLocked",
      "type": "event"
    },
    {
      "anonymous": false,
      "inputs": [
        {
          "indexed": false,
          "name": "amount",
          "type": "uint256"
        },
        {
          "indexed": false,
          "name": "total",
          "type": "uint256"
        }
      ],
      "name": "TokensUnlocked",
      "type": "event"
    },
    {
      "anonymous": false,
      "inputs": [
        {
          "indexed": true,
          "name": "previousOwner",
          "type": "address"
        },
        {
          "indexed": true,
          "name": "newOwner",
          "type": "address"
        }
      ],
      "name": "OwnershipTransferred",
      "type": "event"
    }
  ],
  "bytecode": "0x60806040526000600455600060055560006007556000600855600060095542600a556000600b556000600c553480156200003857600080fd5b5060405160e080620045b6833981018060405260e08110156200005a57600080fd5b8101908080519060200190929190805190602001909291908051906020019092919080519060200190929190805190602001909291908051906020019092919080519060200190929190505050620000c06200056a640100000000026401000000009004565b6000806101000a81548173ffffffffffffffffffffffffffffffffffffffff021916908373ffffffffffffffffffffffffffffffffffffffff1602179055506000809054906101000a900473ffffffffffffffffffffffffffffffffffffffff1673ffffffffffffffffffffffffffffffffffffffff16600073ffffffffffffffffffffffffffffffffffffffff167f8be0079c531659141344cd1fd0a4f28419497f9722a3daafe3b4186f6b6457e060405160405180910390a36002600a0a84111515156200021e576040517f08c379a00000000000000000000000000000000000000000000000000000000081526004018080602001828103825260218152602001807f546f6b656e4765797365723a20737461727420626f6e757320746f6f2068696781526020017f680000000000000000000000000000000000000000000000000000000000000081525060400191505060405180910390fd5b60008314151515620002be576040517f08c379a00000000000000000000000000000000000000000000000000000000081526004018080602001828103825260218152602001807f546f6b656e4765797365723a20626f6e757320706572696f64206973207a657281526020017f6f0000000000000000000000000000000000000000000000000000000000000081525060400191505060405180910390fd5b6000821115156200035d576040517f08c379a000000000000000000000000000000000000000000000000000000000815260040180806020018281038252602a8152602001807f546f6b656e4765797365723a20696e697469616c536861726573506572546f6b81526020017f656e206973207a65726f0000000000000000000000000000000000000000000081525060400191505060405180910390fd5b866200036862000572565b808273ffffffffffffffffffffffffffffffffffffffff1673ffffffffffffffffffffffffffffffffffffffff168152602001915050604051809103906000f080158015620003bb573d6000803e3d6000fd5b50600160006101000a81548173ffffffffffffffffffffffffffffffffffffffff021916908373ffffffffffffffffffffffffffffffffffffffff160217905550856200040762000572565b808273ffffffffffffffffffffffffffffffffffffffff1673ffffffffffffffffffffffffffffffffffffffff168152602001915050604051809103906000f0801580156200045a573d6000803e3d6000fd5b50600260006101000a81548173ffffffffffffffffffffffffffffffffffffffff021916908373ffffffffffffffffffffffffffffffffffffffff16021790555085620004a662000572565b808273ffffffffffffffffffffffffffffffffffffffff1673ffffffffffffffffffffffffffffffffffffffff168152602001915050604051809103906000f080158015620004f9573d6000803e3d6000fd5b50600360006101000a81548173ffffffffffffffffffffffffffffffffffffffff021916908373ffffffffffffffffffffffffffffffffffffffff16021790555083600481905550806006819055508260058190555084600b8190555081600c819055505050505050505062000583565b600033905090565b604051610a8c8062003b2a83390190565b61359780620005936000396000f3fe60806040526004361061015f576000357c0100000000000000000000000000000000000000000000000000000000900463ffffffff1680630e89439b146101645780630ef96356146101f45780631dc27fde146102a457806322c12b84146102cf57806338b45fde14610326578063494347e7146103515780634b341aed1461039f57806356891412146104045780635c94bcb21461042f5780637033e4a6146104a157806370c6a17e146104d0578063715018a6146104fb5780637c6aa6f414610512578063817b1cd21461053d57806381c39bec146105685780638586c2641461059357806386805dd1146105e25780638da5cb5b146106315780638f32d59b146106885780639d81ff15146106b75780639f9106d1146106e2578063a779d08014610739578063c7ae200714610764578063c8fd6ed01461078f578063f2fde38b1461081f578063f968f49314610870578063fc0c546a1461089b575b600080fd5b34801561017057600080fd5b506101f26004803603604081101561018757600080fd5b8101908080359060200190929190803590602001906401000000008111156101ae57600080fd5b8201836020820111156101c057600080fd5b803590602001918460018302840111640100000000831117156101e257600080fd5b90919293919293905050506108f2565b005b34801561020057600080fd5b506102a26004803603606081101561021757600080fd5b81019080803573ffffffffffffffffffffffffffffffffffffffff169060200190929190803590602001909291908035906020019064010000000081111561025e57600080fd5b82018360208201111561027057600080fd5b8035906020019184600183028401116401000000008311171561029257600080fd5b909192939192939050505061097c565b005b3480156102b057600080fd5b506102b9610a07565b6040518082815260200191505060405180910390f35b3480156102db57600080fd5b506102e4610a0c565b604051808273ffffffffffffffffffffffffffffffffffffffff1673ffffffffffffffffffffffffffffffffffffffff16815260200191505060405180910390f35b34801561033257600080fd5b5061033b610c85565b6040518082815260200191505060405180910390f35b34801561035d57600080fd5b50610366610c8b565b60405180878152602001868152602001858152602001848152602001838152602001828152602001965050505050505060405180910390f35b3480156103ab57600080fd5b506103ee600480360360208110156103c257600080fd5b81019080803573ffffffffffffffffffffffffffffffffffffffff169060200190929190505050610e01565b6040518082815260200191505060405180910390f35b34801561041057600080fd5b50610419610e8b565b6040518082815260200191505060405180910390f35b34801561043b57600080fd5b506104686004803603602081101561045257600080fd5b8101908080359060200190929190505050610f51565b60405180878152602001868152602001858152602001848152602001838152602001828152602001965050505050505060405180910390f35b3480156104ad57600080fd5b506104b6610f9c565b604051808215151515815260200191505060405180910390f35b3480156104dc57600080fd5b506104e5610fa4565b6040518082815260200191505060405180910390f35b34801561050757600080fd5b50610510610faa565b005b34801561051e57600080fd5b506105276110e5565b6040518082815260200191505060405180910390f35b34801561054957600080fd5b506105526110eb565b6040518082815260200191505060405180910390f35b34801561057457600080fd5b5061057d6111b1565b6040518082815260200191505060405180910390f35b34801561059f57600080fd5b506105e0600480360360608110156105b657600080fd5b810190808035906020019092919080359060200190929190803590602001909291905050506111b7565b005b3480156105ee57600080fd5b5061061b6004803603602081101561060557600080fd5b81019080803590602001909291905050506116ea565b6040518082815260200191505060405180910390f35b34801561063d57600080fd5b506106466116fc565b604051808273ffffffffffffffffffffffffffffffffffffffff1673ffffffffffffffffffffffffffffffffffffffff16815260200191505060405180910390f35b34801561069457600080fd5b5061069d611725565b604051808215151515815260200191505060405180910390f35b3480156106c357600080fd5b506106cc611783565b6040518082815260200191505060405180910390f35b3480156106ee57600080fd5b506106f7611789565b604051808273ffffffffffffffffffffffffffffffffffffffff1673ffffffffffffffffffffffffffffffffffffffff16815260200191505060405180910390f35b34801561074557600080fd5b5061074e61184f565b6040518082815260200191505060405180910390f35b34801561077057600080fd5b50610779611915565b6040518082815260200191505060405180910390f35b34801561079b57600080fd5b5061081d600480360360408110156107b257600080fd5b8101908080359060200190929190803590602001906401000000008111156107d957600080fd5b8201836020820111156107eb57600080fd5b8035906020019184600183028401116401000000008311171561080d57600080fd5b9091929391929390505050611922565b005b34801561082b57600080fd5b5061086e6004803603602081101561084257600080fd5b81019080803573ffffffffffffffffffffffffffffffffffffffff1690602001909291905050506119ab565b005b34801561087c57600080fd5b50610885611a33565b6040518082815260200191505060405180910390f35b3480156108a757600080fd5b506108b0611cf6565b604051808273ffffffffffffffffffffffffffffffffffffffff1673ffffffffffffffffffffffffffffffffffffffff16815260200191505060405180910390f35b600654421015151561096c576040517f08c379a00000000000000000000000000000000000000000000000000000000081526004018080602001828103825260188152602001807f446973747269627574696f6e206e6f742073746172746564000000000000000081525060200191505060405180910390fd5b610977333385611d05565b505050565b60065442101515156109f6576040517f08c379a00000000000000000000000000000000000000000000000000000000081526004018080602001828103825260188152602001807f446973747269627574696f6e206e6f742073746172746564000000000000000081525060200191505060405180910390fd5b610a01338585611d05565b50505050565b600281565b6000600360009054906101000a900473ffffffffffffffffffffffffffffffffffffffff1673ffffffffffffffffffffffffffffffffffffffff1663fc0c546a6040518163ffffffff167c010000000000000000000000000000000000000000000000000000000002815260040160206040518083038186803b158015610a9257600080fd5b505afa158015610aa6573d6000803e3d6000fd5b505050506040513d6020811015610abc57600080fd5b810190808051906020019092919050505073ffffffffffffffffffffffffffffffffffffffff16600260009054906101000a900473ffffffffffffffffffffffffffffffffffffffff1673ffffffffffffffffffffffffffffffffffffffff1663fc0c546a6040518163ffffffff167c010000000000000000000000000000000000000000000000000000000002815260040160206040518083038186803b158015610b6757600080fd5b505afa158015610b7b573d6000803e3d6000fd5b505050506040513d6020811015610b9157600080fd5b810190808051906020019092919050505073ffffffffffffffffffffffffffffffffffffffff16141515610bc157fe5b600260009054906101000a900473ffffffffffffffffffffffffffffffffffffffff1673ffffffffffffffffffffffffffffffffffffffff1663fc0c546a6040518163ffffffff167c010000000000000000000000000000000000000000000000000000000002815260040160206040518083038186803b158015610c4557600080fd5b505afa158015610c59573d6000803e3d6000fd5b505050506040513d6020811015610c6f57600080fd5b8101908080519060200190929190505050905090565b60045481565b600080600080600080610c9c611a33565b506000610cc8600854610cba600a544261247590919063ffffffff16565b6124bf90919063ffffffff16565b9050610cdf8160095461258c90919063ffffffff16565b60098190555042600a819055506000600d60003373ffffffffffffffffffffffffffffffffffffffff1673ffffffffffffffffffffffffffffffffffffffff16815260200190815260200160002090506000610d5e8260000154610d5084600201544261247590919063ffffffff16565b6124bf90919063ffffffff16565b9050610d7781836001015461258c90919063ffffffff16565b826001018190555042826002018190555060008060095411610d9a576000610dcd565b610dcc600954610dbe8560010154610db061184f565b6124bf90919063ffffffff16565b61261690919063ffffffff16565b5b9050610dd7610e8b565b610ddf61184f565b8460010154600954844299509950995099509950995050505050909192939495565b60008060085411610e13576000610e84565b610e83600854610e75600d60008673ffffffffffffffffffffffffffffffffffffffff1673ffffffffffffffffffffffffffffffffffffffff16815260200190815260200160002060000154610e676110eb565b6124bf90919063ffffffff16565b61261690919063ffffffff16565b5b9050919050565b6000600360009054906101000a900473ffffffffffffffffffffffffffffffffffffffff1673ffffffffffffffffffffffffffffffffffffffff1663b69ef8a86040518163ffffffff167c010000000000000000000000000000000000000000000000000000000002815260040160206040518083038186803b158015610f1157600080fd5b505afa158015610f25573d6000803e3d6000fd5b505050506040513d6020811015610f3b57600080fd5b8101908080519060200190929190505050905090565b600f81815481101515610f6057fe5b90600052602060002090600602016000915090508060000154908060010154908060020154908060030154908060040154908060050154905086565b600080905090565b60085481565b610fb2611725565b1515611026576040517f08c379a00000000000000000000000000000000000000000000000000000000081526004018080602001828103825260208152602001807f4f776e61626c653a2063616c6c6572206973206e6f7420746865206f776e657281525060200191505060405180910390fd5b600073ffffffffffffffffffffffffffffffffffffffff166000809054906101000a900473ffffffffffffffffffffffffffffffffffffffff1673ffffffffffffffffffffffffffffffffffffffff167f8be0079c531659141344cd1fd0a4f28419497f9722a3daafe3b4186f6b6457e060405160405180910390a360008060006101000a81548173ffffffffffffffffffffffffffffffffffffffff021916908373ffffffffffffffffffffffffffffffffffffffff160217905550565b60055481565b6000600160009054906101000a900473ffffffffffffffffffffffffffffffffffffffff1673ffffffffffffffffffffffffffffffffffffffff1663b69ef8a86040518163ffffffff167c010000000000000000000000000000000000000000000000000000000002815260040160206040518083038186803b15801561117157600080fd5b505afa158015611185573d6000803e3d6000fd5b505050506040513d602081101561119b57600080fd5b8101908080519060200190929190505050905090565b60075481565b6111bf611725565b1515611233576040517f08c379a00000000000000000000000000000000000000000000000000000000081526004018080602001828103825260208152602001807f4f776e61626c653a2063616c6c6572206973206e6f7420746865206f776e657281525060200191505060405180910390fd5b600b54600f805490501015156112d7576040517f08c379a000000000000000000000000000000000000000000000000000000000815260040180806020018281038252602d8152602001807f546f6b656e4765797365723a2072656163686564206d6178696d756d20756e6c81526020017f6f636b207363686564756c65730000000000000000000000000000000000000081525060400191505060405180910390fd5b6112df610c8b565b50505050505060006112ef610e8b565b905060008082116113145761130f600c54866124bf90919063ffffffff16565b61133c565b61133b8261132d876007546124bf90919063ffffffff16565b61261690919063ffffffff16565b5b90506113466134b9565b818160000181815250508381604001818152505061136d858561258c90919063ffffffff16565b81606001818152505084816080018181525050600f8190806001815401808255809150509060018203906000526020600020906006020160009091929091909150600082015181600001556020820151816001015560408201518160020155606082015181600301556080820151816004015560a082015181600501555050506114028260075461258c90919063ffffffff16565b600781905550600360009054906101000a900473ffffffffffffffffffffffffffffffffffffffff1673ffffffffffffffffffffffffffffffffffffffff1663fc0c546a6040518163ffffffff167c010000000000000000000000000000000000000000000000000000000002815260040160206040518083038186803b15801561148c57600080fd5b505afa1580156114a0573d6000803e3d6000fd5b505050506040513d60208110156114b657600080fd5b810190808051906020019092919050505073ffffffffffffffffffffffffffffffffffffffff166323b872dd33600360009054906101000a900473ffffffffffffffffffffffffffffffffffffffff16896040518463ffffffff167c0100000000000000000000000000000000000000000000000000000000028152600401808473ffffffffffffffffffffffffffffffffffffffff1673ffffffffffffffffffffffffffffffffffffffff1681526020018373ffffffffffffffffffffffffffffffffffffffff1673ffffffffffffffffffffffffffffffffffffffff1681526020018281526020019350505050602060405180830381600087803b1580156115bf57600080fd5b505af11580156115d3573d6000803e3d6000fd5b505050506040513d60208110156115e957600080fd5b81019080805190602001909291905050501515611694576040517f08c379a000000000000000000000000000000000000000000000000000000000815260040180806020018281038252602d8152602001807f546f6b656e4765797365723a207472616e7366657220696e746f206c6f636b6581526020017f6420706f6f6c206661696c65640000000000000000000000000000000000000081525060400191505060405180910390fd5b7ff346961af4c52f314df1b45964746280fe409abb959d4a2458d58f79408b1fe886866116bf610e8b565b60405180848152602001838152602001828152602001935050505060405180910390a1505050505050565b60006116f582612660565b9050919050565b60008060009054906101000a900473ffffffffffffffffffffffffffffffffffffffff16905090565b60008060009054906101000a900473ffffffffffffffffffffffffffffffffffffffff1673ffffffffffffffffffffffffffffffffffffffff16611767612f96565b73ffffffffffffffffffffffffffffffffffffffff1614905090565b60065481565b6000600160009054906101000a900473ffffffffffffffffffffffffffffffffffffffff1673ffffffffffffffffffffffffffffffffffffffff1663fc0c546a6040518163ffffffff167c010000000000000000000000000000000000000000000000000000000002815260040160206040518083038186803b15801561180f57600080fd5b505afa158015611823573d6000803e3d6000fd5b505050506040513d602081101561183957600080fd5b8101908080519060200190929190505050905090565b6000600260009054906101000a900473ffffffffffffffffffffffffffffffffffffffff1673ffffffffffffffffffffffffffffffffffffffff1663b69ef8a86040518163ffffffff167c010000000000000000000000000000000000000000000000000000000002815260040160206040518083038186803b1580156118d557600080fd5b505afa1580156118e9573d6000803e3d6000fd5b505050506040513d60208110156118ff57600080fd5b8101908080519060200190929190505050905090565b6000600f80549050905090565b600654421015151561199c576040517f08c379a00000000000000000000000000000000000000000000000000000000081526004018080602001828103825260188152602001807f446973747269627574696f6e206e6f742073746172746564000000000000000081525060200191505060405180910390fd5b6119a583612660565b50505050565b6119b3611725565b1515611a27576040517f08c379a00000000000000000000000000000000000000000000000000000000081526004018080602001828103825260208152602001807f4f776e61626c653a2063616c6c6572206973206e6f7420746865206f776e657281525060200191505060405180910390fd5b611a3081612f9e565b50565b600080600090506000611a44610e8b565b905060006007541415611a5957809150611ae2565b600080905060008090505b600f80549050811015611a9b57611a8c611a7d82613127565b8361258c90919063ffffffff16565b91508080600101915050611a64565b50611ac3600754611ab584846124bf90919063ffffffff16565b61261690919063ffffffff16565b9250611ada8160075461247590919063ffffffff16565b600781905550505b6000821115611cee57600360009054906101000a900473ffffffffffffffffffffffffffffffffffffffff1673ffffffffffffffffffffffffffffffffffffffff1663a9059cbb600260009054906101000a900473ffffffffffffffffffffffffffffffffffffffff16846040518363ffffffff167c0100000000000000000000000000000000000000000000000000000000028152600401808373ffffffffffffffffffffffffffffffffffffffff1673ffffffffffffffffffffffffffffffffffffffff16815260200182815260200192505050602060405180830381600087803b158015611bd257600080fd5b505af1158015611be6573d6000803e3d6000fd5b505050506040513d6020811015611bfc57600080fd5b81019080805190602001909291905050501515611ca7576040517f08c379a000000000000000000000000000000000000000000000000000000000815260040180806020018281038252602f8152602001807f546f6b656e4765797365723a207472616e73666572206f7574206f66206c6f6381526020017f6b656420706f6f6c206661696c6564000000000000000000000000000000000081525060400191505060405180910390fd5b7f2e444eb379b177e88ce0649c6110a3b01099f03e297127919dd5e3b63a761a9c82611cd1610e8b565b604051808381526020018281526020019250505060405180910390a15b819250505090565b6000611d00611789565b905090565b600081111515611da3576040517f08c379a00000000000000000000000000000000000000000000000000000000081526004018080602001828103825260218152602001807f546f6b656e4765797365723a207374616b6520616d6f756e74206973207a657281526020017f6f0000000000000000000000000000000000000000000000000000000000000081525060400191505060405180910390fd5b600073ffffffffffffffffffffffffffffffffffffffff168273ffffffffffffffffffffffffffffffffffffffff1614151515611e6e576040517f08c379a00000000000000000000000000000000000000000000000000000000081526004018080602001828103825260288152602001807f546f6b656e4765797365723a2062656e6566696369617279206973207a65726f81526020017f206164647265737300000000000000000000000000000000000000000000000081525060400191505060405180910390fd5b60006008541480611e8657506000611e846110eb565b115b1515611f46576040517f08c379a000000000000000000000000000000000000000000000000000000000815260040180806020018281038252604a8152602001807f546f6b656e4765797365723a20496e76616c69642073746174652e205374616b81526020017f696e67207368617265732065786973742c20627574206e6f207374616b696e6781526020017f20746f6b656e7320646f0000000000000000000000000000000000000000000081525060600191505060405180910390fd5b60008060085411611f6b57611f66600c54836124bf90919063ffffffff16565b611f9a565b611f99611f766110eb565b611f8b846008546124bf90919063ffffffff16565b61261690919063ffffffff16565b5b905060008111151561203a576040517f08c379a00000000000000000000000000000000000000000000000000000000081526004018080602001828103825260268152602001807f546f6b656e4765797365723a205374616b6520616d6f756e7420697320746f6f81526020017f20736d616c6c000000000000000000000000000000000000000000000000000081525060400191505060405180910390fd5b612042610c8b565b5050505050506000600d60008573ffffffffffffffffffffffffffffffffffffffff1673ffffffffffffffffffffffffffffffffffffffff16815260200190815260200160002090506120a282826000015461258c90919063ffffffff16565b81600001819055504281600201819055506120bb6134f0565b6040805190810160405280848152602001428152509050600e60008673ffffffffffffffffffffffffffffffffffffffff1673ffffffffffffffffffffffffffffffffffffffff168152602001908152602001600020819080600181540180825580915050906001820390600052602060002090600202016000909192909190915060008201518160000155602082015181600101555050506121698360085461258c90919063ffffffff16565b600881905550600160009054906101000a900473ffffffffffffffffffffffffffffffffffffffff1673ffffffffffffffffffffffffffffffffffffffff1663fc0c546a6040518163ffffffff167c010000000000000000000000000000000000000000000000000000000002815260040160206040518083038186803b1580156121f357600080fd5b505afa158015612207573d6000803e3d6000fd5b505050506040513d602081101561221d57600080fd5b810190808051906020019092919050505073ffffffffffffffffffffffffffffffffffffffff166323b872dd87600160009054906101000a900473ffffffffffffffffffffffffffffffffffffffff16876040518463ffffffff167c0100000000000000000000000000000000000000000000000000000000028152600401808473ffffffffffffffffffffffffffffffffffffffff1673ffffffffffffffffffffffffffffffffffffffff1681526020018373ffffffffffffffffffffffffffffffffffffffff1673ffffffffffffffffffffffffffffffffffffffff1681526020018281526020019350505050602060405180830381600087803b15801561232657600080fd5b505af115801561233a573d6000803e3d6000fd5b505050506040513d602081101561235057600080fd5b810190808051906020019092919050505015156123fb576040517f08c379a000000000000000000000000000000000000000000000000000000000815260040180806020018281038252602e8152602001807f546f6b656e4765797365723a207472616e7366657220696e746f207374616b6981526020017f6e6720706f6f6c206661696c656400000000000000000000000000000000000081525060400191505060405180910390fd5b8473ffffffffffffffffffffffffffffffffffffffff167fc65e53b88159e7d2c0fc12a0600072e28ae53ff73b4c1715369c30f1609351428561243d88610e01565b6040518083815260200182815260200180602001828103825260008152602001602001935050505060405180910390a2505050505050565b60006124b783836040805190810160405280601e81526020017f536166654d6174683a207375627472616374696f6e206f766572666c6f770000815250613234565b905092915050565b6000808314156124d25760009050612586565b600082840290508284828115156124e557fe5b04141515612581576040517f08c379a00000000000000000000000000000000000000000000000000000000081526004018080602001828103825260218152602001807f536166654d6174683a206d756c7469706c69636174696f6e206f766572666c6f81526020017f770000000000000000000000000000000000000000000000000000000000000081525060400191505060405180910390fd5b809150505b92915050565b600080828401905083811015151561260c576040517f08c379a000000000000000000000000000000000000000000000000000000000815260040180806020018281038252601b8152602001807f536166654d6174683a206164646974696f6e206f766572666c6f77000000000081525060200191505060405180910390fd5b8091505092915050565b600061265883836040805190810160405280601a81526020017f536166654d6174683a206469766973696f6e206279207a65726f0000000000008152506132f6565b905092915050565b600061266a610c8b565b50505050505060008211151561270e576040517f08c379a00000000000000000000000000000000000000000000000000000000081526004018080602001828103825260238152602001807f546f6b656e4765797365723a20756e7374616b6520616d6f756e74206973207a81526020017f65726f000000000000000000000000000000000000000000000000000000000081525060400191505060405180910390fd5b8161271833610e01565b101515156127b4576040517f08c379a000000000000000000000000000000000000000000000000000000000815260040180806020018281038252603d8152602001807f546f6b656e4765797365723a20756e7374616b6520616d6f756e74206973206781526020017f726561746572207468616e20746f74616c2075736572207374616b657300000081525060400191505060405180910390fd5b60006127e46127c16110eb565b6127d6856008546124bf90919063ffffffff16565b61261690919063ffffffff16565b9050600081111515612884576040517f08c379a00000000000000000000000000000000000000000000000000000000081526004018080602001828103825260308152602001807f546f6b656e4765797365723a20556e61626c6520746f20756e7374616b65206181526020017f6d6f756e74207468697320736d616c6c0000000000000000000000000000000081525060400191505060405180910390fd5b6000600d60003373ffffffffffffffffffffffffffffffffffffffff1673ffffffffffffffffffffffffffffffffffffffff16815260200190815260200160002090506000600e60003373ffffffffffffffffffffffffffffffffffffffff1673ffffffffffffffffffffffffffffffffffffffff16815260200190815260200160002090506000809050600084905060008090505b6000821115612a4857600084600186805490500381548110151561293a57fe5b90600052602060002090600202019050600061296382600101544261247590919063ffffffff16565b905060008090508483600001541115156129e55761298e8284600001546124bf90919063ffffffff16565b905061299b8482846133c0565b93506129b0818761258c90919063ffffffff16565b95506129c983600001548661247590919063ffffffff16565b9450868054809190600190036129df919061350a565b50612a40565b6129f882866124bf90919063ffffffff16565b9050612a058482846133c0565b9350612a1a818761258c90919063ffffffff16565b9550612a3385846000015461247590919063ffffffff16565b8360000181905550600094505b50505061291a565b612a5f83866001015461247590919063ffffffff16565b8560010181905550612a7e86866000015461247590919063ffffffff16565b8560000181905550612a9b8360095461247590919063ffffffff16565b600981905550612ab68660085461247590919063ffffffff16565b600881905550600160009054906101000a900473ffffffffffffffffffffffffffffffffffffffff1673ffffffffffffffffffffffffffffffffffffffff1663a9059cbb338a6040518363ffffffff167c0100000000000000000000000000000000000000000000000000000000028152600401808373ffffffffffffffffffffffffffffffffffffffff1673ffffffffffffffffffffffffffffffffffffffff16815260200182815260200192505050602060405180830381600087803b158015612b8157600080fd5b505af1158015612b95573d6000803e3d6000fd5b505050506040513d6020811015612bab57600080fd5b81019080805190602001909291905050501515612c56576040517f08c379a00000000000000000000000000000000000000000000000000000000081526004018080602001828103825260308152602001807f546f6b656e4765797365723a207472616e73666572206f7574206f662073746181526020017f6b696e6720706f6f6c206661696c65640000000000000000000000000000000081525060400191505060405180910390fd5b600260009054906101000a900473ffffffffffffffffffffffffffffffffffffffff1673ffffffffffffffffffffffffffffffffffffffff1663a9059cbb33836040518363ffffffff167c0100000000000000000000000000000000000000000000000000000000028152600401808373ffffffffffffffffffffffffffffffffffffffff1673ffffffffffffffffffffffffffffffffffffffff16815260200182815260200192505050602060405180830381600087803b158015612d1b57600080fd5b505af1158015612d2f573d6000803e3d6000fd5b505050506040513d6020811015612d4557600080fd5b81019080805190602001909291905050501515612df0576040517f08c379a00000000000000000000000000000000000000000000000000000000081526004018080602001828103825260318152602001807f546f6b656e4765797365723a207472616e73666572206f7574206f6620756e6c81526020017f6f636b656420706f6f6c206661696c656400000000000000000000000000000081525060400191505060405180910390fd5b3373ffffffffffffffffffffffffffffffffffffffff167faf01bfc8475df280aca00b578c4a948e6d95700f0db8c13365240f7f973c875489612e3233610e01565b6040518083815260200182815260200180602001828103825260008152602001602001935050505060405180910390a23373ffffffffffffffffffffffffffffffffffffffff167f896e034966eaaf1adc54acc0f257056febbd300c9e47182cf761982cf1f5e430826040518082815260200191505060405180910390a260006008541480612ec857506000612ec66110eb565b115b1515612f88576040517f08c379a000000000000000000000000000000000000000000000000000000000815260040180806020018281038252604c8152602001807f546f6b656e4765797365723a204572726f7220756e7374616b696e672e20537481526020017f616b696e67207368617265732065786973742c20627574206e6f207374616b6981526020017f6e6720746f6b656e7320646f000000000000000000000000000000000000000081525060600191505060405180910390fd5b809650505050505050919050565b600033905090565b600073ffffffffffffffffffffffffffffffffffffffff168173ffffffffffffffffffffffffffffffffffffffff1614151515613069576040517f08c379a00000000000000000000000000000000000000000000000000000000081526004018080602001828103825260268152602001807f4f776e61626c653a206e6577206f776e657220697320746865207a65726f206181526020017f646472657373000000000000000000000000000000000000000000000000000081525060400191505060405180910390fd5b8073ffffffffffffffffffffffffffffffffffffffff166000809054906101000a900473ffffffffffffffffffffffffffffffffffffffff1673ffffffffffffffffffffffffffffffffffffffff167f8be0079c531659141344cd1fd0a4f28419497f9722a3daafe3b4186f6b6457e060405160405180910390a3806000806101000a81548173ffffffffffffffffffffffffffffffffffffffff021916908373ffffffffffffffffffffffffffffffffffffffff16021790555050565b600080600f8381548110151561313957fe5b906000526020600020906006020190508060000154816001015410151561316457600091505061322f565b806005015442101561317a57600091505061322f565b60008090508160030154421015156131bb576131a78260010154836000015461247590919063ffffffff16565b90508160030154826002018190555061320a565b6131fe82600401546131f084600001546131e286600201544261247590919063ffffffff16565b6124bf90919063ffffffff16565b61261690919063ffffffff16565b90504282600201819055505b61322181836001015461258c90919063ffffffff16565b826001018190555080925050505b919050565b600083831115829015156132e3576040517f08c379a00000000000000000000000000000000000000000000000000000000081526004018080602001828103825283818151815260200191508051906020019080838360005b838110156132a857808201518184015260208101905061328d565b50505050905090810190601f1680156132d55780820380516001836020036101000a031916815260200191505b509250505060405180910390fd5b5060008385039050809150509392505050565b6000808311829015156133a4576040517f08c379a00000000000000000000000000000000000000000000000000000000081526004018080602001828103825283818151815260200191508051906020019080838360005b8381101561336957808201518184015260208101905061334e565b50505050905090810190601f1680156133965780820380516001836020036101000a031916815260200191505b509250505060405180910390fd5b50600083858115156133b257fe5b049050809150509392505050565b6000806133f16009546133e3866133d561184f565b6124bf90919063ffffffff16565b61261690919063ffffffff16565b90506005548310151561341957613411818661258c90919063ffffffff16565b9150506134b2565b60006002600a0a90506000613497826134898561347b61346a60055461345c8c61344e6004548c61247590919063ffffffff16565b6124bf90919063ffffffff16565b61261690919063ffffffff16565b60045461258c90919063ffffffff16565b6124bf90919063ffffffff16565b61261690919063ffffffff16565b90506134ac818861258c90919063ffffffff16565b93505050505b9392505050565b60c0604051908101604052806000815260200160008152602001600081526020016000815260200160008152602001600081525090565b604080519081016040528060008152602001600081525090565b81548183558181111561353757600202816002028360005260206000209182019101613536919061353c565b5b505050565b61356891905b8082111561356457600080820160009055600182016000905550600201613542565b5090565b9056fea165627a7a7230582083f670a27e2c4f1ec25d49207a5f357c8ad7bb3edb8bf5157382b1fa021652e70029608060405234801561001057600080fd5b50604051602080610a8c8339810180604052602081101561003057600080fd5b810190808051906020019092919050505061005861015a640100000000026401000000009004565b6000806101000a81548173ffffffffffffffffffffffffffffffffffffffff021916908373ffffffffffffffffffffffffffffffffffffffff1602179055506000809054906101000a900473ffffffffffffffffffffffffffffffffffffffff1673ffffffffffffffffffffffffffffffffffffffff16600073ffffffffffffffffffffffffffffffffffffffff167f8be0079c531659141344cd1fd0a4f28419497f9722a3daafe3b4186f6b6457e060405160405180910390a380600160006101000a81548173ffffffffffffffffffffffffffffffffffffffff021916908373ffffffffffffffffffffffffffffffffffffffff16021790555050610162565b600033905090565b61091b806101716000396000f3fe608060405260043610610083576000357c0100000000000000000000000000000000000000000000000000000000900463ffffffff168063715018a6146100885780638da5cb5b1461009f5780638f32d59b146100f6578063a9059cbb14610125578063b69ef8a814610198578063f2fde38b146101c3578063fc0c546a14610214575b600080fd5b34801561009457600080fd5b5061009d61026b565b005b3480156100ab57600080fd5b506100b46103a6565b604051808273ffffffffffffffffffffffffffffffffffffffff1673ffffffffffffffffffffffffffffffffffffffff16815260200191505060405180910390f35b34801561010257600080fd5b5061010b6103cf565b604051808215151515815260200191505060405180910390f35b34801561013157600080fd5b5061017e6004803603604081101561014857600080fd5b81019080803573ffffffffffffffffffffffffffffffffffffffff1690602001909291908035906020019092919050505061042d565b604051808215151515815260200191505060405180910390f35b3480156101a457600080fd5b506101ad6105b3565b6040518082815260200191505060405180910390f35b3480156101cf57600080fd5b50610212600480360360208110156101e657600080fd5b81019080803573ffffffffffffffffffffffffffffffffffffffff1690602001909291905050506106b0565b005b34801561022057600080fd5b50610229610738565b604051808273ffffffffffffffffffffffffffffffffffffffff1673ffffffffffffffffffffffffffffffffffffffff16815260200191505060405180910390f35b6102736103cf565b15156102e7576040517f08c379a00000000000000000000000000000000000000000000000000000000081526004018080602001828103825260208152602001807f4f776e61626c653a2063616c6c6572206973206e6f7420746865206f776e657281525060200191505060405180910390fd5b600073ffffffffffffffffffffffffffffffffffffffff166000809054906101000a900473ffffffffffffffffffffffffffffffffffffffff1673ffffffffffffffffffffffffffffffffffffffff167f8be0079c531659141344cd1fd0a4f28419497f9722a3daafe3b4186f6b6457e060405160405180910390a360008060006101000a81548173ffffffffffffffffffffffffffffffffffffffff021916908373ffffffffffffffffffffffffffffffffffffffff160217905550565b60008060009054906101000a900473ffffffffffffffffffffffffffffffffffffffff16905090565b60008060009054906101000a900473ffffffffffffffffffffffffffffffffffffffff1673ffffffffffffffffffffffffffffffffffffffff1661041161075e565b73ffffffffffffffffffffffffffffffffffffffff1614905090565b60006104376103cf565b15156104ab576040517f08c379a00000000000000000000000000000000000000000000000000000000081526004018080602001828103825260208152602001807f4f776e61626c653a2063616c6c6572206973206e6f7420746865206f776e657281525060200191505060405180910390fd5b600160009054906101000a900473ffffffffffffffffffffffffffffffffffffffff1673ffffffffffffffffffffffffffffffffffffffff1663a9059cbb84846040518363ffffffff167c0100000000000000000000000000000000000000000000000000000000028152600401808373ffffffffffffffffffffffffffffffffffffffff1673ffffffffffffffffffffffffffffffffffffffff16815260200182815260200192505050602060405180830381600087803b15801561057057600080fd5b505af1158015610584573d6000803e3d6000fd5b505050506040513d602081101561059a57600080fd5b8101908080519060200190929190505050905092915050565b6000600160009054906101000a900473ffffffffffffffffffffffffffffffffffffffff1673ffffffffffffffffffffffffffffffffffffffff166370a08231306040518263ffffffff167c0100000000000000000000000000000000000000000000000000000000028152600401808273ffffffffffffffffffffffffffffffffffffffff1673ffffffffffffffffffffffffffffffffffffffff16815260200191505060206040518083038186803b15801561067057600080fd5b505afa158015610684573d6000803e3d6000fd5b505050506040513d602081101561069a57600080fd5b8101908080519060200190929190505050905090565b6106b86103cf565b151561072c576040517f08c379a00000000000000000000000000000000000000000000000000000000081526004018080602001828103825260208152602001807f4f776e61626c653a2063616c6c6572206973206e6f7420746865206f776e657281525060200191505060405180910390fd5b61073581610766565b50565b600160009054906101000a900473ffffffffffffffffffffffffffffffffffffffff1681565b600033905090565b600073ffffffffffffffffffffffffffffffffffffffff168173ffffffffffffffffffffffffffffffffffffffff1614151515610831576040517f08c379a00000000000000000000000000000000000000000000000000000000081526004018080602001828103825260268152602001807f4f776e61626c653a206e6577206f776e657220697320746865207a65726f206181526020017f646472657373000000000000000000000000000000000000000000000000000081525060400191505060405180910390fd5b8073ffffffffffffffffffffffffffffffffffffffff166000809054906101000a900473ffffffffffffffffffffffffffffffffffffffff1673ffffffffffffffffffffffffffffffffffffffff167f8be0079c531659141344cd1fd0a4f28419497f9722a3daafe3b4186f6b6457e060405160405180910390a3806000806101000a81548173ffffffffffffffffffffffffffffffffffffffff021916908373ffffffffffffffffffffffffffffffffffffffff1602179055505056fea165627a7a723058205df2dfdc9d05e2cef7f8a2b1178178a6cfb08c1b3b21b2a1a4e7612601c40a120029",
  "compiler": {
    "name": "solc",
    "version": "0.5.0+commit.1d4f565a.Emscripten.clang",
    "optimizer": {
      "enabled": false,
      "runs": 200
    },
    "evmVersion": "byzantium"
  }
}