{
  "fileName": "MockUFragments.sol",
  "contractName": "MockUFragments",
  "source": "pragma solidity 0.4.24;\n\nimport \"./Mock.sol\";\n\n\ncontract MockUFragments is Mock {\n    uint256 private _supply;\n\n    // Methods to mock data on the chain\n    function storeSupply(uint256 supply)\n        public\n    {\n        _supply = supply;\n    }\n\n    // Mock methods\n    function rebase(uint256 epoch, int256 supplyDelta)\n        public\n        returns (uint256)\n    {\n        emit FunctionCalled(\"UFragments\", \"rebase\", msg.sender);\n        uint256[] memory uintVals = new uint256[](1);\n        uintVals[0] = epoch;\n        int256[] memory intVals = new int256[](1);\n        intVals[0] = supplyDelta;\n        emit FunctionArguments(uintVals, intVals);\n        return uint256(int256(_supply) + int256(supplyDelta));\n    }\n\n    function totalSupply()\n        public\n        view\n        returns (uint256)\n    {\n        return _supply;\n    }\n}\n",
  "sourcePath": "contracts/mocks/MockUFragments.sol",
  "abi": [
    {
      "constant": true,
      "inputs": [],
      "name": "totalSupply",
      "outputs": [
        {
          "name": "",
          "type": "uint256"
        }
      ],
      "payable": false,
      "stateMutability": "view",
      "type": "function"
    },
    {
      "constant": false,
      "inputs": [
        {
          "name": "epoch",
          "type": "uint256"
        },
        {
          "name": "supplyDelta",
          "type": "int256"
        }
      ],
      "name": "rebase",
      "outputs": [
        {
          "name": "",
          "type": "uint256"
        }
      ],
      "payable": false,
      "stateMutability": "nonpayable",
      "type": "function"
    },
    {
      "constant": false,
      "inputs": [
        {
          "name": "supply",
          "type": "uint256"
        }
      ],
      "name": "storeSupply",
      "outputs": [],
      "payable": false,
      "stateMutability": "nonpayable",
      "type": "function"
    },
    {
      "anonymous": false,
      "inputs": [
        {
          "indexed": false,
          "name": "instanceName",
          "type": "string"
        },
        {
          "indexed": false,
          "name": "functionName",
          "type": "string"
        },
        {
          "indexed": false,
          "name": "caller",
          "type": "address"
        }
      ],
      "name": "FunctionCalled",
      "type": "event"
    },
    {
      "anonymous": false,
      "inputs": [
        {
          "indexed": false,
          "name": "uintVals",
          "type": "uint256[]"
        },
        {
          "indexed": false,
          "name": "intVals",
          "type": "int256[]"
        }
      ],
      "name": "FunctionArguments",
      "type": "event"
    },
    {
      "anonymous": false,
      "inputs": [
        {
          "indexed": false,
          "name": "val",
          "type": "int256"
        }
      ],
      "name": "ReturnValueInt256",
      "type": "event"
    },
    {
      "anonymous": false,
      "inputs": [
        {
          "indexed": false,
          "name": "val",
          "type": "uint256"
        }
      ],
      "name": "ReturnValueUInt256",
      "type": "event"
    }
  ],
  "bytecode": "0x608060405234801561001057600080fd5b5061038a806100206000396000f300608060405260043610610057576000357c0100000000000000000000000000000000000000000000000000000000900463ffffffff16806318160ddd1461005c5780637a43e23f14610087578063fedc3830146100d2575b600080fd5b34801561006857600080fd5b506100716100ff565b6040518082815260200191505060405180910390f35b34801561009357600080fd5b506100bc6004803603810190808035906020019092919080359060200190929190505050610108565b6040518082815260200191505060405180910390f35b3480156100de57600080fd5b506100fd60048036038101908080359060200190929190505050610354565b005b60008054905090565b60006060807f2b3954800366dad952bc52d224185a924290610f61c43c305929b61f35dfd178336040518080602001806020018473ffffffffffffffffffffffffffffffffffffffff1673ffffffffffffffffffffffffffffffffffffffff1681526020018381038352600a8152602001807f55467261676d656e747300000000000000000000000000000000000000000000815250602001838103825260068152602001807f7265626173650000000000000000000000000000000000000000000000000000815250602001935050505060405180910390a160016040519080825280602002602001820160405280156102125781602001602082028038833980820191505090505b5091508482600081518110151561022557fe5b906020019060200201818152505060016040519080825280602002602001820160405280156102635781602001602082028038833980820191505090505b5090508381600081518110151561027657fe5b90602001906020020181815250507f69f1ebb2f5d5fe881edd7ce79704e3262cd83e0e125c754cdc807f663eaf419c8282604051808060200180602001838103835285818151815260200191508051906020019060200280838360005b838110156102ee5780820151818401526020810190506102d3565b50505050905001838103825284818151815260200191508051906020019060200280838360005b83811015610330578082015181840152602081019050610315565b5050505090500194505050505060405180910390a183600054019250505092915050565b80600081905550505600a165627a7a723058209b78107941cfb2f0efa8e06659fba9b00c1dbe16b22b8c30e7e266b60141f80a0029",
  "compiler": {
    "name": "solc",
    "version": "0.4.24+commit.e67f0147.Emscripten.clang",
    "optimizer": {
      "enabled": false,
      "runs": 200
    },
    "evmVersion": "byzantium"
  }
}