{
  "fileName": "SafeMathIntMock.sol",
  "contractName": "SafeMathIntMock",
  "source": "pragma solidity 0.4.24;\n\nimport \"./Mock.sol\";\nimport \"../lib/SafeMathInt.sol\";\n\n\ncontract SafeMathIntMock is Mock {\n    function mul(int256 a, int256 b)\n        external\n        returns (int256)\n    {\n        int256 result = SafeMathInt.mul(a, b);\n        emit ReturnValueInt256(result);\n        return result;\n    }\n\n    function div(int256 a, int256 b)\n        external\n        returns (int256)\n    {\n        int256 result = SafeMathInt.div(a, b);\n        emit ReturnValueInt256(result);\n        return result;\n    }\n\n    function sub(int256 a, int256 b)\n        external\n        returns (int256)\n    {\n        int256 result = SafeMathInt.sub(a, b);\n        emit ReturnValueInt256(result);\n        return result;\n    }\n\n    function add(int256 a, int256 b)\n        external\n        returns (int256)\n    {\n        int256 result = SafeMathInt.add(a, b);\n        emit ReturnValueInt256(result);\n        return result;\n    }\n\n    function abs(int256 a)\n        external\n        returns (int256)\n    {\n        int256 result = SafeMathInt.abs(a);\n        emit ReturnValueInt256(result);\n        return result;\n    }\n}\n",
  "sourcePath": "contracts/mocks/SafeMathIntMock.sol",
  "abi": [
    {
      "constant": false,
      "inputs": [
        {
          "name": "a",
          "type": "int256"
        }
      ],
      "name": "abs",
      "outputs": [
        {
          "name": "",
          "type": "int256"
        }
      ],
      "payable": false,
      "stateMutability": "nonpayable",
      "type": "function"
    },
    {
      "constant": false,
      "inputs": [
        {
          "name": "a",
          "type": "int256"
        },
        {
          "name": "b",
          "type": "int256"
        }
      ],
      "name": "div",
      "outputs": [
        {
          "name": "",
          "type": "int256"
        }
      ],
      "payable": false,
      "stateMutability": "nonpayable",
      "type": "function"
    },
    {
      "constant": false,
      "inputs": [
        {
          "name": "a",
          "type": "int256"
        },
        {
          "name": "b",
          "type": "int256"
        }
      ],
      "name": "add",
      "outputs": [
        {
          "name": "",
          "type": "int256"
        }
      ],
      "payable": false,
      "stateMutability": "nonpayable",
      "type": "function"
    },
    {
      "constant": false,
      "inputs": [
        {
          "name": "a",
          "type": "int256"
        },
        {
          "name": "b",
          "type": "int256"
        }
      ],
      "name": "sub",
      "outputs": [
        {
          "name": "",
          "type": "int256"
        }
      ],
      "payable": false,
      "stateMutability": "nonpayable",
      "type": "function"
    },
    {
      "constant": false,
      "inputs": [
        {
          "name": "a",
          "type": "int256"
        },
        {
          "name": "b",
          "type": "int256"
        }
      ],
      "name": "mul",
      "outputs": [
        {
          "name": "",
          "type": "int256"
        }
      ],
      "payable": false,
      "stateMutability": "nonpayable",
      "type": "function"
    },
    {
      "anonymous": false,
      "inputs": [
        {
          "indexed": false,
          "name": "instanceName",
          "type": "string"
        },
        {
          "indexed": false,
          "name": "functionName",
          "type": "string"
        },
        {
          "indexed": false,
          "name": "caller",
          "type": "address"
        }
      ],
      "name": "FunctionCalled",
      "type": "event"
    },
    {
      "anonymous": false,
      "inputs": [
        {
          "indexed": false,
          "name": "uintVals",
          "type": "uint256[]"
        },
        {
          "indexed": false,
          "name": "intVals",
          "type": "int256[]"
        }
      ],
      "name": "FunctionArguments",
      "type": "event"
    },
    {
      "anonymous": false,
      "inputs": [
        {
          "indexed": false,
          "name": "val",
          "type": "int256"
        }
      ],
      "name": "ReturnValueInt256",
      "type": "event"
    },
    {
      "anonymous": false,
      "inputs": [
        {
          "indexed": false,
          "name": "val",
          "type": "uint256"
        }
      ],
      "name": "ReturnValueUInt256",
      "type": "event"
    }
  ],
  "bytecode": "0x608060405234801561001057600080fd5b50610518806100206000396000f30060806040526004361061006d576000357c0100000000000000000000000000000000000000000000000000000000900463ffffffff1680631b5ac4b51461007257806343509138146100b3578063a5f3c23b146100fe578063adefc37b14610149578063bbe93d9114610194575b600080fd5b34801561007e57600080fd5b5061009d600480360381019080803590602001909291905050506101df565b6040518082815260200191505060405180910390f35b3480156100bf57600080fd5b506100e8600480360381019080803590602001909291908035906020019092919050505061022d565b6040518082815260200191505060405180910390f35b34801561010a57600080fd5b50610133600480360381019080803590602001909291908035906020019092919050505061027d565b6040518082815260200191505060405180910390f35b34801561015557600080fd5b5061017e60048036038101908080359060200190929190803590602001909291905050506102cd565b6040518082815260200191505060405180910390f35b3480156101a057600080fd5b506101c9600480360381019080803590602001909291908035906020019092919050505061031d565b6040518082815260200191505060405180910390f35b6000806101eb8361036d565b90507f367c8bdeb63495ddb5dc24118d234a147995c3f818097913ac006528fae549f0816040518082815260200191505060405180910390a180915050919050565b60008061023a84846103a0565b90507f367c8bdeb63495ddb5dc24118d234a147995c3f818097913ac006528fae549f0816040518082815260200191505060405180910390a18091505092915050565b60008061028a84846103f8565b90507f367c8bdeb63495ddb5dc24118d234a147995c3f818097913ac006528fae549f0816040518082815260200191505060405180910390a18091505092915050565b6000806102da848461043c565b90507f367c8bdeb63495ddb5dc24118d234a147995c3f818097913ac006528fae549f0816040518082815260200191505060405180910390a18091505092915050565b60008061032a8484610480565b90507f367c8bdeb63495ddb5dc24118d234a147995c3f818097913ac006528fae549f0816040518082815260200191505060405180910390a18091505092915050565b600060ff60019060020a02821415151561038657600080fd5b600082126103945781610399565b816000035b9050919050565b60007fffffffffffffffffffffffffffffffffffffffffffffffffffffffffffffffff821415806103d9575060ff60019060020a028314155b15156103e457600080fd5b81838115156103ef57fe5b05905092915050565b6000808284019050600083121580156104115750838112155b80610427575060008312801561042657508381125b5b151561043257600080fd5b8091505092915050565b6000808284039050600083121580156104555750838113155b8061046b575060008312801561046a57508381135b5b151561047657600080fd5b8091505092915050565b600080828402905060ff60019060020a02811415806104b3575060ff60019060020a02831660ff60019060020a02851614155b15156104be57600080fd5b60008314806104d757508383828115156104d457fe5b05145b15156104e257600080fd5b80915050929150505600a165627a7a72305820cc05a17b024ac1fbd82f25c6cb321a1eb56297c56bc7d2a0f8fd859ee47945360029",
  "compiler": {
    "name": "solc",
    "version": "0.4.24+commit.e67f0147.Emscripten.clang",
    "optimizer": {
      "enabled": false,
      "runs": 200
    },
    "evmVersion": "byzantium"
  }
}