{
  "fileName": "UFragments.sol",
  "contractName": "UFragments",
  "source": "pragma solidity 0.4.24;\n\nimport \"openzeppelin-eth/contracts/math/SafeMath.sol\";\nimport \"openzeppelin-eth/contracts/ownership/Ownable.sol\";\nimport \"openzeppelin-eth/contracts/token/ERC20/ERC20Detailed.sol\";\n\nimport \"./lib/SafeMathInt.sol\";\n\n\n/**\n * @title uFragments ERC20 token\n * @dev This is part of an implementation of the uFragments Ideal Money protocol.\n *      uFragments is a normal ERC20 token, but its supply can be adjusted by splitting and\n *      combining tokens proportionally across all wallets.\n *\n *      uFragment balances are internally represented with a hidden denomination, 'gons'.\n *      We support splitting the currency in expansion and combining the currency on contraction by\n *      changing the exchange rate between the hidden 'gons' and the public 'fragments'.\n */\ncontract UFragments is ERC20Detailed, Ownable {\n    // PLEASE READ BEFORE CHANGING ANY ACCOUNTING OR MATH\n    // Anytime there is division, there is a risk of numerical instability from rounding errors. In\n    // order to minimize this risk, we adhere to the following guidelines:\n    // 1) The conversion rate adopted is the number of gons that equals 1 fragment.\n    //    The inverse rate must not be used--TOTAL_GONS is always the numerator and _totalSupply is\n    //    always the denominator. (i.e. If you want to convert gons to fragments instead of\n    //    multiplying by the inverse rate, you should divide by the normal rate)\n    // 2) Gon balances converted into Fragments are always rounded down (truncated).\n    //\n    // We make the following guarantees:\n    // - If address 'A' transfers x Fragments to address 'B'. A's resulting external balance will\n    //   be decreased by precisely x Fragments, and B's external balance will be precisely\n    //   increased by x Fragments.\n    //\n    // We do not guarantee that the sum of all balances equals the result of calling totalSupply().\n    // This is because, for any conversion function 'f()' that has non-zero rounding error,\n    // f(x0) + f(x1) + ... + f(xn) is not always equal to f(x0 + x1 + ... xn).\n    using SafeMath for uint256;\n    using SafeMathInt for int256;\n\n    event LogRebase(uint256 indexed epoch, uint256 totalSupply);\n    event LogMonetaryPolicyUpdated(address monetaryPolicy);\n\n    // Used for authentication\n    address public monetaryPolicy;\n\n    modifier onlyMonetaryPolicy() {\n        require(msg.sender == monetaryPolicy);\n        _;\n    }\n\n    bool private rebasePausedDeprecated;\n    bool private tokenPausedDeprecated;\n\n    modifier validRecipient(address to) {\n        require(to != address(0x0));\n        require(to != address(this));\n        _;\n    }\n\n    uint256 private constant DECIMALS = 9;\n    uint256 private constant MAX_UINT256 = ~uint256(0);\n    uint256 private constant INITIAL_FRAGMENTS_SUPPLY = 50 * 10**6 * 10**DECIMALS;\n\n    // TOTAL_GONS is a multiple of INITIAL_FRAGMENTS_SUPPLY so that _gonsPerFragment is an integer.\n    // Use the highest value that fits in a uint256 for max granularity.\n    uint256 private constant TOTAL_GONS = MAX_UINT256 - (MAX_UINT256 % INITIAL_FRAGMENTS_SUPPLY);\n\n    // MAX_SUPPLY = maximum integer < (sqrt(4*TOTAL_GONS + 1) - 1) / 2\n    uint256 private constant MAX_SUPPLY = ~uint128(0);  // (2^128) - 1\n\n    uint256 private _totalSupply;\n    uint256 private _gonsPerFragment;\n    mapping(address => uint256) private _gonBalances;\n\n    // This is denominated in Fragments, because the gons-fragments conversion might change before\n    // it's fully paid.\n    mapping (address => mapping (address => uint256)) private _allowedFragments;\n\n    /**\n     * @param monetaryPolicy_ The address of the monetary policy contract to use for authentication.\n     */\n    function setMonetaryPolicy(address monetaryPolicy_)\n        external\n        onlyOwner\n    {\n        monetaryPolicy = monetaryPolicy_;\n        emit LogMonetaryPolicyUpdated(monetaryPolicy_);\n    }\n\n    /**\n     * @dev Notifies Fragments contract about a new rebase cycle.\n     * @param supplyDelta The number of new fragment tokens to add into circulation via expansion.\n     * @return The total number of fragments after the supply adjustment.\n     */\n    function rebase(uint256 epoch, int256 supplyDelta)\n        external\n        onlyMonetaryPolicy\n        returns (uint256)\n    {\n        if (supplyDelta == 0) {\n            emit LogRebase(epoch, _totalSupply);\n            return _totalSupply;\n        }\n\n        if (supplyDelta < 0) {\n            _totalSupply = _totalSupply.sub(uint256(supplyDelta.abs()));\n        } else {\n            _totalSupply = _totalSupply.add(uint256(supplyDelta));\n        }\n\n        if (_totalSupply > MAX_SUPPLY) {\n            _totalSupply = MAX_SUPPLY;\n        }\n\n        _gonsPerFragment = TOTAL_GONS.div(_totalSupply);\n\n        // From this point forward, _gonsPerFragment is taken as the source of truth.\n        // We recalculate a new _totalSupply to be in agreement with the _gonsPerFragment\n        // conversion rate.\n        // This means our applied supplyDelta can deviate from the requested supplyDelta,\n        // but this deviation is guaranteed to be < (_totalSupply^2)/(TOTAL_GONS - _totalSupply).\n        //\n        // In the case of _totalSupply <= MAX_UINT128 (our current supply cap), this\n        // deviation is guaranteed to be < 1, so we can omit this step. If the supply cap is\n        // ever increased, it must be re-included.\n        // _totalSupply = TOTAL_GONS.div(_gonsPerFragment)\n\n        emit LogRebase(epoch, _totalSupply);\n        return _totalSupply;\n    }\n\n    function initialize(address owner_)\n        public\n        initializer\n    {\n        ERC20Detailed.initialize(\"Ampleforth\", \"AMPL\", uint8(DECIMALS));\n        Ownable.initialize(owner_);\n\n        rebasePausedDeprecated = false;\n        tokenPausedDeprecated = false;\n\n        _totalSupply = INITIAL_FRAGMENTS_SUPPLY;\n        _gonBalances[owner_] = TOTAL_GONS;\n        _gonsPerFragment = TOTAL_GONS.div(_totalSupply);\n\n        emit Transfer(address(0x0), owner_, _totalSupply);\n    }\n\n    /**\n     * @return The total number of fragments.\n     */\n    function totalSupply()\n        public\n        view\n        returns (uint256)\n    {\n        return _totalSupply;\n    }\n\n    /**\n     * @param who The address to query.\n     * @return The balance of the specified address.\n     */\n    function balanceOf(address who)\n        public\n        view\n        returns (uint256)\n    {\n        return _gonBalances[who].div(_gonsPerFragment);\n    }\n\n    /**\n     * @dev Transfer tokens to a specified address.\n     * @param to The address to transfer to.\n     * @param value The amount to be transferred.\n     * @return True on success, false otherwise.\n     */\n    function transfer(address to, uint256 value)\n        public\n        validRecipient(to)\n        returns (bool)\n    {\n        uint256 gonValue = value.mul(_gonsPerFragment);\n        _gonBalances[msg.sender] = _gonBalances[msg.sender].sub(gonValue);\n        _gonBalances[to] = _gonBalances[to].add(gonValue);\n        emit Transfer(msg.sender, to, value);\n        return true;\n    }\n\n    /**\n     * @dev Function to check the amount of tokens that an owner has allowed to a spender.\n     * @param owner_ The address which owns the funds.\n     * @param spender The address which will spend the funds.\n     * @return The number of tokens still available for the spender.\n     */\n    function allowance(address owner_, address spender)\n        public\n        view\n        returns (uint256)\n    {\n        return _allowedFragments[owner_][spender];\n    }\n\n    /**\n     * @dev Transfer tokens from one address to another.\n     * @param from The address you want to send tokens from.\n     * @param to The address you want to transfer to.\n     * @param value The amount of tokens to be transferred.\n     */\n    function transferFrom(address from, address to, uint256 value)\n        public\n        validRecipient(to)\n        returns (bool)\n    {\n        _allowedFragments[from][msg.sender] = _allowedFragments[from][msg.sender].sub(value);\n\n        uint256 gonValue = value.mul(_gonsPerFragment);\n        _gonBalances[from] = _gonBalances[from].sub(gonValue);\n        _gonBalances[to] = _gonBalances[to].add(gonValue);\n        emit Transfer(from, to, value);\n\n        return true;\n    }\n\n    /**\n     * @dev Approve the passed address to spend the specified amount of tokens on behalf of\n     * msg.sender. This method is included for ERC20 compatibility.\n     * increaseAllowance and decreaseAllowance should be used instead.\n     * Changing an allowance with this method brings the risk that someone may transfer both\n     * the old and the new allowance - if they are both greater than zero - if a transfer\n     * transaction is mined before the later approve() call is mined.\n     *\n     * @param spender The address which will spend the funds.\n     * @param value The amount of tokens to be spent.\n     */\n    function approve(address spender, uint256 value)\n        public\n        returns (bool)\n    {\n        _allowedFragments[msg.sender][spender] = value;\n        emit Approval(msg.sender, spender, value);\n        return true;\n    }\n\n    /**\n     * @dev Increase the amount of tokens that an owner has allowed to a spender.\n     * This method should be used instead of approve() to avoid the double approval vulnerability\n     * described above.\n     * @param spender The address which will spend the funds.\n     * @param addedValue The amount of tokens to increase the allowance by.\n     */\n    function increaseAllowance(address spender, uint256 addedValue)\n        public\n        returns (bool)\n    {\n        _allowedFragments[msg.sender][spender] =\n            _allowedFragments[msg.sender][spender].add(addedValue);\n        emit Approval(msg.sender, spender, _allowedFragments[msg.sender][spender]);\n        return true;\n    }\n\n    /**\n     * @dev Decrease the amount of tokens that an owner has allowed to a spender.\n     *\n     * @param spender The address which will spend the funds.\n     * @param subtractedValue The amount of tokens to decrease the allowance by.\n     */\n    function decreaseAllowance(address spender, uint256 subtractedValue)\n        public\n        returns (bool)\n    {\n        uint256 oldValue = _allowedFragments[msg.sender][spender];\n        if (subtractedValue >= oldValue) {\n            _allowedFragments[msg.sender][spender] = 0;\n        } else {\n            _allowedFragments[msg.sender][spender] = oldValue.sub(subtractedValue);\n        }\n        emit Approval(msg.sender, spender, _allowedFragments[msg.sender][spender]);\n        return true;\n    }\n}\n",
  "sourcePath": "contracts/UFragments.sol",
  "abi": [
    {
      "constant": true,
      "inputs": [],
      "name": "name",
      "outputs": [
        {
          "name": "",
          "type": "string"
        }
      ],
      "payable": false,
      "stateMutability": "view",
      "type": "function"
    },
    {
      "constant": false,
      "inputs": [
        {
          "name": "spender",
          "type": "address"
        },
        {
          "name": "value",
          "type": "uint256"
        }
      ],
      "name": "approve",
      "outputs": [
        {
          "name": "",
          "type": "bool"
        }
      ],
      "payable": false,
      "stateMutability": "nonpayable",
      "type": "function"
    },
    {
      "constant": false,
      "inputs": [
        {
          "name": "name",
          "type": "string"
        },
        {
          "name": "symbol",
          "type": "string"
        },
        {
          "name": "decimals",
          "type": "uint8"
        }
      ],
      "name": "initialize",
      "outputs": [],
      "payable": false,
      "stateMutability": "nonpayable",
      "type": "function"
    },
    {
      "constant": true,
      "inputs": [],
      "name": "totalSupply",
      "outputs": [
        {
          "name": "",
          "type": "uint256"
        }
      ],
      "payable": false,
      "stateMutability": "view",
      "type": "function"
    },
    {
      "constant": false,
      "inputs": [
        {
          "name": "from",
          "type": "address"
        },
        {
          "name": "to",
          "type": "address"
        },
        {
          "name": "value",
          "type": "uint256"
        }
      ],
      "name": "transferFrom",
      "outputs": [
        {
          "name": "",
          "type": "bool"
        }
      ],
      "payable": false,
      "stateMutability": "nonpayable",
      "type": "function"
    },
    {
      "constant": true,
      "inputs": [],
      "name": "decimals",
      "outputs": [
        {
          "name": "",
          "type": "uint8"
        }
      ],
      "payable": false,
      "stateMutability": "view",
      "type": "function"
    },
    {
      "constant": false,
      "inputs": [
        {
          "name": "spender",
          "type": "address"
        },
        {
          "name": "addedValue",
          "type": "uint256"
        }
      ],
      "name": "increaseAllowance",
      "outputs": [
        {
          "name": "",
          "type": "bool"
        }
      ],
      "payable": false,
      "stateMutability": "nonpayable",
      "type": "function"
    },
    {
      "constant": true,
      "inputs": [
        {
          "name": "who",
          "type": "address"
        }
      ],
      "name": "balanceOf",
      "outputs": [
        {
          "name": "",
          "type": "uint256"
        }
      ],
      "payable": false,
      "stateMutability": "view",
      "type": "function"
    },
    {
      "constant": false,
      "inputs": [],
      "name": "renounceOwnership",
      "outputs": [],
      "payable": false,
      "stateMutability": "nonpayable",
      "type": "function"
    },
    {
      "constant": false,
      "inputs": [
        {
          "name": "epoch",
          "type": "uint256"
        },
        {
          "name": "supplyDelta",
          "type": "int256"
        }
      ],
      "name": "rebase",
      "outputs": [
        {
          "name": "",
          "type": "uint256"
        }
      ],
      "payable": false,
      "stateMutability": "nonpayable",
      "type": "function"
    },
    {
      "constant": false,
      "inputs": [
        {
          "name": "monetaryPolicy_",
          "type": "address"
        }
      ],
      "name": "setMonetaryPolicy",
      "outputs": [],
      "payable": false,
      "stateMutability": "nonpayable",
      "type": "function"
    },
    {
      "constant": true,
      "inputs": [],
      "name": "owner",
      "outputs": [
        {
          "name": "",
          "type": "address"
        }
      ],
      "payable": false,
      "stateMutability": "view",
      "type": "function"
    },
    {
      "constant": true,
      "inputs": [],
      "name": "monetaryPolicy",
      "outputs": [
        {
          "name": "",
          "type": "address"
        }
      ],
      "payable": false,
      "stateMutability": "view",
      "type": "function"
    },
    {
      "constant": true,
      "inputs": [],
      "name": "isOwner",
      "outputs": [
        {
          "name": "",
          "type": "bool"
        }
      ],
      "payable": false,
      "stateMutability": "view",
      "type": "function"
    },
    {
      "constant": true,
      "inputs": [],
      "name": "symbol",
      "outputs": [
        {
          "name": "",
          "type": "string"
        }
      ],
      "payable": false,
      "stateMutability": "view",
      "type": "function"
    },
    {
      "constant": false,
      "inputs": [
        {
          "name": "spender",
          "type": "address"
        },
        {
          "name": "subtractedValue",
          "type": "uint256"
        }
      ],
      "name": "decreaseAllowance",
      "outputs": [
        {
          "name": "",
          "type": "bool"
        }
      ],
      "payable": false,
      "stateMutability": "nonpayable",
      "type": "function"
    },
    {
      "constant": false,
      "inputs": [
        {
          "name": "to",
          "type": "address"
        },
        {
          "name": "value",
          "type": "uint256"
        }
      ],
      "name": "transfer",
      "outputs": [
        {
          "name": "",
          "type": "bool"
        }
      ],
      "payable": false,
      "stateMutability": "nonpayable",
      "type": "function"
    },
    {
      "constant": false,
      "inputs": [
        {
          "name": "owner_",
          "type": "address"
        }
      ],
      "name": "initialize",
      "outputs": [],
      "payable": false,
      "stateMutability": "nonpayable",
      "type": "function"
    },
    {
      "constant": true,
      "inputs": [
        {
          "name": "owner_",
          "type": "address"
        },
        {
          "name": "spender",
          "type": "address"
        }
      ],
      "name": "allowance",
      "outputs": [
        {
          "name": "",
          "type": "uint256"
        }
      ],
      "payable": false,
      "stateMutability": "view",
      "type": "function"
    },
    {
      "constant": false,
      "inputs": [
        {
          "name": "newOwner",
          "type": "address"
        }
      ],
      "name": "transferOwnership",
      "outputs": [],
      "payable": false,
      "stateMutability": "nonpayable",
      "type": "function"
    },
    {
      "anonymous": false,
      "inputs": [
        {
          "indexed": true,
          "name": "epoch",
          "type": "uint256"
        },
        {
          "indexed": false,
          "name": "totalSupply",
          "type": "uint256"
        }
      ],
      "name": "LogRebase",
      "type": "event"
    },
    {
      "anonymous": false,
      "inputs": [
        {
          "indexed": false,
          "name": "monetaryPolicy",
          "type": "address"
        }
      ],
      "name": "LogMonetaryPolicyUpdated",
      "type": "event"
    },
    {
      "anonymous": false,
      "inputs": [
        {
          "indexed": true,
          "name": "previousOwner",
          "type": "address"
        }
      ],
      "name": "OwnershipRenounced",
      "type": "event"
    },
    {
      "anonymous": false,
      "inputs": [
        {
          "indexed": true,
          "name": "previousOwner",
          "type": "address"
        },
        {
          "indexed": true,
          "name": "newOwner",
          "type": "address"
        }
      ],
      "name": "OwnershipTransferred",
      "type": "event"
    },
    {
      "anonymous": false,
      "inputs": [
        {
          "indexed": true,
          "name": "from",
          "type": "address"
        },
        {
          "indexed": true,
          "name": "to",
          "type": "address"
        },
        {
          "indexed": false,
          "name": "value",
          "type": "uint256"
        }
      ],
      "name": "Transfer",
      "type": "event"
    },
    {
      "anonymous": false,
      "inputs": [
        {
          "indexed": true,
          "name": "owner",
          "type": "address"
        },
        {
          "indexed": true,
          "name": "spender",
          "type": "address"
        },
        {
          "indexed": false,
          "name": "value",
          "type": "uint256"
        }
      ],
      "name": "Approval",
      "type": "event"
    }
  ],
  "bytecode": "0x608060405234801561001057600080fd5b50612235806100206000396000f300608060405260043610610112576000357c0100000000000000000000000000000000000000000000000000000000900463ffffffff16806306fdde0314610117578063095ea7b3146101a75780631624f6c61461020c57806318160ddd146102c857806323b872dd146102f3578063313ce5671461037857806339509351146103a957806370a082311461040e578063715018a6146104655780637a43e23f1461047c5780638b5a6a08146104c75780638da5cb5b1461050a5780638e27d7d7146105615780638f32d59b146105b857806395d89b41146105e7578063a457c2d714610677578063a9059cbb146106dc578063c4d66de814610741578063dd62ed3e14610784578063f2fde38b146107fb575b600080fd5b34801561012357600080fd5b5061012c61083e565b6040518080602001828103825283818151815260200191508051906020019080838360005b8381101561016c578082015181840152602081019050610151565b50505050905090810190601f1680156101995780820380516001836020036101000a031916815260200191505b509250505060405180910390f35b3480156101b357600080fd5b506101f2600480360381019080803573ffffffffffffffffffffffffffffffffffffffff169060200190929190803590602001909291905050506108e0565b604051808215151515815260200191505060405180910390f35b34801561021857600080fd5b506102c6600480360381019080803590602001908201803590602001908080601f0160208091040260200160405190810160405280939291908181526020018383808284378201915050505050509192919290803590602001908201803590602001908080601f0160208091040260200160405190810160405280939291908181526020018383808284378201915050505050509192919290803560ff1690602001909291905050506109d2565b005b3480156102d457600080fd5b506102dd610b62565b6040518082815260200191505060405180910390f35b3480156102ff57600080fd5b5061035e600480360381019080803573ffffffffffffffffffffffffffffffffffffffff169060200190929190803573ffffffffffffffffffffffffffffffffffffffff16906020019092919080359060200190929190505050610b6c565b604051808215151515815260200191505060405180910390f35b34801561038457600080fd5b5061038d610ea9565b604051808260ff1660ff16815260200191505060405180910390f35b3480156103b557600080fd5b506103f4600480360381019080803573ffffffffffffffffffffffffffffffffffffffff16906020019092919080359060200190929190505050610ec0565b604051808215151515815260200191505060405180910390f35b34801561041a57600080fd5b5061044f600480360381019080803573ffffffffffffffffffffffffffffffffffffffff1690602001909291905050506110bc565b6040518082815260200191505060405180910390f35b34801561047157600080fd5b5061047a611119565b005b34801561048857600080fd5b506104b160048036038101908080359060200190929190803590602001909291905050506111d5565b6040518082815260200191505060405180910390f35b3480156104d357600080fd5b50610508600480360381019080803573ffffffffffffffffffffffffffffffffffffffff169060200190929190505050611383565b005b34801561051657600080fd5b5061051f61143d565b604051808273ffffffffffffffffffffffffffffffffffffffff1673ffffffffffffffffffffffffffffffffffffffff16815260200191505060405180910390f35b34801561056d57600080fd5b50610576611467565b604051808273ffffffffffffffffffffffffffffffffffffffff1673ffffffffffffffffffffffffffffffffffffffff16815260200191505060405180910390f35b3480156105c457600080fd5b506105cd61148d565b604051808215151515815260200191505060405180910390f35b3480156105f357600080fd5b506105fc6114e5565b6040518080602001828103825283818151815260200191508051906020019080838360005b8381101561063c578082015181840152602081019050610621565b50505050905090810190601f1680156106695780820380516001836020036101000a031916815260200191505b509250505060405180910390f35b34801561068357600080fd5b506106c2600480360381019080803573ffffffffffffffffffffffffffffffffffffffff16906020019092919080359060200190929190505050611587565b604051808215151515815260200191505060405180910390f35b3480156106e857600080fd5b50610727600480360381019080803573ffffffffffffffffffffffffffffffffffffffff16906020019092919080359060200190929190505050611819565b604051808215151515815260200191505060405180910390f35b34801561074d57600080fd5b50610782600480360381019080803573ffffffffffffffffffffffffffffffffffffffff169060200190929190505050611a46565b005b34801561079057600080fd5b506107e5600480360381019080803573ffffffffffffffffffffffffffffffffffffffff169060200190929190803573ffffffffffffffffffffffffffffffffffffffff169060200190929190505050611d4e565b6040518082815260200191505060405180910390f35b34801561080757600080fd5b5061083c600480360381019080803573ffffffffffffffffffffffffffffffffffffffff169060200190929190505050611dd5565b005b606060338054600181600116156101000203166002900480601f0160208091040260200160405190810160405280929190818152602001828054600181600116156101000203166002900480156108d65780601f106108ab576101008083540402835291602001916108d6565b820191906000526020600020905b8154815290600101906020018083116108b957829003601f168201915b5050505050905090565b600081609f60003373ffffffffffffffffffffffffffffffffffffffff1673ffffffffffffffffffffffffffffffffffffffff16815260200190815260200160002060008573ffffffffffffffffffffffffffffffffffffffff1673ffffffffffffffffffffffffffffffffffffffff168152602001908152602001600020819055508273ffffffffffffffffffffffffffffffffffffffff163373ffffffffffffffffffffffffffffffffffffffff167f8c5be1e5ebec7d5bd14f71427d1e84f3dd0314c0f7b2291e5b200ac8c7c3b925846040518082815260200191505060405180910390a36001905092915050565b60008060019054906101000a900460ff16806109f257506109f1611df4565b5b80610a0957506000809054906101000a900460ff16155b1515610aa3576040517f08c379a000000000000000000000000000000000000000000000000000000000815260040180806020018281038252602e8152602001807f436f6e747261637420696e7374616e63652068617320616c726561647920626581526020017f656e20696e697469616c697a656400000000000000000000000000000000000081525060400191505060405180910390fd5b600060019054906101000a900460ff161590508015610af2576001600060016101000a81548160ff02191690831515021790555060016000806101000a81548160ff0219169083151502179055505b8360339080519060200190610b08929190612164565b508260349080519060200190610b1f929190612164565b5081603560006101000a81548160ff021916908360ff1602179055508015610b5c5760008060016101000a81548160ff0219169083151502179055505b50505050565b6000609c54905090565b60008083600073ffffffffffffffffffffffffffffffffffffffff168173ffffffffffffffffffffffffffffffffffffffff1614151515610bac57600080fd5b3073ffffffffffffffffffffffffffffffffffffffff168173ffffffffffffffffffffffffffffffffffffffff1614151515610be757600080fd5b610c7684609f60008973ffffffffffffffffffffffffffffffffffffffff1673ffffffffffffffffffffffffffffffffffffffff16815260200190815260200160002060003373ffffffffffffffffffffffffffffffffffffffff1673ffffffffffffffffffffffffffffffffffffffff16815260200190815260200160002054611e0590919063ffffffff16565b609f60008873ffffffffffffffffffffffffffffffffffffffff1673ffffffffffffffffffffffffffffffffffffffff16815260200190815260200160002060003373ffffffffffffffffffffffffffffffffffffffff1673ffffffffffffffffffffffffffffffffffffffff16815260200190815260200160002081905550610d0b609d5485611e2690919063ffffffff16565b9150610d5f82609e60008973ffffffffffffffffffffffffffffffffffffffff1673ffffffffffffffffffffffffffffffffffffffff16815260200190815260200160002054611e0590919063ffffffff16565b609e60008873ffffffffffffffffffffffffffffffffffffffff1673ffffffffffffffffffffffffffffffffffffffff16815260200190815260200160002081905550610df482609e60008873ffffffffffffffffffffffffffffffffffffffff1673ffffffffffffffffffffffffffffffffffffffff16815260200190815260200160002054611e6490919063ffffffff16565b609e60008773ffffffffffffffffffffffffffffffffffffffff1673ffffffffffffffffffffffffffffffffffffffff168152602001908152602001600020819055508473ffffffffffffffffffffffffffffffffffffffff168673ffffffffffffffffffffffffffffffffffffffff167fddf252ad1be2c89b69c2b068fc378daa952ba7f163c4a11628f55a4df523b3ef866040518082815260200191505060405180910390a36001925050509392505050565b6000603560009054906101000a900460ff16905090565b6000610f5182609f60003373ffffffffffffffffffffffffffffffffffffffff1673ffffffffffffffffffffffffffffffffffffffff16815260200190815260200160002060008673ffffffffffffffffffffffffffffffffffffffff1673ffffffffffffffffffffffffffffffffffffffff16815260200190815260200160002054611e6490919063ffffffff16565b609f60003373ffffffffffffffffffffffffffffffffffffffff1673ffffffffffffffffffffffffffffffffffffffff16815260200190815260200160002060008573ffffffffffffffffffffffffffffffffffffffff1673ffffffffffffffffffffffffffffffffffffffff168152602001908152602001600020819055508273ffffffffffffffffffffffffffffffffffffffff163373ffffffffffffffffffffffffffffffffffffffff167f8c5be1e5ebec7d5bd14f71427d1e84f3dd0314c0f7b2291e5b200ac8c7c3b925609f60003373ffffffffffffffffffffffffffffffffffffffff1673ffffffffffffffffffffffffffffffffffffffff16815260200190815260200160002060008773ffffffffffffffffffffffffffffffffffffffff1673ffffffffffffffffffffffffffffffffffffffff168152602001908152602001600020546040518082815260200191505060405180910390a36001905092915050565b6000611112609d54609e60008573ffffffffffffffffffffffffffffffffffffffff1673ffffffffffffffffffffffffffffffffffffffff16815260200190815260200160002054611e8590919063ffffffff16565b9050919050565b61112161148d565b151561112c57600080fd5b606860009054906101000a900473ffffffffffffffffffffffffffffffffffffffff1673ffffffffffffffffffffffffffffffffffffffff167ff8df31144d9c2f0f6b59d69b8b98abd5459d07f2742c4df920b25aae33c6482060405160405180910390a26000606860006101000a81548173ffffffffffffffffffffffffffffffffffffffff021916908373ffffffffffffffffffffffffffffffffffffffff160217905550565b6000609b60009054906101000a900473ffffffffffffffffffffffffffffffffffffffff1673ffffffffffffffffffffffffffffffffffffffff163373ffffffffffffffffffffffffffffffffffffffff1614151561123357600080fd5b600082141561128057827f72725a3b1e5bd622d6bcd1339bb31279c351abe8f541ac7fd320f24e1b1641f2609c546040518082815260200191505060405180910390a2609c54905061137d565b60008212156112b1576112a661129583611eaf565b609c54611e0590919063ffffffff16565b609c819055506112cd565b6112c682609c54611e6490919063ffffffff16565b609c819055505b6000196fffffffffffffffffffffffffffffffff16609c541115611307576000196fffffffffffffffffffffffffffffffff16609c819055505b611337609c546009600a0a6302faf0800260001981151561132457fe5b0660001903611e8590919063ffffffff16565b609d81905550827f72725a3b1e5bd622d6bcd1339bb31279c351abe8f541ac7fd320f24e1b1641f2609c546040518082815260200191505060405180910390a2609c5490505b92915050565b61138b61148d565b151561139657600080fd5b80609b60006101000a81548173ffffffffffffffffffffffffffffffffffffffff021916908373ffffffffffffffffffffffffffffffffffffffff1602179055507f0e6961f1a1afb87eaf51fd64f22ddc10062e23aa7838eac5d0bdf140bfd3897281604051808273ffffffffffffffffffffffffffffffffffffffff1673ffffffffffffffffffffffffffffffffffffffff16815260200191505060405180910390a150565b6000606860009054906101000a900473ffffffffffffffffffffffffffffffffffffffff16905090565b609b60009054906101000a900473ffffffffffffffffffffffffffffffffffffffff1681565b6000606860009054906101000a900473ffffffffffffffffffffffffffffffffffffffff1673ffffffffffffffffffffffffffffffffffffffff163373ffffffffffffffffffffffffffffffffffffffff1614905090565b606060348054600181600116156101000203166002900480601f01602080910402602001604051908101604052809291908181526020018280546001816001161561010002031660029004801561157d5780601f106115525761010080835404028352916020019161157d565b820191906000526020600020905b81548152906001019060200180831161156057829003601f168201915b5050505050905090565b600080609f60003373ffffffffffffffffffffffffffffffffffffffff1673ffffffffffffffffffffffffffffffffffffffff16815260200190815260200160002060008573ffffffffffffffffffffffffffffffffffffffff1673ffffffffffffffffffffffffffffffffffffffff1681526020019081526020016000205490508083101515611699576000609f60003373ffffffffffffffffffffffffffffffffffffffff1673ffffffffffffffffffffffffffffffffffffffff16815260200190815260200160002060008673ffffffffffffffffffffffffffffffffffffffff1673ffffffffffffffffffffffffffffffffffffffff1681526020019081526020016000208190555061172d565b6116ac8382611e0590919063ffffffff16565b609f60003373ffffffffffffffffffffffffffffffffffffffff1673ffffffffffffffffffffffffffffffffffffffff16815260200190815260200160002060008673ffffffffffffffffffffffffffffffffffffffff1673ffffffffffffffffffffffffffffffffffffffff168152602001908152602001600020819055505b8373ffffffffffffffffffffffffffffffffffffffff163373ffffffffffffffffffffffffffffffffffffffff167f8c5be1e5ebec7d5bd14f71427d1e84f3dd0314c0f7b2291e5b200ac8c7c3b925609f60003373ffffffffffffffffffffffffffffffffffffffff1673ffffffffffffffffffffffffffffffffffffffff16815260200190815260200160002060008873ffffffffffffffffffffffffffffffffffffffff1673ffffffffffffffffffffffffffffffffffffffff168152602001908152602001600020546040518082815260200191505060405180910390a3600191505092915050565b60008083600073ffffffffffffffffffffffffffffffffffffffff168173ffffffffffffffffffffffffffffffffffffffff161415151561185957600080fd5b3073ffffffffffffffffffffffffffffffffffffffff168173ffffffffffffffffffffffffffffffffffffffff161415151561189457600080fd5b6118a9609d5485611e2690919063ffffffff16565b91506118fd82609e60003373ffffffffffffffffffffffffffffffffffffffff1673ffffffffffffffffffffffffffffffffffffffff16815260200190815260200160002054611e0590919063ffffffff16565b609e60003373ffffffffffffffffffffffffffffffffffffffff1673ffffffffffffffffffffffffffffffffffffffff1681526020019081526020016000208190555061199282609e60008873ffffffffffffffffffffffffffffffffffffffff1673ffffffffffffffffffffffffffffffffffffffff16815260200190815260200160002054611e6490919063ffffffff16565b609e60008773ffffffffffffffffffffffffffffffffffffffff1673ffffffffffffffffffffffffffffffffffffffff168152602001908152602001600020819055508473ffffffffffffffffffffffffffffffffffffffff163373ffffffffffffffffffffffffffffffffffffffff167fddf252ad1be2c89b69c2b068fc378daa952ba7f163c4a11628f55a4df523b3ef866040518082815260200191505060405180910390a360019250505092915050565b60008060019054906101000a900460ff1680611a665750611a65611df4565b5b80611a7d57506000809054906101000a900460ff16155b1515611b17576040517f08c379a000000000000000000000000000000000000000000000000000000000815260040180806020018281038252602e8152602001807f436f6e747261637420696e7374616e63652068617320616c726561647920626581526020017f656e20696e697469616c697a656400000000000000000000000000000000000081525060400191505060405180910390fd5b600060019054906101000a900460ff161590508015611b66576001600060016101000a81548160ff02191690831515021790555060016000806101000a81548160ff0219169083151502179055505b611bdc6040805190810160405280600a81526020017f416d706c65666f727468000000000000000000000000000000000000000000008152506040805190810160405280600481526020017f414d504c0000000000000000000000000000000000000000000000000000000081525060096109d2565b611be582611ee2565b6000609b60146101000a81548160ff0219169083151502179055506000609b60156101000a81548160ff0219169083151502179055506009600a0a6302faf08002609c819055506009600a0a6302faf08002600019811515611c4357fe5b0660001903609e60008473ffffffffffffffffffffffffffffffffffffffff1673ffffffffffffffffffffffffffffffffffffffff16815260200190815260200160002081905550611cbb609c546009600a0a6302faf08002600019811515611ca857fe5b0660001903611e8590919063ffffffff16565b609d819055508173ffffffffffffffffffffffffffffffffffffffff16600073ffffffffffffffffffffffffffffffffffffffff167fddf252ad1be2c89b69c2b068fc378daa952ba7f163c4a11628f55a4df523b3ef609c546040518082815260200191505060405180910390a38015611d4a5760008060016101000a81548160ff0219169083151502179055505b5050565b6000609f60008473ffffffffffffffffffffffffffffffffffffffff1673ffffffffffffffffffffffffffffffffffffffff16815260200190815260200160002060008373ffffffffffffffffffffffffffffffffffffffff1673ffffffffffffffffffffffffffffffffffffffff16815260200190815260200160002054905092915050565b611ddd61148d565b1515611de857600080fd5b611df181612068565b50565b600080303b90506000811491505090565b600080838311151515611e1757600080fd5b82840390508091505092915050565b6000806000841415611e3b5760009150611e5d565b8284029050828482811515611e4c57fe5b04141515611e5957600080fd5b8091505b5092915050565b6000808284019050838110151515611e7b57600080fd5b8091505092915050565b600080600083111515611e9757600080fd5b8284811515611ea257fe5b0490508091505092915050565b600060ff60019060020a028214151515611ec857600080fd5b60008212611ed65781611edb565b816000035b9050919050565b60008060019054906101000a900460ff1680611f025750611f01611df4565b5b80611f1957506000809054906101000a900460ff16155b1515611fb3576040517f08c379a000000000000000000000000000000000000000000000000000000000815260040180806020018281038252602e8152602001807f436f6e747261637420696e7374616e63652068617320616c726561647920626581526020017f656e20696e697469616c697a656400000000000000000000000000000000000081525060400191505060405180910390fd5b600060019054906101000a900460ff161590508015612002576001600060016101000a81548160ff02191690831515021790555060016000806101000a81548160ff0219169083151502179055505b81606860006101000a81548173ffffffffffffffffffffffffffffffffffffffff021916908373ffffffffffffffffffffffffffffffffffffffff16021790555080156120645760008060016101000a81548160ff0219169083151502179055505b5050565b600073ffffffffffffffffffffffffffffffffffffffff168173ffffffffffffffffffffffffffffffffffffffff16141515156120a457600080fd5b8073ffffffffffffffffffffffffffffffffffffffff16606860009054906101000a900473ffffffffffffffffffffffffffffffffffffffff1673ffffffffffffffffffffffffffffffffffffffff167f8be0079c531659141344cd1fd0a4f28419497f9722a3daafe3b4186f6b6457e060405160405180910390a380606860006101000a81548173ffffffffffffffffffffffffffffffffffffffff021916908373ffffffffffffffffffffffffffffffffffffffff16021790555050565b828054600181600116156101000203166002900490600052602060002090601f016020900481019282601f106121a557805160ff19168380011785556121d3565b828001600101855582156121d3579182015b828111156121d25782518255916020019190600101906121b7565b5b5090506121e091906121e4565b5090565b61220691905b808211156122025760008160009055506001016121ea565b5090565b905600a165627a7a723058204a53a3f4a7acd4b5905c08a1cb72a5475db8210b9939481f27d28bd079edbfc40029",
  "compiler": {
    "name": "solc",
    "version": "0.4.24+commit.e67f0147.Emscripten.clang",
    "optimizer": {
      "enabled": false,
      "runs": 200
    },
    "evmVersion": "byzantium"
  }
}