{
  "fileName": "ERC721GSNRecipientMock.sol",
  "contractName": "ERC721GSNRecipientMock",
  "source": "// SPDX-License-Identifier: MIT\n\npragma solidity ^0.6.0;\n\nimport \"../token/ERC721/ERC721.sol\";\nimport \"../GSN/GSNRecipient.sol\";\nimport \"../GSN/GSNRecipientSignature.sol\";\n\n/**\n * @title ERC721GSNRecipientMock\n * A simple ERC721 mock that has GSN support enabled\n */\ncontract ERC721GSNRecipientMock is ERC721, GSNRecipient, GSNRecipientSignature {\n    constructor(string memory name, string memory symbol, address trustedSigner)\n        public\n        ERC721(name, symbol)\n        GSNRecipientSignature(trustedSigner)\n    { }\n\n    function mint(uint256 tokenId) public {\n        _mint(_msgSender(), tokenId);\n    }\n\n    function _msgSender() internal view override(Context, GSNRecipient) returns (address payable) {\n        return GSNRecipient._msgSender();\n    }\n\n    function _msgData() internal view override(Context, GSNRecipient) returns (bytes memory) {\n        return GSNRecipient._msgData();\n    }\n}\n",
  "sourcePath": "contracts/mocks/ERC721GSNRecipientMock.sol",
  "abi": [
    {
      "inputs": [
        {
          "internalType": "string",
          "name": "name",
          "type": "string"
        },
        {
          "internalType": "string",
          "name": "symbol",
          "type": "string"
        },
        {
          "internalType": "address",
          "name": "trustedSigner",
          "type": "address"
        }
      ],
      "stateMutability": "nonpayable",
      "type": "constructor"
    },
    {
      "anonymous": false,
      "inputs": [
        {
          "indexed": true,
          "internalType": "address",
          "name": "owner",
          "type": "address"
        },
        {
          "indexed": true,
          "internalType": "address",
          "name": "approved",
          "type": "address"
        },
        {
          "indexed": true,
          "internalType": "uint256",
          "name": "tokenId",
          "type": "uint256"
        }
      ],
      "name": "Approval",
      "type": "event"
    },
    {
      "anonymous": false,
      "inputs": [
        {
          "indexed": true,
          "internalType": "address",
          "name": "owner",
          "type": "address"
        },
        {
          "indexed": true,
          "internalType": "address",
          "name": "operator",
          "type": "address"
        },
        {
          "indexed": false,
          "internalType": "bool",
          "name": "approved",
          "type": "bool"
        }
      ],
      "name": "ApprovalForAll",
      "type": "event"
    },
    {
      "anonymous": false,
      "inputs": [
        {
          "indexed": true,
          "internalType": "address",
          "name": "oldRelayHub",
          "type": "address"
        },
        {
          "indexed": true,
          "internalType": "address",
          "name": "newRelayHub",
          "type": "address"
        }
      ],
      "name": "RelayHubChanged",
      "type": "event"
    },
    {
      "anonymous": false,
      "inputs": [
        {
          "indexed": true,
          "internalType": "address",
          "name": "from",
          "type": "address"
        },
        {
          "indexed": true,
          "internalType": "address",
          "name": "to",
          "type": "address"
        },
        {
          "indexed": true,
          "internalType": "uint256",
          "name": "tokenId",
          "type": "uint256"
        }
      ],
      "name": "Transfer",
      "type": "event"
    },
    {
      "inputs": [
        {
          "internalType": "address",
          "name": "relay",
          "type": "address"
        },
        {
          "internalType": "address",
          "name": "from",
          "type": "address"
        },
        {
          "internalType": "bytes",
          "name": "encodedFunction",
          "type": "bytes"
        },
        {
          "internalType": "uint256",
          "name": "transactionFee",
          "type": "uint256"
        },
        {
          "internalType": "uint256",
          "name": "gasPrice",
          "type": "uint256"
        },
        {
          "internalType": "uint256",
          "name": "gasLimit",
          "type": "uint256"
        },
        {
          "internalType": "uint256",
          "name": "nonce",
          "type": "uint256"
        },
        {
          "internalType": "bytes",
          "name": "approvalData",
          "type": "bytes"
        },
        {
          "internalType": "uint256",
          "name": "",
          "type": "uint256"
        }
      ],
      "name": "acceptRelayedCall",
      "outputs": [
        {
          "internalType": "uint256",
          "name": "",
          "type": "uint256"
        },
        {
          "internalType": "bytes",
          "name": "",
          "type": "bytes"
        }
      ],
      "stateMutability": "view",
      "type": "function"
    },
    {
      "inputs": [
        {
          "internalType": "address",
          "name": "to",
          "type": "address"
        },
        {
          "internalType": "uint256",
          "name": "tokenId",
          "type": "uint256"
        }
      ],
      "name": "approve",
      "outputs": [],
      "stateMutability": "nonpayable",
      "type": "function"
    },
    {
      "inputs": [
        {
          "internalType": "address",
          "name": "owner",
          "type": "address"
        }
      ],
      "name": "balanceOf",
      "outputs": [
        {
          "internalType": "uint256",
          "name": "",
          "type": "uint256"
        }
      ],
      "stateMutability": "view",
      "type": "function"
    },
    {
      "inputs": [],
      "name": "baseURI",
      "outputs": [
        {
          "internalType": "string",
          "name": "",
          "type": "string"
        }
      ],
      "stateMutability": "view",
      "type": "function"
    },
    {
      "inputs": [
        {
          "internalType": "uint256",
          "name": "tokenId",
          "type": "uint256"
        }
      ],
      "name": "getApproved",
      "outputs": [
        {
          "internalType": "address",
          "name": "",
          "type": "address"
        }
      ],
      "stateMutability": "view",
      "type": "function"
    },
    {
      "inputs": [],
      "name": "getHubAddr",
      "outputs": [
        {
          "internalType": "address",
          "name": "",
          "type": "address"
        }
      ],
      "stateMutability": "view",
      "type": "function"
    },
    {
      "inputs": [
        {
          "internalType": "address",
          "name": "owner",
          "type": "address"
        },
        {
          "internalType": "address",
          "name": "operator",
          "type": "address"
        }
      ],
      "name": "isApprovedForAll",
      "outputs": [
        {
          "internalType": "bool",
          "name": "",
          "type": "bool"
        }
      ],
      "stateMutability": "view",
      "type": "function"
    },
    {
      "inputs": [
        {
          "internalType": "uint256",
          "name": "tokenId",
          "type": "uint256"
        }
      ],
      "name": "mint",
      "outputs": [],
      "stateMutability": "nonpayable",
      "type": "function"
    },
    {
      "inputs": [],
      "name": "name",
      "outputs": [
        {
          "internalType": "string",
          "name": "",
          "type": "string"
        }
      ],
      "stateMutability": "view",
      "type": "function"
    },
    {
      "inputs": [
        {
          "internalType": "uint256",
          "name": "tokenId",
          "type": "uint256"
        }
      ],
      "name": "ownerOf",
      "outputs": [
        {
          "internalType": "address",
          "name": "",
          "type": "address"
        }
      ],
      "stateMutability": "view",
      "type": "function"
    },
    {
      "inputs": [
        {
          "internalType": "bytes",
          "name": "context",
          "type": "bytes"
        },
        {
          "internalType": "bool",
          "name": "success",
          "type": "bool"
        },
        {
          "internalType": "uint256",
          "name": "actualCharge",
          "type": "uint256"
        },
        {
          "internalType": "bytes32",
          "name": "preRetVal",
          "type": "bytes32"
        }
      ],
      "name": "postRelayedCall",
      "outputs": [],
      "stateMutability": "nonpayable",
      "type": "function"
    },
    {
      "inputs": [
        {
          "internalType": "bytes",
          "name": "context",
          "type": "bytes"
        }
      ],
      "name": "preRelayedCall",
      "outputs": [
        {
          "internalType": "bytes32",
          "name": "",
          "type": "bytes32"
        }
      ],
      "stateMutability": "nonpayable",
      "type": "function"
    },
    {
      "inputs": [],
      "name": "relayHubVersion",
      "outputs": [
        {
          "internalType": "string",
          "name": "",
          "type": "string"
        }
      ],
      "stateMutability": "view",
      "type": "function"
    },
    {
      "inputs": [
        {
          "internalType": "address",
          "name": "from",
          "type": "address"
        },
        {
          "internalType": "address",
          "name": "to",
          "type": "address"
        },
        {
          "internalType": "uint256",
          "name": "tokenId",
          "type": "uint256"
        }
      ],
      "name": "safeTransferFrom",
      "outputs": [],
      "stateMutability": "nonpayable",
      "type": "function"
    },
    {
      "inputs": [
        {
          "internalType": "address",
          "name": "from",
          "type": "address"
        },
        {
          "internalType": "address",
          "name": "to",
          "type": "address"
        },
        {
          "internalType": "uint256",
          "name": "tokenId",
          "type": "uint256"
        },
        {
          "internalType": "bytes",
          "name": "_data",
          "type": "bytes"
        }
      ],
      "name": "safeTransferFrom",
      "outputs": [],
      "stateMutability": "nonpayable",
      "type": "function"
    },
    {
      "inputs": [
        {
          "internalType": "address",
          "name": "operator",
          "type": "address"
        },
        {
          "internalType": "bool",
          "name": "approved",
          "type": "bool"
        }
      ],
      "name": "setApprovalForAll",
      "outputs": [],
      "stateMutability": "nonpayable",
      "type": "function"
    },
    {
      "inputs": [
        {
          "internalType": "bytes4",
          "name": "interfaceId",
          "type": "bytes4"
        }
      ],
      "name": "supportsInterface",
      "outputs": [
        {
          "internalType": "bool",
          "name": "",
          "type": "bool"
        }
      ],
      "stateMutability": "view",
      "type": "function"
    },
    {
      "inputs": [],
      "name": "symbol",
      "outputs": [
        {
          "internalType": "string",
          "name": "",
          "type": "string"
        }
      ],
      "stateMutability": "view",
      "type": "function"
    },
    {
      "inputs": [
        {
          "internalType": "uint256",
          "name": "index",
          "type": "uint256"
        }
      ],
      "name": "tokenByIndex",
      "outputs": [
        {
          "internalType": "uint256",
          "name": "",
          "type": "uint256"
        }
      ],
      "stateMutability": "view",
      "type": "function"
    },
    {
      "inputs": [
        {
          "internalType": "address",
          "name": "owner",
          "type": "address"
        },
        {
          "internalType": "uint256",
          "name": "index",
          "type": "uint256"
        }
      ],
      "name": "tokenOfOwnerByIndex",
      "outputs": [
        {
          "internalType": "uint256",
          "name": "",
          "type": "uint256"
        }
      ],
      "stateMutability": "view",
      "type": "function"
    },
    {
      "inputs": [
        {
          "internalType": "uint256",
          "name": "tokenId",
          "type": "uint256"
        }
      ],
      "name": "tokenURI",
      "outputs": [
        {
          "internalType": "string",
          "name": "",
          "type": "string"
        }
      ],
      "stateMutability": "view",
      "type": "function"
    },
    {
      "inputs": [],
      "name": "totalSupply",
      "outputs": [
        {
          "internalType": "uint256",
          "name": "",
          "type": "uint256"
        }
      ],
      "stateMutability": "view",
      "type": "function"
    },
    {
      "inputs": [
        {
          "internalType": "address",
          "name": "from",
          "type": "address"
        },
        {
          "internalType": "address",
          "name": "to",
          "type": "address"
        },
        {
          "internalType": "uint256",
          "name": "tokenId",
          "type": "uint256"
        }
      ],
      "name": "transferFrom",
      "outputs": [],
      "stateMutability": "nonpayable",
      "type": "function"
    }
  ],
  "bytecode": "0x608060405273d216153c06e857cd7f72665e0af1d7d82172f494600a60006101000a81548173ffffffffffffffffffffffffffffffffffffffff021916908373ffffffffffffffffffffffffffffffffffffffff1602179055503480156200006657600080fd5b5060405162003b5138038062003b51833981810160405260608110156200008c57600080fd5b8101908080516040519392919084640100000000821115620000ad57600080fd5b83820191506020820185811115620000c457600080fd5b8251866001820283011164010000000082111715620000e257600080fd5b8083526020830192505050908051906020019080838360005b8381101562000118578082015181840152602081019050620000fb565b50505050905090810190601f168015620001465780820380516001836020036101000a031916815260200191505b50604052602001805160405193929190846401000000008211156200016a57600080fd5b838201915060208201858111156200018157600080fd5b82518660018202830111640100000000821117156200019f57600080fd5b8083526020830192505050908051906020019080838360005b83811015620001d5578082015181840152602081019050620001b8565b50505050905090810190601f168015620002035780820380516001836020036101000a031916815260200191505b5060405260200180519060200190929190505050808383620002326301ffc9a760e01b6200038160201b60201c565b81600690805190602001906200024a9291906200048a565b508060079080519060200190620002639291906200048a565b506200027c6380ac58cd60e01b6200038160201b60201c565b62000294635b5e139f60e01b6200038160201b60201c565b620002ac63780e9d6360e01b6200038160201b60201c565b5050600073ffffffffffffffffffffffffffffffffffffffff168173ffffffffffffffffffffffffffffffffffffffff16141562000336576040517f08c379a000000000000000000000000000000000000000000000000000000000815260040180806020018281038252603981526020018062003b186039913960400191505060405180910390fd5b80600b60006101000a81548173ffffffffffffffffffffffffffffffffffffffff021916908373ffffffffffffffffffffffffffffffffffffffff1602179055505050505062000530565b63ffffffff60e01b817bffffffffffffffffffffffffffffffffffffffffffffffffffffffff191614156200041e576040517f08c379a000000000000000000000000000000000000000000000000000000000815260040180806020018281038252601c8152602001807f4552433136353a20696e76616c696420696e746572666163652069640000000081525060200191505060405180910390fd5b6001600080837bffffffffffffffffffffffffffffffffffffffffffffffffffffffff19167bffffffffffffffffffffffffffffffffffffffffffffffffffffffff1916815260200190815260200160002060006101000a81548160ff02191690831515021790555050565b828054600181600116156101000203166002900490600052602060002090601f016020900481019282601f10620004cd57805160ff1916838001178555620004fe565b82800160010185558215620004fe579182015b82811115620004fd578251825591602001919060010190620004e0565b5b5090506200050d919062000511565b5090565b5b808211156200052c57600081600090555060010162000512565b5090565b6135d880620005406000396000f3fe608060405234801561001057600080fd5b506004361061014d5760003560e01c806370a08231116100c3578063a22cb4651161007c578063a22cb465146109a8578063ad61ccd5146109f8578063b88d4fde14610a7b578063c87b56dd14610b80578063e06e0e2214610c27578063e985e9c514610d025761014d565b806370a082311461055757806374e861d6146105af57806380274db7146105e357806383947ea0146106b257806395d89b41146108f7578063a0712d681461097a5761014d565b806323b872dd1161011557806323b872dd146102fc5780632f745c591461036a57806342842e0e146103cc5780634f6ccce71461043a5780636352211e1461047c5780636c0360eb146104d45761014d565b806301ffc9a71461015257806306fdde03146101b5578063081812fc14610238578063095ea7b31461029057806318160ddd146102de575b600080fd5b61019d6004803603602081101561016857600080fd5b8101908080357bffffffffffffffffffffffffffffffffffffffffffffffffffffffff19169060200190929190505050610d7c565b60405180821515815260200191505060405180910390f35b6101bd610de3565b6040518080602001828103825283818151815260200191508051906020019080838360005b838110156101fd5780820151818401526020810190506101e2565b50505050905090810190601f16801561022a5780820380516001836020036101000a031916815260200191505b509250505060405180910390f35b6102646004803603602081101561024e57600080fd5b8101908080359060200190929190505050610e85565b604051808273ffffffffffffffffffffffffffffffffffffffff16815260200191505060405180910390f35b6102dc600480360360408110156102a657600080fd5b81019080803573ffffffffffffffffffffffffffffffffffffffff16906020019092919080359060200190929190505050610f20565b005b6102e6611064565b6040518082815260200191505060405180910390f35b6103686004803603606081101561031257600080fd5b81019080803573ffffffffffffffffffffffffffffffffffffffff169060200190929190803573ffffffffffffffffffffffffffffffffffffffff16906020019092919080359060200190929190505050611075565b005b6103b66004803603604081101561038057600080fd5b81019080803573ffffffffffffffffffffffffffffffffffffffff169060200190929190803590602001909291905050506110eb565b6040518082815260200191505060405180910390f35b610438600480360360608110156103e257600080fd5b81019080803573ffffffffffffffffffffffffffffffffffffffff169060200190929190803573ffffffffffffffffffffffffffffffffffffffff16906020019092919080359060200190929190505050611146565b005b6104666004803603602081101561045057600080fd5b8101908080359060200190929190505050611166565b6040518082815260200191505060405180910390f35b6104a86004803603602081101561049257600080fd5b8101908080359060200190929190505050611189565b604051808273ffffffffffffffffffffffffffffffffffffffff16815260200191505060405180910390f35b6104dc6111c0565b6040518080602001828103825283818151815260200191508051906020019080838360005b8381101561051c578082015181840152602081019050610501565b50505050905090810190601f1680156105495780820380516001836020036101000a031916815260200191505b509250505060405180910390f35b6105996004803603602081101561056d57600080fd5b81019080803573ffffffffffffffffffffffffffffffffffffffff169060200190929190505050611262565b6040518082815260200191505060405180910390f35b6105b7611337565b604051808273ffffffffffffffffffffffffffffffffffffffff16815260200191505060405180910390f35b61069c600480360360208110156105f957600080fd5b810190808035906020019064010000000081111561061657600080fd5b82018360208201111561062857600080fd5b8035906020019184600183028401116401000000008311171561064a57600080fd5b91908080601f016020809104026020016040519081016040528093929190818152602001838380828437600081840152601f19601f820116905080830192505050505050509192919290505050611361565b6040518082815260200191505060405180910390f35b61087560048036036101208110156106c957600080fd5b81019080803573ffffffffffffffffffffffffffffffffffffffff169060200190929190803573ffffffffffffffffffffffffffffffffffffffff1690602001909291908035906020019064010000000081111561072657600080fd5b82018360208201111561073857600080fd5b8035906020019184600183028401116401000000008311171561075a57600080fd5b91908080601f016020809104026020016040519081016040528093929190818152602001838380828437600081840152601f19601f82011690508083019250505050505050919291929080359060200190929190803590602001909291908035906020019092919080359060200190929190803590602001906401000000008111156107e557600080fd5b8201836020820111156107f757600080fd5b8035906020019184600183028401116401000000008311171561081957600080fd5b91908080601f016020809104026020016040519081016040528093929190818152602001838380828437600081840152601f19601f820116905080830192505050505050509192919290803590602001909291905050506113fe565b6040518083815260200180602001828103825283818151815260200191508051906020019080838360005b838110156108bb5780820151818401526020810190506108a0565b50505050905090810190601f1680156108e85780820380516001836020036101000a031916815260200191505b50935050505060405180910390f35b6108ff6115cc565b6040518080602001828103825283818151815260200191508051906020019080838360005b8381101561093f578082015181840152602081019050610924565b50505050905090810190601f16801561096c5780820380516001836020036101000a031916815260200191505b509250505060405180910390f35b6109a66004803603602081101561099057600080fd5b810190808035906020019092919050505061166e565b005b6109f6600480360360408110156109be57600080fd5b81019080803573ffffffffffffffffffffffffffffffffffffffff169060200190929190803515159060200190929190505050611682565b005b610a00611838565b6040518080602001828103825283818151815260200191508051906020019080838360005b83811015610a40578082015181840152602081019050610a25565b50505050905090810190601f168015610a6d5780820380516001836020036101000a031916815260200191505b509250505060405180910390f35b610b7e60048036036080811015610a9157600080fd5b81019080803573ffffffffffffffffffffffffffffffffffffffff169060200190929190803573ffffffffffffffffffffffffffffffffffffffff1690602001909291908035906020019092919080359060200190640100000000811115610af857600080fd5b820183602082011115610b0a57600080fd5b80359060200191846001830284011164010000000083111715610b2c57600080fd5b91908080601f016020809104026020016040519081016040528093929190818152602001838380828437600081840152601f19601f820116905080830192505050505050509192919290505050611875565b005b610bac60048036036020811015610b9657600080fd5b81019080803590602001909291905050506118ed565b6040518080602001828103825283818151815260200191508051906020019080838360005b83811015610bec578082015181840152602081019050610bd1565b50505050905090810190601f168015610c195780820380516001836020036101000a031916815260200191505b509250505060405180910390f35b610d0060048036036080811015610c3d57600080fd5b8101908080359060200190640100000000811115610c5a57600080fd5b820183602082011115610c6c57600080fd5b80359060200191846001830284011164010000000083111715610c8e57600080fd5b91908080601f016020809104026020016040519081016040528093929190818152602001838380828437600081840152601f19601f8201169050808301925050505050505091929192908035151590602001909291908035906020019092919080359060200190929190505050611bd6565b005b610d6460048036036040811015610d1857600080fd5b81019080803573ffffffffffffffffffffffffffffffffffffffff169060200190929190803573ffffffffffffffffffffffffffffffffffffffff169060200190929190505050611c73565b60405180821515815260200191505060405180910390f35b6000806000837bffffffffffffffffffffffffffffffffffffffffffffffffffffffff19167bffffffffffffffffffffffffffffffffffffffffffffffffffffffff1916815260200190815260200160002060009054906101000a900460ff169050919050565b606060068054600181600116156101000203166002900480601f016020809104026020016040519081016040528092919081815260200182805460018160011615610100020316600290048015610e7b5780601f10610e5057610100808354040283529160200191610e7b565b820191906000526020600020905b815481529060010190602001808311610e5e57829003601f168201915b5050505050905090565b6000610e9082611d07565b610ee5576040517f08c379a000000000000000000000000000000000000000000000000000000000815260040180806020018281038252602c8152602001806134a9602c913960400191505060405180910390fd5b6004600083815260200190815260200160002060009054906101000a900473ffffffffffffffffffffffffffffffffffffffff169050919050565b6000610f2b82611189565b90508073ffffffffffffffffffffffffffffffffffffffff168373ffffffffffffffffffffffffffffffffffffffff161415610fb2576040517f08c379a000000000000000000000000000000000000000000000000000000000815260040180806020018281038252602181526020018061352d6021913960400191505060405180910390fd5b8073ffffffffffffffffffffffffffffffffffffffff16610fd1611d24565b73ffffffffffffffffffffffffffffffffffffffff1614806110005750610fff81610ffa611d24565b611c73565b5b611055576040517f08c379a00000000000000000000000000000000000000000000000000000000081526004018080602001828103825260388152602001806133da6038913960400191505060405180910390fd5b61105f8383611d33565b505050565b60006110706002611dec565b905090565b611086611080611d24565b82611e01565b6110db576040517f08c379a00000000000000000000000000000000000000000000000000000000081526004018080602001828103825260318152602001806135726031913960400191505060405180910390fd5b6110e6838383611ef5565b505050565b600061113e82600160008673ffffffffffffffffffffffffffffffffffffffff1673ffffffffffffffffffffffffffffffffffffffff16815260200190815260200160002061213890919063ffffffff16565b905092915050565b61116183838360405180602001604052806000815250611875565b505050565b60008061117d83600261215290919063ffffffff16565b50905080915050919050565b60006111b98260405180606001604052806029815260200161343c60299139600261217e9092919063ffffffff16565b9050919050565b606060098054600181600116156101000203166002900480601f0160208091040260200160405190810160405280929190818152602001828054600181600116156101000203166002900480156112585780601f1061122d57610100808354040283529160200191611258565b820191906000526020600020905b81548152906001019060200180831161123b57829003601f168201915b5050505050905090565b60008073ffffffffffffffffffffffffffffffffffffffff168273ffffffffffffffffffffffffffffffffffffffff1614156112e9576040517f08c379a000000000000000000000000000000000000000000000000000000000815260040180806020018281038252602a815260200180613412602a913960400191505060405180910390fd5b611330600160008473ffffffffffffffffffffffffffffffffffffffff1673ffffffffffffffffffffffffffffffffffffffff16815260200190815260200160002061219d565b9050919050565b6000600a60009054906101000a900473ffffffffffffffffffffffffffffffffffffffff16905090565b600061136b611337565b73ffffffffffffffffffffffffffffffffffffffff163373ffffffffffffffffffffffffffffffffffffffff16146113ee576040517f08c379a000000000000000000000000000000000000000000000000000000000815260040180806020018281038252602481526020018061354e6024913960400191505060405180910390fd5b6113f7826121b2565b9050919050565b60006060808b8b8b8b8b8b8b611412611337565b30604051602001808a73ffffffffffffffffffffffffffffffffffffffff1660601b81526014018973ffffffffffffffffffffffffffffffffffffffff1660601b815260140188805190602001908083835b602083106114875780518252602082019150602081019050602083039250611464565b6001836020036101000a0380198251168184511680821785525050505050509050018781526020018681526020018581526020018481526020018373ffffffffffffffffffffffffffffffffffffffff1660601b81526014018273ffffffffffffffffffffffffffffffffffffffff1660601b815260140199505050505050505050506040516020818303038152906040529050600b60009054906101000a900473ffffffffffffffffffffffffffffffffffffffff1673ffffffffffffffffffffffffffffffffffffffff166115768661156884805190602001206121b9565b61221190919063ffffffff16565b73ffffffffffffffffffffffffffffffffffffffff1614156115a45761159a6124a9565b92509250506115be565b6115b86000808111156115b357fe5b6124cd565b92509250505b995099975050505050505050565b606060078054600181600116156101000203166002900480601f0160208091040260200160405190810160405280929190818152602001828054600181600116156101000203166002900480156116645780601f1061163957610100808354040283529160200191611664565b820191906000526020600020905b81548152906001019060200180831161164757829003601f168201915b5050505050905090565b61167f611679611d24565b826124ee565b50565b61168a611d24565b73ffffffffffffffffffffffffffffffffffffffff168273ffffffffffffffffffffffffffffffffffffffff16141561172b576040517f08c379a00000000000000000000000000000000000000000000000000000000081526004018080602001828103825260198152602001807f4552433732313a20617070726f766520746f2063616c6c65720000000000000081525060200191505060405180910390fd5b8060056000611738611d24565b73ffffffffffffffffffffffffffffffffffffffff1673ffffffffffffffffffffffffffffffffffffffff16815260200190815260200160002060008473ffffffffffffffffffffffffffffffffffffffff1673ffffffffffffffffffffffffffffffffffffffff16815260200190815260200160002060006101000a81548160ff0219169083151502179055508173ffffffffffffffffffffffffffffffffffffffff166117e5611d24565b73ffffffffffffffffffffffffffffffffffffffff167f17307eab39ab6107e8899845ad3d59bd9653f200f220920489ca2b5937696c318360405180821515815260200191505060405180910390a35050565b60606040518060400160405280600581526020017f312e302e30000000000000000000000000000000000000000000000000000000815250905090565b611886611880611d24565b83611e01565b6118db576040517f08c379a00000000000000000000000000000000000000000000000000000000081526004018080602001828103825260318152602001806135726031913960400191505060405180910390fd5b6118e7848484846126e2565b50505050565b60606118f882611d07565b61194d576040517f08c379a000000000000000000000000000000000000000000000000000000000815260040180806020018281038252602f8152602001806134fe602f913960400191505060405180910390fd5b6060600860008481526020019081526020016000208054600181600116156101000203166002900480601f0160208091040260200160405190810160405280929190818152602001828054600181600116156101000203166002900480156119f65780601f106119cb576101008083540402835291602001916119f6565b820191906000526020600020905b8154815290600101906020018083116119d957829003601f168201915b50505050509050600060098054600181600116156101000203166002900490501415611a255780915050611bd1565b600081511115611afe576009816040516020018083805460018160011615610100020316600290048015611a905780601f10611a6e576101008083540402835291820191611a90565b820191906000526020600020905b815481529060010190602001808311611a7c575b505082805190602001908083835b60208310611ac15780518252602082019150602081019050602083039250611a9e565b6001836020036101000a03801982511681845116808217855250505050505090500192505050604051602081830303815290604052915050611bd1565b6009611b0984612754565b6040516020018083805460018160011615610100020316600290048015611b675780601f10611b45576101008083540402835291820191611b67565b820191906000526020600020905b815481529060010190602001808311611b53575b505082805190602001908083835b60208310611b985780518252602082019150602081019050602083039250611b75565b6001836020036101000a038019825116818451168082178552505050505050905001925050506040516020818303038152906040529150505b919050565b611bde611337565b73ffffffffffffffffffffffffffffffffffffffff163373ffffffffffffffffffffffffffffffffffffffff1614611c61576040517f08c379a000000000000000000000000000000000000000000000000000000000815260040180806020018281038252602481526020018061354e6024913960400191505060405180910390fd5b611c6d8484848461289b565b50505050565b6000600560008473ffffffffffffffffffffffffffffffffffffffff1673ffffffffffffffffffffffffffffffffffffffff16815260200190815260200160002060008373ffffffffffffffffffffffffffffffffffffffff1673ffffffffffffffffffffffffffffffffffffffff16815260200190815260200160002060009054906101000a900460ff16905092915050565b6000611d1d8260026128a190919063ffffffff16565b9050919050565b6000611d2e6128bb565b905090565b816004600083815260200190815260200160002060006101000a81548173ffffffffffffffffffffffffffffffffffffffff021916908373ffffffffffffffffffffffffffffffffffffffff160217905550808273ffffffffffffffffffffffffffffffffffffffff16611da683611189565b73ffffffffffffffffffffffffffffffffffffffff167f8c5be1e5ebec7d5bd14f71427d1e84f3dd0314c0f7b2291e5b200ac8c7c3b92560405160405180910390a45050565b6000611dfa82600001612928565b9050919050565b6000611e0c82611d07565b611e61576040517f08c379a000000000000000000000000000000000000000000000000000000000815260040180806020018281038252602c8152602001806133ae602c913960400191505060405180910390fd5b6000611e6c83611189565b90508073ffffffffffffffffffffffffffffffffffffffff168473ffffffffffffffffffffffffffffffffffffffff161480611edb57508373ffffffffffffffffffffffffffffffffffffffff16611ec384610e85565b73ffffffffffffffffffffffffffffffffffffffff16145b80611eec5750611eeb8185611c73565b5b91505092915050565b8273ffffffffffffffffffffffffffffffffffffffff16611f1582611189565b73ffffffffffffffffffffffffffffffffffffffff1614611f81576040517f08c379a00000000000000000000000000000000000000000000000000000000081526004018080602001828103825260298152602001806134d56029913960400191505060405180910390fd5b600073ffffffffffffffffffffffffffffffffffffffff168273ffffffffffffffffffffffffffffffffffffffff161415612007576040517f08c379a00000000000000000000000000000000000000000000000000000000081526004018080602001828103825260248152602001806133686024913960400191505060405180910390fd5b612012838383612939565b61201d600082611d33565b61206e81600160008673ffffffffffffffffffffffffffffffffffffffff1673ffffffffffffffffffffffffffffffffffffffff16815260200190815260200160002061293e90919063ffffffff16565b506120c081600160008573ffffffffffffffffffffffffffffffffffffffff1673ffffffffffffffffffffffffffffffffffffffff16815260200190815260200160002061295890919063ffffffff16565b506120d7818360026129729092919063ffffffff16565b50808273ffffffffffffffffffffffffffffffffffffffff168473ffffffffffffffffffffffffffffffffffffffff167fddf252ad1be2c89b69c2b068fc378daa952ba7f163c4a11628f55a4df523b3ef60405160405180910390a4505050565b600061214783600001836129a7565b60001c905092915050565b6000806000806121658660000186612a2a565b915091508160001c8160001c9350935050509250929050565b6000612191846000018460001b84612ac3565b60001c90509392505050565b60006121ab82600001612bb9565b9050919050565b6000919050565b60008160405160200180807f19457468657265756d205369676e6564204d6573736167653a0a333200000000815250601c01828152602001915050604051602081830303815290604052805190602001209050919050565b6000604182511461228a576040517f08c379a000000000000000000000000000000000000000000000000000000000815260040180806020018281038252601f8152602001807f45434453413a20696e76616c6964207369676e6174757265206c656e6774680081525060200191505060405180910390fd5b60008060006020850151925060408501519150606085015160001a90507f7fffffffffffffffffffffffffffffff5d576e7357a4501ddfe92f46681b20a08260001c1115612323576040517f08c379a000000000000000000000000000000000000000000000000000000000815260040180806020018281038252602281526020018061338c6022913960400191505060405180910390fd5b601b8160ff161415801561233b5750601c8160ff1614155b15612391576040517f08c379a00000000000000000000000000000000000000000000000000000000081526004018080602001828103825260228152602001806134656022913960400191505060405180910390fd5b600060018783868660405160008152602001604052604051808581526020018460ff1681526020018381526020018281526020019450505050506020604051602081039080840390855afa1580156123ed573d6000803e3d6000fd5b505050602060405103519050600073ffffffffffffffffffffffffffffffffffffffff168173ffffffffffffffffffffffffffffffffffffffff16141561249c576040517f08c379a00000000000000000000000000000000000000000000000000000000081526004018080602001828103825260188152602001807f45434453413a20696e76616c6964207369676e6174757265000000000000000081525060200191505060405180910390fd5b8094505050505092915050565b600060606124c560405180602001604052806000815250612bca565b915091509091565b6000606082600b016040518060200160405280600081525091509150915091565b600073ffffffffffffffffffffffffffffffffffffffff168273ffffffffffffffffffffffffffffffffffffffff161415612591576040517f08c379a00000000000000000000000000000000000000000000000000000000081526004018080602001828103825260208152602001807f4552433732313a206d696e7420746f20746865207a65726f206164647265737381525060200191505060405180910390fd5b61259a81611d07565b1561260d576040517f08c379a000000000000000000000000000000000000000000000000000000000815260040180806020018281038252601c8152602001807f4552433732313a20746f6b656e20616c7265616479206d696e7465640000000081525060200191505060405180910390fd5b61261960008383612939565b61266a81600160008573ffffffffffffffffffffffffffffffffffffffff1673ffffffffffffffffffffffffffffffffffffffff16815260200190815260200160002061295890919063ffffffff16565b50612681818360026129729092919063ffffffff16565b50808273ffffffffffffffffffffffffffffffffffffffff16600073ffffffffffffffffffffffffffffffffffffffff167fddf252ad1be2c89b69c2b068fc378daa952ba7f163c4a11628f55a4df523b3ef60405160405180910390a45050565b6126ed848484611ef5565b6126f984848484612bda565b61274e576040517f08c379a00000000000000000000000000000000000000000000000000000000081526004018080602001828103825260328152602001806133366032913960400191505060405180910390fd5b50505050565b6060600082141561279c576040518060400160405280600181526020017f30000000000000000000000000000000000000000000000000000000000000008152509050612896565b600082905060005b600082146127c6578080600101915050600a82816127be57fe5b0491506127a4565b60608167ffffffffffffffff811180156127df57600080fd5b506040519080825280601f01601f1916602001820160405280156128125781602001600182028036833780820191505090505b50905060006001830390508593505b6000841461288e57600a848161283357fe5b0660300160f81b8282806001900393508151811061284d57fe5b60200101907effffffffffffffffffffffffffffffffffffffffffffffffffffffffffffff1916908160001a905350600a848161288657fe5b049350612821565b819450505050505b919050565b50505050565b60006128b3836000018360001b612df3565b905092915050565b6000600a60009054906101000a900473ffffffffffffffffffffffffffffffffffffffff1673ffffffffffffffffffffffffffffffffffffffff163373ffffffffffffffffffffffffffffffffffffffff161461291a57339050612925565b612922612e16565b90505b90565b600081600001805490509050919050565b505050565b6000612950836000018360001b612e8b565b905092915050565b600061296a836000018360001b612f73565b905092915050565b600061299e846000018460001b8473ffffffffffffffffffffffffffffffffffffffff1660001b612fe3565b90509392505050565b600081836000018054905011612a08576040517f08c379a00000000000000000000000000000000000000000000000000000000081526004018080602001828103825260228152602001806133146022913960400191505060405180910390fd5b826000018281548110612a1757fe5b9060005260206000200154905092915050565b60008082846000018054905011612a8c576040517f08c379a00000000000000000000000000000000000000000000000000000000081526004018080602001828103825260228152602001806134876022913960400191505060405180910390fd5b6000846000018481548110612a9d57fe5b906000526020600020906002020190508060000154816001015492509250509250929050565b60008084600101600085815260200190815260200160002054905060008114158390612b8a576040517f08c379a00000000000000000000000000000000000000000000000000000000081526004018080602001828103825283818151815260200191508051906020019080838360005b83811015612b4f578082015181840152602081019050612b34565b50505050905090810190601f168015612b7c5780820380516001836020036101000a031916815260200191505b509250505060405180910390fd5b50846000016001820381548110612b9d57fe5b9060005260206000209060020201600101549150509392505050565b600081600001805490509050919050565b6000606060008391509150915091565b6000612bfb8473ffffffffffffffffffffffffffffffffffffffff166130bf565b612c085760019050612deb565b6060612d7263150b7a0260e01b612c1d611d24565b888787604051602401808573ffffffffffffffffffffffffffffffffffffffff1681526020018473ffffffffffffffffffffffffffffffffffffffff16815260200183815260200180602001828103825283818151815260200191508051906020019080838360005b83811015612ca1578082015181840152602081019050612c86565b50505050905090810190601f168015612cce5780820380516001836020036101000a031916815260200191505b5095505050505050604051602081830303815290604052907bffffffffffffffffffffffffffffffffffffffffffffffffffffffff19166020820180517bffffffffffffffffffffffffffffffffffffffffffffffffffffffff8381831617835250505050604051806060016040528060328152602001613336603291398773ffffffffffffffffffffffffffffffffffffffff166130d29092919063ffffffff16565b90506000818060200190516020811015612d8b57600080fd5b8101908080519060200190929190505050905063150b7a0260e01b7bffffffffffffffffffffffffffffffffffffffffffffffffffffffff1916817bffffffffffffffffffffffffffffffffffffffffffffffffffffffff191614925050505b949350505050565b600080836001016000848152602001908152602001600020541415905092915050565b600060606000368080601f016020809104026020016040519081016040528093929190818152602001838380828437600081840152601f19601f820116905080830192505050505050509050600080369050905073ffffffffffffffffffffffffffffffffffffffff81830151169250505090565b60008083600101600084815260200190815260200160002054905060008114612f675760006001820390506000600186600001805490500390506000866000018281548110612ed657fe5b9060005260206000200154905080876000018481548110612ef357fe5b9060005260206000200181905550600183018760010160008381526020019081526020016000208190555086600001805480612f2b57fe5b60019003818190600052602060002001600090559055866001016000878152602001908152602001600020600090556001945050505050612f6d565b60009150505b92915050565b6000612f7f83836130ea565b612fd8578260000182908060018154018082558091505060019003906000526020600020016000909190919091505582600001805490508360010160008481526020019081526020016000208190555060019050612fdd565b600090505b92915050565b600080846001016000858152602001908152602001600020549050600081141561308a578460000160405180604001604052808681526020018581525090806001815401808255809150506001900390600052602060002090600202016000909190919091506000820151816000015560208201518160010155505084600001805490508560010160008681526020019081526020016000208190555060019150506130b8565b8285600001600183038154811061309d57fe5b90600052602060002090600202016001018190555060009150505b9392505050565b600080823b905060008111915050919050565b60606130e1848460008561310d565b90509392505050565b600080836001016000848152602001908152602001600020541415905092915050565b6060613118856130bf565b61318a576040517f08c379a000000000000000000000000000000000000000000000000000000000815260040180806020018281038252601d8152602001807f416464726573733a2063616c6c20746f206e6f6e2d636f6e747261637400000081525060200191505060405180910390fd5b600060608673ffffffffffffffffffffffffffffffffffffffff1685876040518082805190602001908083835b602083106131da57805182526020820191506020810190506020830392506131b7565b6001836020036101000a03801982511681845116808217855250505050505090500191505060006040518083038185875af1925050503d806000811461323c576040519150601f19603f3d011682016040523d82523d6000602084013e613241565b606091505b5091509150811561325657809250505061330b565b6000815111156132695780518082602001fd5b836040517f08c379a00000000000000000000000000000000000000000000000000000000081526004018080602001828103825283818151815260200191508051906020019080838360005b838110156132d05780820151818401526020810190506132b5565b50505050905090810190601f1680156132fd5780820380516001836020036101000a031916815260200191505b509250505060405180910390fd5b94935050505056fe456e756d657261626c655365743a20696e646578206f7574206f6620626f756e64734552433732313a207472616e7366657220746f206e6f6e20455243373231526563656976657220696d706c656d656e7465724552433732313a207472616e7366657220746f20746865207a65726f206164647265737345434453413a20696e76616c6964207369676e6174757265202773272076616c75654552433732313a206f70657261746f7220717565727920666f72206e6f6e6578697374656e7420746f6b656e4552433732313a20617070726f76652063616c6c6572206973206e6f74206f776e6572206e6f7220617070726f76656420666f7220616c6c4552433732313a2062616c616e636520717565727920666f7220746865207a65726f20616464726573734552433732313a206f776e657220717565727920666f72206e6f6e6578697374656e7420746f6b656e45434453413a20696e76616c6964207369676e6174757265202776272076616c7565456e756d657261626c654d61703a20696e646578206f7574206f6620626f756e64734552433732313a20617070726f76656420717565727920666f72206e6f6e6578697374656e7420746f6b656e4552433732313a207472616e73666572206f6620746f6b656e2074686174206973206e6f74206f776e4552433732314d657461646174613a2055524920717565727920666f72206e6f6e6578697374656e7420746f6b656e4552433732313a20617070726f76616c20746f2063757272656e74206f776e657247534e526563697069656e743a2063616c6c6572206973206e6f742052656c61794875624552433732313a207472616e736665722063616c6c6572206973206e6f74206f776e6572206e6f7220617070726f766564a2646970667358221220d5e0d932800cf0023956cf0932682435b3c4f08b1a63540d52b6f430d4b3ebbd64736f6c634300060c003347534e526563697069656e745369676e61747572653a2074727573746564207369676e657220697320746865207a65726f2061646472657373",
  "compiler": {
    "name": "solc",
    "version": "0.6.12+commit.27d51765.Emscripten.clang",
    "optimizer": {
      "enabled": false,
      "runs": 200
    },
    "evmVersion": "petersburg"
  }
}