{
  "fileName": "GSNRecipientSignatureMock.sol",
  "contractName": "GSNRecipientSignatureMock",
  "source": "// SPDX-License-Identifier: MIT\n\npragma solidity ^0.6.0;\n\nimport \"../GSN/GSNRecipient.sol\";\nimport \"../GSN/GSNRecipientSignature.sol\";\n\ncontract GSNRecipientSignatureMock is GSNRecipient, GSNRecipientSignature {\n    constructor(address trustedSigner) public GSNRecipientSignature(trustedSigner) { }\n\n    event MockFunctionCalled();\n\n    function mockFunction() public {\n        emit MockFunctionCalled();\n    }\n}\n",
  "sourcePath": "contracts/mocks/GSNRecipientSignatureMock.sol",
  "abi": [
    {
      "inputs": [
        {
          "internalType": "address",
          "name": "trustedSigner",
          "type": "address"
        }
      ],
      "stateMutability": "nonpayable",
      "type": "constructor"
    },
    {
      "anonymous": false,
      "inputs": [],
      "name": "MockFunctionCalled",
      "type": "event"
    },
    {
      "anonymous": false,
      "inputs": [
        {
          "indexed": true,
          "internalType": "address",
          "name": "oldRelayHub",
          "type": "address"
        },
        {
          "indexed": true,
          "internalType": "address",
          "name": "newRelayHub",
          "type": "address"
        }
      ],
      "name": "RelayHubChanged",
      "type": "event"
    },
    {
      "inputs": [
        {
          "internalType": "address",
          "name": "relay",
          "type": "address"
        },
        {
          "internalType": "address",
          "name": "from",
          "type": "address"
        },
        {
          "internalType": "bytes",
          "name": "encodedFunction",
          "type": "bytes"
        },
        {
          "internalType": "uint256",
          "name": "transactionFee",
          "type": "uint256"
        },
        {
          "internalType": "uint256",
          "name": "gasPrice",
          "type": "uint256"
        },
        {
          "internalType": "uint256",
          "name": "gasLimit",
          "type": "uint256"
        },
        {
          "internalType": "uint256",
          "name": "nonce",
          "type": "uint256"
        },
        {
          "internalType": "bytes",
          "name": "approvalData",
          "type": "bytes"
        },
        {
          "internalType": "uint256",
          "name": "",
          "type": "uint256"
        }
      ],
      "name": "acceptRelayedCall",
      "outputs": [
        {
          "internalType": "uint256",
          "name": "",
          "type": "uint256"
        },
        {
          "internalType": "bytes",
          "name": "",
          "type": "bytes"
        }
      ],
      "stateMutability": "view",
      "type": "function"
    },
    {
      "inputs": [],
      "name": "getHubAddr",
      "outputs": [
        {
          "internalType": "address",
          "name": "",
          "type": "address"
        }
      ],
      "stateMutability": "view",
      "type": "function"
    },
    {
      "inputs": [],
      "name": "mockFunction",
      "outputs": [],
      "stateMutability": "nonpayable",
      "type": "function"
    },
    {
      "inputs": [
        {
          "internalType": "bytes",
          "name": "context",
          "type": "bytes"
        },
        {
          "internalType": "bool",
          "name": "success",
          "type": "bool"
        },
        {
          "internalType": "uint256",
          "name": "actualCharge",
          "type": "uint256"
        },
        {
          "internalType": "bytes32",
          "name": "preRetVal",
          "type": "bytes32"
        }
      ],
      "name": "postRelayedCall",
      "outputs": [],
      "stateMutability": "nonpayable",
      "type": "function"
    },
    {
      "inputs": [
        {
          "internalType": "bytes",
          "name": "context",
          "type": "bytes"
        }
      ],
      "name": "preRelayedCall",
      "outputs": [
        {
          "internalType": "bytes32",
          "name": "",
          "type": "bytes32"
        }
      ],
      "stateMutability": "nonpayable",
      "type": "function"
    },
    {
      "inputs": [],
      "name": "relayHubVersion",
      "outputs": [
        {
          "internalType": "string",
          "name": "",
          "type": "string"
        }
      ],
      "stateMutability": "view",
      "type": "function"
    }
  ],
  "bytecode": "0x608060405273d216153c06e857cd7f72665e0af1d7d82172f4946000806101000a81548173ffffffffffffffffffffffffffffffffffffffff021916908373ffffffffffffffffffffffffffffffffffffffff16021790555034801561006457600080fd5b50604051610e4d380380610e4d8339818101604052602081101561008757600080fd5b810190808051906020019092919050505080600073ffffffffffffffffffffffffffffffffffffffff168173ffffffffffffffffffffffffffffffffffffffff16141561011f576040517f08c379a0000000000000000000000000000000000000000000000000000000008152600401808060200182810382526039815260200180610e146039913960400191505060405180910390fd5b80600160006101000a81548173ffffffffffffffffffffffffffffffffffffffff021916908373ffffffffffffffffffffffffffffffffffffffff1602179055505050610ca3806101716000396000f3fe608060405234801561001057600080fd5b50600436106100625760003560e01c80633e6fec041461006757806374e861d61461007157806380274db7146100a557806383947ea014610174578063ad61ccd5146103b9578063e06e0e221461043c575b600080fd5b61006f610517565b005b610079610545565b604051808273ffffffffffffffffffffffffffffffffffffffff16815260200191505060405180910390f35b61015e600480360360208110156100bb57600080fd5b81019080803590602001906401000000008111156100d857600080fd5b8201836020820111156100ea57600080fd5b8035906020019184600183028401116401000000008311171561010c57600080fd5b91908080601f016020809104026020016040519081016040528093929190818152602001838380828437600081840152601f19601f82011690508083019250505050505050919291929050505061056e565b6040518082815260200191505060405180910390f35b610337600480360361012081101561018b57600080fd5b81019080803573ffffffffffffffffffffffffffffffffffffffff169060200190929190803573ffffffffffffffffffffffffffffffffffffffff169060200190929190803590602001906401000000008111156101e857600080fd5b8201836020820111156101fa57600080fd5b8035906020019184600183028401116401000000008311171561021c57600080fd5b91908080601f016020809104026020016040519081016040528093929190818152602001838380828437600081840152601f19601f82011690508083019250505050505050919291929080359060200190929190803590602001909291908035906020019092919080359060200190929190803590602001906401000000008111156102a757600080fd5b8201836020820111156102b957600080fd5b803590602001918460018302840111640100000000831117156102db57600080fd5b91908080601f016020809104026020016040519081016040528093929190818152602001838380828437600081840152601f19601f8201169050808301925050505050505091929192908035906020019092919050505061060b565b6040518083815260200180602001828103825283818151815260200191508051906020019080838360005b8381101561037d578082015181840152602081019050610362565b50505050905090810190601f1680156103aa5780820380516001836020036101000a031916815260200191505b50935050505060405180910390f35b6103c16107d9565b6040518080602001828103825283818151815260200191508051906020019080838360005b838110156104015780820151818401526020810190506103e6565b50505050905090810190601f16801561042e5780820380516001836020036101000a031916815260200191505b509250505060405180910390f35b6105156004803603608081101561045257600080fd5b810190808035906020019064010000000081111561046f57600080fd5b82018360208201111561048157600080fd5b803590602001918460018302840111640100000000831117156104a357600080fd5b91908080601f016020809104026020016040519081016040528093929190818152602001838380828437600081840152601f19601f8201169050808301925050505050505091929192908035151590602001909291908035906020019092919080359060200190929190505050610816565b005b7f52c66ed6ec9ca819cba26fe2b2650059270d8981b295af300187a964f54a8c2360405160405180910390a1565b60008060009054906101000a900473ffffffffffffffffffffffffffffffffffffffff16905090565b6000610578610545565b73ffffffffffffffffffffffffffffffffffffffff163373ffffffffffffffffffffffffffffffffffffffff16146105fb576040517f08c379a0000000000000000000000000000000000000000000000000000000008152600401808060200182810382526024815260200180610c4a6024913960400191505060405180910390fd5b610604826108b3565b9050919050565b60006060808b8b8b8b8b8b8b61061f610545565b30604051602001808a73ffffffffffffffffffffffffffffffffffffffff1660601b81526014018973ffffffffffffffffffffffffffffffffffffffff1660601b815260140188805190602001908083835b602083106106945780518252602082019150602081019050602083039250610671565b6001836020036101000a0380198251168184511680821785525050505050509050018781526020018681526020018581526020018481526020018373ffffffffffffffffffffffffffffffffffffffff1660601b81526014018273ffffffffffffffffffffffffffffffffffffffff1660601b815260140199505050505050505050506040516020818303038152906040529050600160009054906101000a900473ffffffffffffffffffffffffffffffffffffffff1673ffffffffffffffffffffffffffffffffffffffff166107838661077584805190602001206108ba565b61091290919063ffffffff16565b73ffffffffffffffffffffffffffffffffffffffff1614156107b1576107a7610baa565b92509250506107cb565b6107c56000808111156107c057fe5b610bce565b92509250505b995099975050505050505050565b60606040518060400160405280600581526020017f312e302e30000000000000000000000000000000000000000000000000000000815250905090565b61081e610545565b73ffffffffffffffffffffffffffffffffffffffff163373ffffffffffffffffffffffffffffffffffffffff16146108a1576040517f08c379a0000000000000000000000000000000000000000000000000000000008152600401808060200182810382526024815260200180610c4a6024913960400191505060405180910390fd5b6108ad84848484610bef565b50505050565b6000919050565b60008160405160200180807f19457468657265756d205369676e6564204d6573736167653a0a333200000000815250601c01828152602001915050604051602081830303815290604052805190602001209050919050565b6000604182511461098b576040517f08c379a000000000000000000000000000000000000000000000000000000000815260040180806020018281038252601f8152602001807f45434453413a20696e76616c6964207369676e6174757265206c656e6774680081525060200191505060405180910390fd5b60008060006020850151925060408501519150606085015160001a90507f7fffffffffffffffffffffffffffffff5d576e7357a4501ddfe92f46681b20a08260001c1115610a24576040517f08c379a0000000000000000000000000000000000000000000000000000000008152600401808060200182810382526022815260200180610c066022913960400191505060405180910390fd5b601b8160ff1614158015610a3c5750601c8160ff1614155b15610a92576040517f08c379a0000000000000000000000000000000000000000000000000000000008152600401808060200182810382526022815260200180610c286022913960400191505060405180910390fd5b600060018783868660405160008152602001604052604051808581526020018460ff1681526020018381526020018281526020019450505050506020604051602081039080840390855afa158015610aee573d6000803e3d6000fd5b505050602060405103519050600073ffffffffffffffffffffffffffffffffffffffff168173ffffffffffffffffffffffffffffffffffffffff161415610b9d576040517f08c379a00000000000000000000000000000000000000000000000000000000081526004018080602001828103825260188152602001807f45434453413a20696e76616c6964207369676e6174757265000000000000000081525060200191505060405180910390fd5b8094505050505092915050565b60006060610bc660405180602001604052806000815250610bf5565b915091509091565b6000606082600b016040518060200160405280600081525091509150915091565b50505050565b600060606000839150915091509156fe45434453413a20696e76616c6964207369676e6174757265202773272076616c756545434453413a20696e76616c6964207369676e6174757265202776272076616c756547534e526563697069656e743a2063616c6c6572206973206e6f742052656c6179487562a26469706673582212205152cddb5c4fb3bac818b5c8cab388847676173473b6617f7593fb954313727164736f6c634300060c003347534e526563697069656e745369676e61747572653a2074727573746564207369676e657220697320746865207a65726f2061646472657373",
  "compiler": {
    "name": "solc",
    "version": "0.6.12+commit.27d51765.Emscripten.clang",
    "optimizer": {
      "enabled": false,
      "runs": 200
    },
    "evmVersion": "petersburg"
  }
}