{
  "contractName": "TestCalls",
  "abi": [
    {
      "constant": true,
      "inputs": [],
      "name": "lastMsgValue",
      "outputs": [
        {
          "name": "",
          "type": "uint256"
        }
      ],
      "payable": false,
      "type": "function"
    },
    {
      "constant": true,
      "inputs": [],
      "name": "uint1",
      "outputs": [
        {
          "name": "",
          "type": "uint256"
        }
      ],
      "payable": false,
      "type": "function"
    },
    {
      "constant": true,
      "inputs": [],
      "name": "lastMsgDataLength",
      "outputs": [
        {
          "name": "",
          "type": "uint256"
        }
      ],
      "payable": false,
      "type": "function"
    },
    {
      "constant": true,
      "inputs": [],
      "name": "byteArray1",
      "outputs": [
        {
          "name": "",
          "type": "bytes"
        }
      ],
      "payable": false,
      "type": "function"
    },
    {
      "constant": true,
      "inputs": [],
      "name": "uint2",
      "outputs": [
        {
          "name": "",
          "type": "uint256"
        }
      ],
      "payable": false,
      "type": "function"
    },
    {
      "inputs": [],
      "payable": false,
      "type": "constructor"
    },
    {
      "constant": false,
      "inputs": [
        {
          "name": "a",
          "type": "uint256"
        }
      ],
      "name": "receive1uint",
      "outputs": [],
      "payable": true,
      "type": "function"
    },
    {
      "constant": false,
      "inputs": [
        {
          "name": "a",
          "type": "uint256"
        },
        {
          "name": "b",
          "type": "uint256"
        }
      ],
      "name": "receive2uints",
      "outputs": [],
      "payable": true,
      "type": "function"
    },
    {
      "constant": false,
      "inputs": [
        {
          "name": "c",
          "type": "bytes"
        }
      ],
      "name": "receive1bytes",
      "outputs": [],
      "payable": true,
      "type": "function"
    },
    {
      "constant": false,
      "inputs": [],
      "name": "nonPayable",
      "outputs": [],
      "payable": false,
      "type": "function"
    }
  ],
  "bytecode": "0x6060604052341561000f57600080fd5b5b6000369050600081905550346001819055505b5b5b61047e806100346000396000f30060606040523615610097576000357c0100000000000000000000000000000000000000000000000000000000900463ffffffff168063463d1fca1461009c57806352da86d5146100c55780635e6feab4146100da57806371a9001c1461010357806388c7fb281461012c578063a8d82ed2146101bb578063a8e996c6146101dc578063afd9ee111461022e578063eb61dc5514610257575b600080fd5b34156100a757600080fd5b6100af61026f565b6040518082815260200191505060405180910390f35b34156100d057600080fd5b6100d8610275565b005b34156100e557600080fd5b6100ed61028b565b6040518082815260200191505060405180910390f35b341561010e57600080fd5b610116610291565b6040518082815260200191505060405180910390f35b341561013757600080fd5b61013f610297565b6040518080602001828103825283818151815260200191508051906020019080838360005b838110156101805780820151818401525b602081019050610164565b50505050905090810190601f1680156101ad5780820380516001836020036101000a031916815260200191505b509250505060405180910390f35b6101da6004808035906020019091908035906020019091905050610335565b005b61022c600480803590602001908201803590602001908080601f0160208091040260200160405190810160405280939291908181526020018383808284378201915050505050509190505061035b565b005b341561023957600080fd5b610241610389565b6040518082815260200191505060405180910390f35b61026d600480803590602001909190505061038f565b005b60015481565b6000369050600081905550346001819055505b5b565b60025481565b60005481565b60048054600181600116156101000203166002900480601f01602080910402602001604051908101604052809291908181526020018280546001816001161561010002031660029004801561032d5780601f106103025761010080835404028352916020019161032d565b820191906000526020600020905b81548152906001019060200180831161031057829003601f168201915b505050505081565b60003690506000819055503460018190555081600281905550806003819055505b5b5050565b60003690506000819055503460018190555080600490805190602001906103839291906103ad565b505b5b50565b60035481565b600036905060008190555034600181905550806002819055505b5b50565b828054600181600116156101000203166002900490600052602060002090601f016020900481019282601f106103ee57805160ff191683800117855561041c565b8280016001018555821561041c579182015b8281111561041b578251825591602001919060010190610400565b5b509050610429919061042d565b5090565b61044f91905b8082111561044b576000816000905550600101610433565b5090565b905600a165627a7a7230582064aba98ded53766a835e66ac6521842c41c76b681e14ce4fa182317d7c04408a0029",
  "source": "pragma solidity ^0.4.15;\n\n\n/// @title Contract for testing low-level calls issued from the multisig wallet\ncontract TestCalls {\n\n\t// msg.data.length of the latest call to \"receive\" methods\n\tuint public lastMsgDataLength;\n\n\t// msg.value of the latest call to \"receive\" methods\n\tuint public lastMsgValue;\n\n\tuint public uint1;\n\tuint public uint2;\n\tbytes public byteArray1;\n\n\tmodifier setMsgFields {\n\t\tlastMsgDataLength = msg.data.length;\n\t\tlastMsgValue = msg.value;\n\t\t_;\n\t}\n\n\tfunction TestCalls() setMsgFields public {\n\t\t// This constructor will be used to test the creation via multisig wallet\n\t}\n\n\tfunction receive1uint(uint a) setMsgFields payable public {\n\t\tuint1 = a;\n\t}\n\n\tfunction receive2uints(uint a, uint b) setMsgFields payable public {\n\t\tuint1 = a;\n\t\tuint2 = b;\n\t}\n\n\tfunction receive1bytes(bytes c) setMsgFields payable public {\n\t\tbyteArray1 = c;\n\t}\n\n\tfunction nonPayable() setMsgFields public {\n\t}\n\n}",
  "sourcePath": "/Users/present/code/MultiSigWallet/contracts/TestCalls.sol",
  "compiler": {
    "name": "solc",
    "version": "0.4.15+commit.bbb8e64f.Emscripten.clang"
  },
  "schemaVersion": "3.0.11",
  "updatedAt": "2020-08-14T17:51:26.473Z",
  "devdoc": {
    "methods": {},
    "title": "Contract for testing low-level calls issued from the multisig wallet"
  },
  "userdoc": {
    "methods": {}
  }
}