{
  "contractName": "TestToken",
  "abi": [
    {
      "constant": true,
      "inputs": [],
      "name": "name",
      "outputs": [
        {
          "name": "",
          "type": "string"
        }
      ],
      "payable": false,
      "type": "function"
    },
    {
      "constant": true,
      "inputs": [],
      "name": "totalSupply",
      "outputs": [
        {
          "name": "",
          "type": "uint256"
        }
      ],
      "payable": false,
      "type": "function"
    },
    {
      "constant": true,
      "inputs": [],
      "name": "decimals",
      "outputs": [
        {
          "name": "",
          "type": "uint8"
        }
      ],
      "payable": false,
      "type": "function"
    },
    {
      "constant": true,
      "inputs": [],
      "name": "symbol",
      "outputs": [
        {
          "name": "",
          "type": "string"
        }
      ],
      "payable": false,
      "type": "function"
    },
    {
      "anonymous": false,
      "inputs": [
        {
          "indexed": true,
          "name": "from",
          "type": "address"
        },
        {
          "indexed": true,
          "name": "to",
          "type": "address"
        },
        {
          "indexed": false,
          "name": "value",
          "type": "uint256"
        }
      ],
      "name": "Transfer",
      "type": "event"
    },
    {
      "anonymous": false,
      "inputs": [
        {
          "indexed": true,
          "name": "owner",
          "type": "address"
        },
        {
          "indexed": true,
          "name": "spender",
          "type": "address"
        },
        {
          "indexed": false,
          "name": "value",
          "type": "uint256"
        }
      ],
      "name": "Approval",
      "type": "event"
    },
    {
      "constant": false,
      "inputs": [
        {
          "name": "_to",
          "type": "address"
        },
        {
          "name": "_value",
          "type": "uint256"
        }
      ],
      "name": "issueTokens",
      "outputs": [],
      "payable": false,
      "type": "function"
    },
    {
      "constant": false,
      "inputs": [
        {
          "name": "_to",
          "type": "address"
        },
        {
          "name": "_value",
          "type": "uint256"
        }
      ],
      "name": "transfer",
      "outputs": [
        {
          "name": "success",
          "type": "bool"
        }
      ],
      "payable": false,
      "type": "function"
    },
    {
      "constant": false,
      "inputs": [
        {
          "name": "_from",
          "type": "address"
        },
        {
          "name": "_to",
          "type": "address"
        },
        {
          "name": "_value",
          "type": "uint256"
        }
      ],
      "name": "transferFrom",
      "outputs": [
        {
          "name": "success",
          "type": "bool"
        }
      ],
      "payable": false,
      "type": "function"
    },
    {
      "constant": false,
      "inputs": [
        {
          "name": "_spender",
          "type": "address"
        },
        {
          "name": "_value",
          "type": "uint256"
        }
      ],
      "name": "approve",
      "outputs": [
        {
          "name": "success",
          "type": "bool"
        }
      ],
      "payable": false,
      "type": "function"
    },
    {
      "constant": true,
      "inputs": [
        {
          "name": "_owner",
          "type": "address"
        },
        {
          "name": "_spender",
          "type": "address"
        }
      ],
      "name": "allowance",
      "outputs": [
        {
          "name": "remaining",
          "type": "uint256"
        }
      ],
      "payable": false,
      "type": "function"
    },
    {
      "constant": true,
      "inputs": [
        {
          "name": "_owner",
          "type": "address"
        }
      ],
      "name": "balanceOf",
      "outputs": [
        {
          "name": "balance",
          "type": "uint256"
        }
      ],
      "payable": false,
      "type": "function"
    }
  ],
  "bytecode": "0x6060604052341561000f57600080fd5b5b610aed8061001f6000396000f300606060405236156100a2576000357c0100000000000000000000000000000000000000000000000000000000900463ffffffff16806306fdde03146100a7578063095ea7b31461013657806318160ddd1461019057806323b872dd146101b9578063313ce56714610232578063475a9fa91461026157806370a08231146102a357806395d89b41146102f0578063a9059cbb1461037f578063dd62ed3e146103d9575b600080fd5b34156100b257600080fd5b6100ba610445565b6040518080602001828103825283818151815260200191508051906020019080838360005b838110156100fb5780820151818401525b6020810190506100df565b50505050905090810190601f1680156101285780820380516001836020036101000a031916815260200191505b509250505060405180910390f35b341561014157600080fd5b610176600480803573ffffffffffffffffffffffffffffffffffffffff1690602001909190803590602001909190505061047e565b604051808215151515815260200191505060405180910390f35b341561019b57600080fd5b6101a3610571565b6040518082815260200191505060405180910390f35b34156101c457600080fd5b610218600480803573ffffffffffffffffffffffffffffffffffffffff1690602001909190803573ffffffffffffffffffffffffffffffffffffffff16906020019091908035906020019091905050610577565b604051808215151515815260200191505060405180910390f35b341561023d57600080fd5b6102456107e1565b604051808260ff1660ff16815260200191505060405180910390f35b341561026c57600080fd5b6102a1600480803573ffffffffffffffffffffffffffffffffffffffff169060200190919080359060200190919050506107e6565b005b34156102ae57600080fd5b6102da600480803573ffffffffffffffffffffffffffffffffffffffff16906020019091905050610847565b6040518082815260200191505060405180910390f35b34156102fb57600080fd5b610303610890565b6040518080602001828103825283818151815260200191508051906020019080838360005b838110156103445780820151818401525b602081019050610328565b50505050905090810190601f1680156103715780820380516001836020036101000a031916815260200191505b509250505060405180910390f35b341561038a57600080fd5b6103bf600480803573ffffffffffffffffffffffffffffffffffffffff169060200190919080359060200190919050506108c9565b604051808215151515815260200191505060405180910390f35b34156103e457600080fd5b61042f600480803573ffffffffffffffffffffffffffffffffffffffff1690602001909190803573ffffffffffffffffffffffffffffffffffffffff16906020019091905050610a39565b6040518082815260200191505060405180910390f35b6040805190810160405280600a81526020017f5465737420546f6b656e0000000000000000000000000000000000000000000081525081565b600081600160003373ffffffffffffffffffffffffffffffffffffffff1673ffffffffffffffffffffffffffffffffffffffff16815260200190815260200160002060008573ffffffffffffffffffffffffffffffffffffffff1673ffffffffffffffffffffffffffffffffffffffff168152602001908152602001600020819055508273ffffffffffffffffffffffffffffffffffffffff163373ffffffffffffffffffffffffffffffffffffffff167f8c5be1e5ebec7d5bd14f71427d1e84f3dd0314c0f7b2291e5b200ac8c7c3b925846040518082815260200191505060405180910390a3600190505b92915050565b60025481565b6000816000808673ffffffffffffffffffffffffffffffffffffffff1673ffffffffffffffffffffffffffffffffffffffff1681526020019081526020016000205410158015610643575081600160008673ffffffffffffffffffffffffffffffffffffffff1673ffffffffffffffffffffffffffffffffffffffff16815260200190815260200160002060003373ffffffffffffffffffffffffffffffffffffffff1673ffffffffffffffffffffffffffffffffffffffff1681526020019081526020016000205410155b151561064e57600080fd5b816000808573ffffffffffffffffffffffffffffffffffffffff1673ffffffffffffffffffffffffffffffffffffffff16815260200190815260200160002060008282540192505081905550816000808673ffffffffffffffffffffffffffffffffffffffff1673ffffffffffffffffffffffffffffffffffffffff1681526020019081526020016000206000828254039250508190555081600160008673ffffffffffffffffffffffffffffffffffffffff1673ffffffffffffffffffffffffffffffffffffffff16815260200190815260200160002060003373ffffffffffffffffffffffffffffffffffffffff1673ffffffffffffffffffffffffffffffffffffffff168152602001908152602001600020600082825403925050819055508273ffffffffffffffffffffffffffffffffffffffff168473ffffffffffffffffffffffffffffffffffffffff167fddf252ad1be2c89b69c2b068fc378daa952ba7f163c4a11628f55a4df523b3ef846040518082815260200191505060405180910390a3600190505b9392505050565b600181565b806000808473ffffffffffffffffffffffffffffffffffffffff1673ffffffffffffffffffffffffffffffffffffffff16815260200190815260200160002060008282540192505081905550806002600082825401925050819055505b5050565b60008060008373ffffffffffffffffffffffffffffffffffffffff1673ffffffffffffffffffffffffffffffffffffffff1681526020019081526020016000205490505b919050565b6040805190810160405280600281526020017f545400000000000000000000000000000000000000000000000000000000000081525081565b600060406004810160003690501415156108e257600080fd5b826000803373ffffffffffffffffffffffffffffffffffffffff1673ffffffffffffffffffffffffffffffffffffffff168152602001908152602001600020541015151561092f57600080fd5b826000803373ffffffffffffffffffffffffffffffffffffffff1673ffffffffffffffffffffffffffffffffffffffff16815260200190815260200160002060008282540392505081905550826000808673ffffffffffffffffffffffffffffffffffffffff1673ffffffffffffffffffffffffffffffffffffffff168152602001908152602001600020600082825401925050819055508373ffffffffffffffffffffffffffffffffffffffff163373ffffffffffffffffffffffffffffffffffffffff167fddf252ad1be2c89b69c2b068fc378daa952ba7f163c4a11628f55a4df523b3ef856040518082815260200191505060405180910390a3600191505b5b5092915050565b6000600160008473ffffffffffffffffffffffffffffffffffffffff1673ffffffffffffffffffffffffffffffffffffffff16815260200190815260200160002060008373ffffffffffffffffffffffffffffffffffffffff1673ffffffffffffffffffffffffffffffffffffffff1681526020019081526020016000205490505b929150505600a165627a7a72305820afae06d7d7b56529e51b502afb09ec12590b9880f68e455f4aba3937bd95ff6d0029",
  "source": "pragma solidity ^0.4.15;\n\n\n/// @title Test token contract - Allows testing of token transfers with multisig wallet.\ncontract TestToken {\n\n    /*\n     *  Events\n     */\n    event Transfer(address indexed from, address indexed to, uint256 value);\n    event Approval(address indexed owner, address indexed spender, uint256 value);\n\n    /*\n     *  Constants\n     */\n    string constant public name = \"Test Token\";\n    string constant public symbol = \"TT\";\n    uint8 constant public decimals = 1;\n\n    /*\n     *  Storage\n     */\n    mapping (address => uint256) balances;\n    mapping (address => mapping (address => uint256)) allowed;\n    uint256 public totalSupply;\n\n    /*\n     * Public functions\n     */\n    /// @dev Issues new tokens.\n    /// @param _to Address of token receiver.\n    /// @param _value Number of tokens to issue.\n    function issueTokens(address _to, uint256 _value)\n        public\n    {\n        balances[_to] += _value;\n        totalSupply += _value;\n    }\n\n    /*\n     * This modifier is present in some real world token contracts, and due to a solidity\n     * bug it was not compatible with multisig wallets\n     */\n    modifier onlyPayloadSize(uint size) {\n        require(msg.data.length == size + 4);\n        _;\n    }\n\n    /// @dev Transfers sender's tokens to a given address. Returns success.\n    /// @param _to Address of token receiver.\n    /// @param _value Number of tokens to transfer.\n    /// @return Returns success of function call.\n    function transfer(address _to, uint256 _value) onlyPayloadSize(2 * 32)\n        public\n        returns (bool success)\n    {\n        require(balances[msg.sender] >= _value);\n        balances[msg.sender] -= _value;\n        balances[_to] += _value;\n        Transfer(msg.sender, _to, _value);\n        return true;\n    }\n\n    /// @dev Allows allowed third party to transfer tokens from one address to another. Returns success.\n    /// @param _from Address from where tokens are withdrawn.\n    /// @param _to Address to where tokens are sent.\n    /// @param _value Number of tokens to transfer.\n    /// @return Returns success of function call.\n    function transferFrom(address _from, address _to, uint256 _value)\n        public\n        returns (bool success)\n    {\n        require(balances[_from] >= _value && allowed[_from][msg.sender] >= _value);\n        balances[_to] += _value;\n        balances[_from] -= _value;\n        allowed[_from][msg.sender] -= _value;\n        Transfer(_from, _to, _value);\n        return true;\n    }\n\n    /// @dev Sets approved amount of tokens for spender. Returns success.\n    /// @param _spender Address of allowed account.\n    /// @param _value Number of approved tokens.\n    /// @return Returns success of function call.\n    function approve(address _spender, uint256 _value)\n        public\n        returns (bool success)\n    {\n        allowed[msg.sender][_spender] = _value;\n        Approval(msg.sender, _spender, _value);\n        return true;\n    }\n\n    /// @dev Returns number of allowed tokens for given address.\n    /// @param _owner Address of token owner.\n    /// @param _spender Address of token spender.\n    /// @return Returns remaining allowance for spender.\n    function allowance(address _owner, address _spender)\n        constant\n        public\n        returns (uint256 remaining)\n    {\n        return allowed[_owner][_spender];\n    }\n\n    /// @dev Returns number of tokens owned by given address.\n    /// @param _owner Address of token owner.\n    /// @return Returns balance of owner.\n    function balanceOf(address _owner)\n        constant\n        public\n        returns (uint256 balance)\n    {\n        return balances[_owner];\n    }\n}\n",
  "sourcePath": "/Users/present/code/MultiSigWallet/contracts/TestToken.sol",
  "compiler": {
    "name": "solc",
    "version": "0.4.15+commit.bbb8e64f.Emscripten.clang"
  },
  "schemaVersion": "3.0.11",
  "updatedAt": "2020-08-14T17:51:26.474Z",
  "devdoc": {
    "methods": {
      "allowance(address,address)": {
        "details": "Returns number of allowed tokens for given address.",
        "params": {
          "_owner": "Address of token owner.",
          "_spender": "Address of token spender."
        },
        "return": "Returns remaining allowance for spender."
      },
      "approve(address,uint256)": {
        "details": "Sets approved amount of tokens for spender. Returns success.",
        "params": {
          "_spender": "Address of allowed account.",
          "_value": "Number of approved tokens."
        },
        "return": "Returns success of function call."
      },
      "balanceOf(address)": {
        "details": "Returns number of tokens owned by given address.",
        "params": {
          "_owner": "Address of token owner."
        },
        "return": "Returns balance of owner."
      },
      "issueTokens(address,uint256)": {
        "details": "Issues new tokens.",
        "params": {
          "_to": "Address of token receiver.",
          "_value": "Number of tokens to issue."
        }
      },
      "transfer(address,uint256)": {
        "details": "Transfers sender's tokens to a given address. Returns success.",
        "params": {
          "_to": "Address of token receiver.",
          "_value": "Number of tokens to transfer."
        },
        "return": "Returns success of function call."
      },
      "transferFrom(address,address,uint256)": {
        "details": "Allows allowed third party to transfer tokens from one address to another. Returns success.",
        "params": {
          "_from": "Address from where tokens are withdrawn.",
          "_to": "Address to where tokens are sent.",
          "_value": "Number of tokens to transfer."
        },
        "return": "Returns success of function call."
      }
    },
    "title": "Test token contract - Allows testing of token transfers with multisig wallet."
  },
  "userdoc": {
    "methods": {}
  }
}