{
  "contractName": "MedianOracle",
  "abi": [
    {
      "constant": true,
      "inputs": [],
      "name": "reportDelaySec",
      "outputs": [
        {
          "name": "",
          "type": "uint256"
        }
      ],
      "payable": false,
      "stateMutability": "view",
      "type": "function"
    },
    {
      "constant": true,
      "inputs": [
        {
          "name": "",
          "type": "uint256"
        }
      ],
      "name": "providers",
      "outputs": [
        {
          "name": "",
          "type": "address"
        }
      ],
      "payable": false,
      "stateMutability": "view",
      "type": "function"
    },
    {
      "constant": false,
      "inputs": [],
      "name": "renounceOwnership",
      "outputs": [],
      "payable": false,
      "stateMutability": "nonpayable",
      "type": "function"
    },
    {
      "constant": true,
      "inputs": [],
      "name": "owner",
      "outputs": [
        {
          "name": "",
          "type": "address"
        }
      ],
      "payable": false,
      "stateMutability": "view",
      "type": "function"
    },
    {
      "constant": true,
      "inputs": [],
      "name": "isOwner",
      "outputs": [
        {
          "name": "",
          "type": "bool"
        }
      ],
      "payable": false,
      "stateMutability": "view",
      "type": "function"
    },
    {
      "constant": true,
      "inputs": [],
      "name": "minimumProviders",
      "outputs": [
        {
          "name": "",
          "type": "uint256"
        }
      ],
      "payable": false,
      "stateMutability": "view",
      "type": "function"
    },
    {
      "constant": true,
      "inputs": [],
      "name": "reportExpirationTimeSec",
      "outputs": [
        {
          "name": "",
          "type": "uint256"
        }
      ],
      "payable": false,
      "stateMutability": "view",
      "type": "function"
    },
    {
      "constant": true,
      "inputs": [
        {
          "name": "",
          "type": "address"
        },
        {
          "name": "",
          "type": "uint256"
        }
      ],
      "name": "providerReports",
      "outputs": [
        {
          "name": "timestamp",
          "type": "uint256"
        },
        {
          "name": "payload",
          "type": "uint256"
        }
      ],
      "payable": false,
      "stateMutability": "view",
      "type": "function"
    },
    {
      "constant": false,
      "inputs": [
        {
          "name": "newOwner",
          "type": "address"
        }
      ],
      "name": "transferOwnership",
      "outputs": [],
      "payable": false,
      "stateMutability": "nonpayable",
      "type": "function"
    },
    {
      "inputs": [
        {
          "name": "reportExpirationTimeSec_",
          "type": "uint256"
        },
        {
          "name": "reportDelaySec_",
          "type": "uint256"
        },
        {
          "name": "minimumProviders_",
          "type": "uint256"
        }
      ],
      "payable": false,
      "stateMutability": "nonpayable",
      "type": "constructor"
    },
    {
      "anonymous": false,
      "inputs": [
        {
          "indexed": false,
          "name": "provider",
          "type": "address"
        }
      ],
      "name": "ProviderAdded",
      "type": "event"
    },
    {
      "anonymous": false,
      "inputs": [
        {
          "indexed": false,
          "name": "provider",
          "type": "address"
        }
      ],
      "name": "ProviderRemoved",
      "type": "event"
    },
    {
      "anonymous": false,
      "inputs": [
        {
          "indexed": false,
          "name": "provider",
          "type": "address"
        }
      ],
      "name": "ReportTimestampOutOfRange",
      "type": "event"
    },
    {
      "anonymous": false,
      "inputs": [
        {
          "indexed": true,
          "name": "provider",
          "type": "address"
        },
        {
          "indexed": false,
          "name": "payload",
          "type": "uint256"
        },
        {
          "indexed": false,
          "name": "timestamp",
          "type": "uint256"
        }
      ],
      "name": "ProviderReportPushed",
      "type": "event"
    },
    {
      "anonymous": false,
      "inputs": [
        {
          "indexed": true,
          "name": "previousOwner",
          "type": "address"
        },
        {
          "indexed": true,
          "name": "newOwner",
          "type": "address"
        }
      ],
      "name": "OwnershipTransferred",
      "type": "event"
    },
    {
      "constant": false,
      "inputs": [
        {
          "name": "reportExpirationTimeSec_",
          "type": "uint256"
        }
      ],
      "name": "setReportExpirationTimeSec",
      "outputs": [],
      "payable": false,
      "stateMutability": "nonpayable",
      "type": "function"
    },
    {
      "constant": false,
      "inputs": [
        {
          "name": "reportDelaySec_",
          "type": "uint256"
        }
      ],
      "name": "setReportDelaySec",
      "outputs": [],
      "payable": false,
      "stateMutability": "nonpayable",
      "type": "function"
    },
    {
      "constant": false,
      "inputs": [
        {
          "name": "minimumProviders_",
          "type": "uint256"
        }
      ],
      "name": "setMinimumProviders",
      "outputs": [],
      "payable": false,
      "stateMutability": "nonpayable",
      "type": "function"
    },
    {
      "constant": false,
      "inputs": [
        {
          "name": "payload",
          "type": "uint256"
        }
      ],
      "name": "pushReport",
      "outputs": [],
      "payable": false,
      "stateMutability": "nonpayable",
      "type": "function"
    },
    {
      "constant": false,
      "inputs": [],
      "name": "purgeReports",
      "outputs": [],
      "payable": false,
      "stateMutability": "nonpayable",
      "type": "function"
    },
    {
      "constant": false,
      "inputs": [],
      "name": "getData",
      "outputs": [
        {
          "name": "",
          "type": "uint256"
        },
        {
          "name": "",
          "type": "bool"
        }
      ],
      "payable": false,
      "stateMutability": "nonpayable",
      "type": "function"
    },
    {
      "constant": false,
      "inputs": [
        {
          "name": "provider",
          "type": "address"
        }
      ],
      "name": "addProvider",
      "outputs": [],
      "payable": false,
      "stateMutability": "nonpayable",
      "type": "function"
    },
    {
      "constant": false,
      "inputs": [
        {
          "name": "provider",
          "type": "address"
        }
      ],
      "name": "removeProvider",
      "outputs": [],
      "payable": false,
      "stateMutability": "nonpayable",
      "type": "function"
    },
    {
      "constant": true,
      "inputs": [],
      "name": "providersSize",
      "outputs": [
        {
          "name": "",
          "type": "uint256"
        }
      ],
      "payable": false,
      "stateMutability": "view",
      "type": "function"
    }
  ],
  "bytecode": "0x6080604052600160055534801561001557600080fd5b50604051606080611817833981018060405281019080805190602001909291908051906020019092919080519060200190929190505050336000806101000a81548173ffffffffffffffffffffffffffffffffffffffff021916908373ffffffffffffffffffffffffffffffffffffffff1602179055506000809054906101000a900473ffffffffffffffffffffffffffffffffffffffff1673ffffffffffffffffffffffffffffffffffffffff16600073ffffffffffffffffffffffffffffffffffffffff167f8be0079c531659141344cd1fd0a4f28419497f9722a3daafe3b4186f6b6457e060405160405180910390a36312bed400831115151561011b57600080fd5b60008111151561012a57600080fd5b8260038190555081600481905550806005819055505050506116c6806101516000396000f3006080604052600436106100fc576000357c0100000000000000000000000000000000000000000000000000000000900463ffffffff16806312e800f1146101015780631e20d14b1461012c5780633bc5de301461015957806346e2577a1461018f57806350f3fc81146101d2578063715018a61461023f5780638a355a57146102565780638da5cb5b146102995780638f32d59b146102f0578063b577c0c71461031f578063d13d59711461034a578063da6b0eea14610361578063dcbb82531461038e578063df982985146103b9578063ef35bcce146103e4578063f10864b614610411578063f2fde38b14610479578063f68be513146104bc575b600080fd5b34801561010d57600080fd5b506101166104e9565b6040518082815260200191505060405180910390f35b34801561013857600080fd5b50610157600480360381019080803590602001909291905050506104ef565b005b34801561016557600080fd5b5061016e6106b6565b60405180838152602001821515151581526020019250505060405180910390f35b34801561019b57600080fd5b506101d0600480360381019080803573ffffffffffffffffffffffffffffffffffffffff169060200190929190505050610b77565b005b3480156101de57600080fd5b506101fd60048036038101908080359060200190929190505050610d13565b604051808273ffffffffffffffffffffffffffffffffffffffff1673ffffffffffffffffffffffffffffffffffffffff16815260200191505060405180910390f35b34801561024b57600080fd5b50610254610d51565b005b34801561026257600080fd5b50610297600480360381019080803573ffffffffffffffffffffffffffffffffffffffff169060200190929190505050610e23565b005b3480156102a557600080fd5b506102ae61103a565b604051808273ffffffffffffffffffffffffffffffffffffffff1673ffffffffffffffffffffffffffffffffffffffff16815260200191505060405180910390f35b3480156102fc57600080fd5b50610305611063565b604051808215151515815260200191505060405180910390f35b34801561032b57600080fd5b506103346110ba565b6040518082815260200191505060405180910390f35b34801561035657600080fd5b5061035f6110c0565b005b34801561036d57600080fd5b5061038c600480360381019080803590602001909291905050506111df565b005b34801561039a57600080fd5b506103a36111fc565b6040518082815260200191505060405180910390f35b3480156103c557600080fd5b506103ce611209565b6040518082815260200191505060405180910390f35b3480156103f057600080fd5b5061040f6004803603810190808035906020019092919050505061120f565b005b34801561041d57600080fd5b5061045c600480360381019080803573ffffffffffffffffffffffffffffffffffffffff1690602001909291908035906020019092919050505061123b565b604051808381526020018281526020019250505060405180910390f35b34801561048557600080fd5b506104ba600480360381019080803573ffffffffffffffffffffffffffffffffffffffff169060200190929190505050611271565b005b3480156104c857600080fd5b506104e760048036038101908080359060200190929190505050611290565b005b60045481565b6000806104fa6115b4565b600080339450600260008673ffffffffffffffffffffffffffffffffffffffff1673ffffffffffffffffffffffffffffffffffffffff1681526020019081526020016000209350604080519081016040528085600060028110151561055b57fe5b6002020160000154815260200185600160028110151561057757fe5b60020201600001548152509250600083600060028110151561059557fe5b60200201511115156105a657600080fd5b8260016002811015156105b557fe5b60200201518360006002811015156105c957fe5b602002015110156105db5760016105de565b60005b915081600103905042610611600454858560ff166002811015156105fe57fe5b60200201516112c090919063ffffffff16565b1115151561061e57600080fd5b42848260ff1660028110151561063057fe5b600202016000018190555085848260ff1660028110151561064d57fe5b60020201600101819055508473ffffffffffffffffffffffffffffffffffffffff167f460fcc5a1888965d48c2cab000fe20da51b1297d995af79a1924e2312d0d82b38742604051808381526020018281526020019250505060405180910390a2505050505050565b6000806000606060008060008060006106cd6115d6565b6000806000806001805490509b508b60405190808252806020026020018201604052801561070a5781602001602082028038833980820191505090505b509a5060009950610726600354426112e190919063ffffffff16565b985061073d600454426112e190919063ffffffff16565b9750600096505b8b871015610b3d5760018781548110151561075b57fe5b9060005260206000200160009054906101000a900473ffffffffffffffffffffffffffffffffffffffff169550600260008773ffffffffffffffffffffffffffffffffffffffff1673ffffffffffffffffffffffffffffffffffffffff168152602001908152602001600020600280602002604051908101604052809291906000905b8282101561081a5783826002020160408051908101604052908160008201548152602001600182015481525050815260200190600101906107de565b50505050945084600160028110151561082f57fe5b60200201516000015185600060028110151561084757fe5b602002015160000151101561085d576001610860565b60005b9350836001039250848460ff1660028110151561087957fe5b602002015160000151915087821115610a4557600260008773ffffffffffffffffffffffffffffffffffffffff1673ffffffffffffffffffffffffffffffffffffffff1681526020019081526020016000208360ff166002811015156108db57fe5b6002020160000154905088811015610955577f71f61642cb57ac11764a2f35fb4edc5361ced458af35bbed8f5ebf708c10e34186604051808273ffffffffffffffffffffffffffffffffffffffff1673ffffffffffffffffffffffffffffffffffffffff16815260200191505060405180910390a1610a40565b878111156109c5577f71f61642cb57ac11764a2f35fb4edc5361ced458af35bbed8f5ebf708c10e34186604051808273ffffffffffffffffffffffffffffffffffffffff1673ffffffffffffffffffffffffffffffffffffffff16815260200191505060405180910390a1610a3f565b600260008773ffffffffffffffffffffffffffffffffffffffff1673ffffffffffffffffffffffffffffffffffffffff1681526020019081526020016000208360ff16600281101515610a1457fe5b60020201600101548b8b806001019c50815181101515610a3057fe5b90602001906020020181815250505b5b610b30565b88821015610ab5577f71f61642cb57ac11764a2f35fb4edc5361ced458af35bbed8f5ebf708c10e34186604051808273ffffffffffffffffffffffffffffffffffffffff1673ffffffffffffffffffffffffffffffffffffffff16815260200191505060405180910390a1610b2f565b600260008773ffffffffffffffffffffffffffffffffffffffff1673ffffffffffffffffffffffffffffffffffffffff1681526020019081526020016000208460ff16600281101515610b0457fe5b60020201600101548b8b806001019c50815181101515610b2057fe5b90602001906020020181815250505b5b8680600101975050610744565b6005548a1015610b56576000808191509d509d50610b67565b610b608b8b611302565b60019d509d505b5050505050505050505050509091565b610b7f611063565b1515610b8a57600080fd5b6000600260008373ffffffffffffffffffffffffffffffffffffffff1673ffffffffffffffffffffffffffffffffffffffff1681526020019081526020016000206000600281101515610bd957fe5b6002020160000154141515610bed57600080fd5b60018190806001815401808255809150509060018203906000526020600020016000909192909190916101000a81548173ffffffffffffffffffffffffffffffffffffffff021916908373ffffffffffffffffffffffffffffffffffffffff160217905550506001600260008373ffffffffffffffffffffffffffffffffffffffff1673ffffffffffffffffffffffffffffffffffffffff1681526020019081526020016000206000600281101515610ca257fe5b60020201600001819055507fae9c2c6481964847714ce58f65a7f6dcc41d0d8394449bacdf161b5920c4744a81604051808273ffffffffffffffffffffffffffffffffffffffff1673ffffffffffffffffffffffffffffffffffffffff16815260200191505060405180910390a150565b600181815481101515610d2257fe5b906000526020600020016000915054906101000a900473ffffffffffffffffffffffffffffffffffffffff1681565b610d59611063565b1515610d6457600080fd5b600073ffffffffffffffffffffffffffffffffffffffff166000809054906101000a900473ffffffffffffffffffffffffffffffffffffffff1673ffffffffffffffffffffffffffffffffffffffff167f8be0079c531659141344cd1fd0a4f28419497f9722a3daafe3b4186f6b6457e060405160405180910390a360008060006101000a81548173ffffffffffffffffffffffffffffffffffffffff021916908373ffffffffffffffffffffffffffffffffffffffff160217905550565b6000610e2d611063565b1515610e3857600080fd5b600260008373ffffffffffffffffffffffffffffffffffffffff1673ffffffffffffffffffffffffffffffffffffffff1681526020019081526020016000206000610e839190611604565b600090505b600180549050811015611036578173ffffffffffffffffffffffffffffffffffffffff16600182815481101515610ebb57fe5b9060005260206000200160009054906101000a900473ffffffffffffffffffffffffffffffffffffffff1673ffffffffffffffffffffffffffffffffffffffff1614156110295760018054905060018201141515610fab57600180808054905003815481101515610f2857fe5b9060005260206000200160009054906101000a900473ffffffffffffffffffffffffffffffffffffffff16600182815481101515610f6257fe5b9060005260206000200160006101000a81548173ffffffffffffffffffffffffffffffffffffffff021916908373ffffffffffffffffffffffffffffffffffffffff1602179055505b6001805480919060019003610fc0919061162f565b507f1589f8555933761a3cff8aa925061be3b46e2dd43f621322ab611d300f62b1d982604051808273ffffffffffffffffffffffffffffffffffffffff1673ffffffffffffffffffffffffffffffffffffffff16815260200191505060405180910390a1611036565b8080600101915050610e88565b5050565b60008060009054906101000a900473ffffffffffffffffffffffffffffffffffffffff16905090565b60008060009054906101000a900473ffffffffffffffffffffffffffffffffffffffff1673ffffffffffffffffffffffffffffffffffffffff163373ffffffffffffffffffffffffffffffffffffffff1614905090565b60055481565b60003390506000600260008373ffffffffffffffffffffffffffffffffffffffff1673ffffffffffffffffffffffffffffffffffffffff168152602001908152602001600020600060028110151561111457fe5b600202016000015411151561112857600080fd5b6001600260008373ffffffffffffffffffffffffffffffffffffffff1673ffffffffffffffffffffffffffffffffffffffff168152602001908152602001600020600060028110151561117757fe5b60020201600001819055506001600260008373ffffffffffffffffffffffffffffffffffffffff1673ffffffffffffffffffffffffffffffffffffffff16815260200190815260200160002060016002811015156111d157fe5b600202016000018190555050565b6111e7611063565b15156111f257600080fd5b8060048190555050565b6000600180549050905090565b60035481565b611217611063565b151561122257600080fd5b60008111151561123157600080fd5b8060058190555050565b60026020528160005260406000208160028110151561125657fe5b60020201600091509150508060000154908060010154905082565b611279611063565b151561128457600080fd5b61128d816114ba565b50565b611298611063565b15156112a357600080fd5b6312bed40081111515156112b657600080fd5b8060038190555050565b60008082840190508381101515156112d757600080fd5b8091505092915050565b6000808383111515156112f357600080fd5b82840390508091505092915050565b600080600080600085118015611319575084865110155b151561132457600080fd5b600192505b84831015611406578291505b6000821180156113755750858281518110151561134e57fe5b90602001906020020151866001840381518110151561136957fe5b90602001906020020151115b156113f957858281518110151561138857fe5b90602001906020020151905085600183038151811015156113a557fe5b9060200190602002015186838151811015156113bd57fe5b90602001906020020181815250508086600184038151811015156113dd57fe5b9060200190602002018181525050818060019003925050611335565b8280600101935050611329565b600160028681151561141457fe5b061415611446578560028681151561142857fe5b0481518110151561143557fe5b9060200190602002015193506114b1565b60026114a487600160028981151561145a57fe5b040381518110151561146857fe5b906020019060200201518860028981151561147f57fe5b0481518110151561148c57fe5b906020019060200201516112c090919063ffffffff16565b8115156114ad57fe5b0493505b50505092915050565b600073ffffffffffffffffffffffffffffffffffffffff168173ffffffffffffffffffffffffffffffffffffffff16141515156114f657600080fd5b8073ffffffffffffffffffffffffffffffffffffffff166000809054906101000a900473ffffffffffffffffffffffffffffffffffffffff1673ffffffffffffffffffffffffffffffffffffffff167f8be0079c531659141344cd1fd0a4f28419497f9722a3daafe3b4186f6b6457e060405160405180910390a3806000806101000a81548173ffffffffffffffffffffffffffffffffffffffff021916908373ffffffffffffffffffffffffffffffffffffffff16021790555050565b6040805190810160405280600290602082028038833980820191505090505090565b6080604051908101604052806002905b6115ee61165b565b8152602001906001900390816115e65790505090565b5060008082016000905560018201600090555060020160008082016000905560018201600090555050565b815481835581811115611656578183600052602060002091820191016116559190611675565b5b505050565b604080519081016040528060008152602001600081525090565b61169791905b8082111561169357600081600090555060010161167b565b5090565b905600a165627a7a723058208482b3aaecdfc296403bf470243fec1e2b13c8b8bac0a5a1952b24e915655a8d0029",
  "source": "pragma solidity 0.4.24;\n\nimport \"openzeppelin-solidity/contracts/math/SafeMath.sol\";\nimport \"openzeppelin-solidity/contracts/ownership/Ownable.sol\";\n\nimport \"./lib/Select.sol\";\n\n\ninterface IOracle {\n    function getData() external returns (uint256, bool);\n}\n\n\n/**\n * @title Median Oracle\n *\n * @notice Provides a value onchain that's aggregated from a whitelisted set of\n *         providers.\n */\ncontract MedianOracle is Ownable, IOracle {\n    using SafeMath for uint256;\n\n    struct Report {\n        uint256 timestamp;\n        uint256 payload;\n    }\n\n    // Addresses of providers authorized to push reports.\n    address[] public providers;\n\n    // Reports indexed by provider address. Report[0].timestamp > 0\n    // indicates provider existence.\n    mapping (address => Report[2]) public providerReports;\n\n    event ProviderAdded(address provider);\n    event ProviderRemoved(address provider);\n    event ReportTimestampOutOfRange(address provider);\n    event ProviderReportPushed(address indexed provider, uint256 payload, uint256 timestamp);\n\n    // The number of seconds after which the report is deemed expired.\n    uint256 public reportExpirationTimeSec;\n\n    // The number of seconds since reporting that has to pass before a report\n    // is usable.\n    uint256 public reportDelaySec;\n\n    // The minimum number of providers with valid reports to consider the\n    // aggregate report valid.\n    uint256 public minimumProviders = 1;\n\n    // Timestamp of 1 is used to mark uninitialized and invalidated data.\n    // This is needed so that timestamp of 1 is always considered expired.\n    uint256 private constant MAX_REPORT_EXPIRATION_TIME = 520 weeks;\n\n    /**\n    * @param reportExpirationTimeSec_ The number of seconds after which the\n    *                                 report is deemed expired.\n    * @param reportDelaySec_ The number of seconds since reporting that has to\n    *                        pass before a report is usable\n    * @param minimumProviders_ The minimum number of providers with valid\n    *                          reports to consider the aggregate report valid.\n    */\n    constructor(uint256 reportExpirationTimeSec_,\n                uint256 reportDelaySec_,\n                uint256 minimumProviders_)\n        public\n    {\n        require(reportExpirationTimeSec_ <= MAX_REPORT_EXPIRATION_TIME);\n        require(minimumProviders_ > 0);\n        reportExpirationTimeSec = reportExpirationTimeSec_;\n        reportDelaySec = reportDelaySec_;\n        minimumProviders = minimumProviders_;\n    }\n\n     /**\n     * @notice Sets the report expiration period.\n     * @param reportExpirationTimeSec_ The number of seconds after which the\n     *        report is deemed expired.\n     */\n    function setReportExpirationTimeSec(uint256 reportExpirationTimeSec_)\n        external\n        onlyOwner\n    {\n        require(reportExpirationTimeSec_ <= MAX_REPORT_EXPIRATION_TIME);\n        reportExpirationTimeSec = reportExpirationTimeSec_;\n    }\n\n    /**\n    * @notice Sets the time period since reporting that has to pass before a\n    *         report is usable.\n    * @param reportDelaySec_ The new delay period in seconds.\n    */\n    function setReportDelaySec(uint256 reportDelaySec_)\n        external\n        onlyOwner\n    {\n        reportDelaySec = reportDelaySec_;\n    }\n\n    /**\n    * @notice Sets the minimum number of providers with valid reports to\n    *         consider the aggregate report valid.\n    * @param minimumProviders_ The new minimum number of providers.\n    */\n    function setMinimumProviders(uint256 minimumProviders_)\n        external\n        onlyOwner\n    {\n        require(minimumProviders_ > 0);\n        minimumProviders = minimumProviders_;\n    }\n\n    /**\n     * @notice Pushes a report for the calling provider.\n     * @param payload is expected to be 18 decimal fixed point number.\n     */\n    function pushReport(uint256 payload) external\n    {\n        address providerAddress = msg.sender;\n        Report[2] storage reports = providerReports[providerAddress];\n        uint256[2] memory timestamps = [reports[0].timestamp, reports[1].timestamp];\n\n        require(timestamps[0] > 0);\n\n        uint8 index_recent = timestamps[0] >= timestamps[1] ? 0 : 1;\n        uint8 index_past = 1 - index_recent;\n\n        // Check that the push is not too soon after the last one.\n        require(timestamps[index_recent].add(reportDelaySec) <= now);\n\n        reports[index_past].timestamp = now;\n        reports[index_past].payload = payload;\n\n        emit ProviderReportPushed(providerAddress, payload, now);\n    }\n\n    /**\n    * @notice Invalidates the reports of the calling provider.\n    */\n    function purgeReports() external\n    {\n        address providerAddress = msg.sender;\n        require (providerReports[providerAddress][0].timestamp > 0);\n        providerReports[providerAddress][0].timestamp=1;\n        providerReports[providerAddress][1].timestamp=1;\n    }\n\n    /**\n    * @notice Computes median of provider reports whose timestamps are in the\n    *         valid timestamp range.\n    * @return AggregatedValue: Median of providers reported values.\n    *         valid: Boolean indicating an aggregated value was computed successfully.\n    */\n    function getData()\n        external\n        returns (uint256, bool)\n    {\n        uint256 reportsCount = providers.length;\n        uint256[] memory validReports = new uint256[](reportsCount);\n        uint256 size = 0;\n        uint256 minValidTimestamp =  now.sub(reportExpirationTimeSec);\n        uint256 maxValidTimestamp =  now.sub(reportDelaySec);\n\n        for (uint256 i = 0; i < reportsCount; i++) {\n            address providerAddress = providers[i];\n            Report[2] memory reports = providerReports[providerAddress];\n\n            uint8 index_recent = reports[0].timestamp >= reports[1].timestamp ? 0 : 1;\n            uint8 index_past = 1 - index_recent;\n            uint256 reportTimestampRecent = reports[index_recent].timestamp;\n            if (reportTimestampRecent > maxValidTimestamp) {\n                // Recent report is too recent.\n                uint256 reportTimestampPast = providerReports[providerAddress][index_past].timestamp;\n                if (reportTimestampPast < minValidTimestamp) {\n                    // Past report is too old.\n                    emit ReportTimestampOutOfRange(providerAddress);\n                } else if (reportTimestampPast > maxValidTimestamp) {\n                    // Past report is too recent.\n                    emit ReportTimestampOutOfRange(providerAddress);\n                } else {\n                    // Using past report.\n                    validReports[size++] = providerReports[providerAddress][index_past].payload;\n                }\n            } else {\n                // Recent report is not too recent.\n                if (reportTimestampRecent < minValidTimestamp) {\n                    // Recent report is too old.\n                    emit ReportTimestampOutOfRange(providerAddress);\n                } else {\n                    // Using recent report.\n                    validReports[size++] = providerReports[providerAddress][index_recent].payload;\n                }\n            }\n        }\n\n        if (size < minimumProviders) {\n            return (0, false);\n        }\n\n        return (Select.computeMedian(validReports, size), true);\n    }\n\n    /**\n     * @notice Authorizes a provider.\n     * @param provider Address of the provider.\n     */\n    function addProvider(address provider)\n        external\n        onlyOwner\n    {\n        require(providerReports[provider][0].timestamp == 0);\n        providers.push(provider);\n        providerReports[provider][0].timestamp = 1;\n        emit ProviderAdded(provider);\n    }\n\n    /**\n     * @notice Revokes provider authorization.\n     * @param provider Address of the provider.\n     */\n    function removeProvider(address provider)\n        external\n        onlyOwner\n    {\n        delete providerReports[provider];\n        for (uint256 i = 0; i < providers.length; i++) {\n            if (providers[i] == provider) {\n                if (i + 1  != providers.length) {\n                    providers[i] = providers[providers.length-1];\n                }\n                providers.length--;\n                emit ProviderRemoved(provider);\n                break;\n            }\n        }\n    }\n\n    /**\n     * @return The number of authorized providers.\n     */\n    function providersSize()\n        external\n        view\n        returns (uint256)\n    {\n        return providers.length;\n    }\n}\n",
  "sourcePath": "/Users/present/code/rebase-contracts/dependencies/market-oracle/contracts/MedianOracle.sol",
  "compiler": {
    "name": "solc",
    "version": "0.4.24+commit.e67f0147.Emscripten.clang"
  },
  "schemaVersion": "2.0.1",
  "updatedAt": "2020-08-06T21:24:23.405Z"
}