{
  "contractName": "SelectMock",
  "abi": [
    {
      "anonymous": false,
      "inputs": [
        {
          "indexed": false,
          "name": "val",
          "type": "uint256"
        }
      ],
      "name": "ReturnValueUInt256",
      "type": "event"
    },
    {
      "constant": false,
      "inputs": [
        {
          "name": "data",
          "type": "uint256[]"
        },
        {
          "name": "size",
          "type": "uint256"
        }
      ],
      "name": "computeMedian",
      "outputs": [
        {
          "name": "",
          "type": "uint256"
        }
      ],
      "payable": false,
      "stateMutability": "nonpayable",
      "type": "function"
    }
  ],
  "bytecode": "0x608060405234801561001057600080fd5b50610324806100206000396000f300608060405260043610610041576000357c0100000000000000000000000000000000000000000000000000000000900463ffffffff168063b6ed806614610046575b600080fd5b34801561005257600080fd5b506100896004803603810190808035906020019082018035906020019190919293919293908035906020019092919050505061009f565b6040518082815260200191505060405180910390f35b6000806100db8585808060200260200160405190810160405280939291908181526020018383602002808284378201915050505050508461011f565b90507fc028cff220cff87437edbc841c3fface4b1dd4693fd279d83a299950b06a5d75816040518082815260200191505060405180910390a1809150509392505050565b600080600080600085118015610136575084865110155b151561014157600080fd5b600192505b84831015610223578291505b6000821180156101925750858281518110151561016b57fe5b90602001906020020151866001840381518110151561018657fe5b90602001906020020151115b156102165785828151811015156101a557fe5b90602001906020020151905085600183038151811015156101c257fe5b9060200190602002015186838151811015156101da57fe5b90602001906020020181815250508086600184038151811015156101fa57fe5b9060200190602002018181525050818060019003925050610152565b8280600101935050610146565b600160028681151561023157fe5b061415610263578560028681151561024557fe5b0481518110151561025257fe5b9060200190602002015193506102ce565b60026102c187600160028981151561027757fe5b040381518110151561028557fe5b906020019060200201518860028981151561029c57fe5b048151811015156102a957fe5b906020019060200201516102d790919063ffffffff16565b8115156102ca57fe5b0493505b50505092915050565b60008082840190508381101515156102ee57600080fd5b80915050929150505600a165627a7a723058201020568e7570d9f7a80f2cf33e166deba02ab8b7405d4e08081b2c6da23ecc650029",
  "source": "pragma solidity 0.4.24;\n\nimport \"../lib/Select.sol\";\n\ncontract Mock {\n    event ReturnValueUInt256(uint256 val);\n}\n\ncontract SelectMock is Mock{\n    function computeMedian(uint256[] data, uint256 size) external returns (uint256)\n    {\n        uint256 result = Select.computeMedian(data, size);\n        emit ReturnValueUInt256(result);\n        return result;\n    }\n}\n",
  "sourcePath": "/Users/present/code/rebase-contracts/dependencies/market-oracle/contracts/mocks/SelectMock.sol",
  "compiler": {
    "name": "solc",
    "version": "0.4.24+commit.e67f0147.Emscripten.clang"
  },
  "schemaVersion": "2.0.1",
  "updatedAt": "2020-08-06T21:24:23.409Z"
}